:1000000010480020FD3A00006B980000D13A000033
:10001000D13A0000D13A0000D13A000000000000BF
:10002000000000000000000000000000393800005F
:10003000D13A000000000000F1370000D13A000082
:10004000B5380000B5380000B5380000B5380000FC
:10005000B5380000B5380000B5380000B5380000EC
:10006000B5380000B5380000B5380000B5380000DC
:10007000B5380000B5380000B5380000B5380000CC
:10008000B5380000B5380000B5380000B5380000BC
:10009000B5380000B5380000B5380000B5380000AC
:1000A000B5380000B5380000B5380000B53800009C
:1000B000B5380000B5380000B5380000B53800008C
:1000C000B5380000B5380000B5380000B53800007C
:1000D000B5380000B5380000B5380000B53800006C
:1000E000B5380000B5380000B5380000B53800005C
:1000F000B5380000B5380000B5380000B53800004C
:1001000081F0004102E000BF83F0004330B54FEAC8
:1001100041044FEA430594EA050F08BF90EA020F35
:100120001FBF54EA000C55EA020C7FEA645C7FEAC8
:10013000655C00F0E2804FEA5454D4EB5555B8BFEB
:100140006D420CDD2C4480EA020281EA030382EA5C
:10015000000083EA010180EA020281EA0303362DEE
:1001600088BF30BD11F0004F4FEA01314FF4801CC1
:100170004CEA113102D0404261EB410113F0004FD3
:100180004FEA03334CEA133302D0524263EB43038A
:1001900094EA050F00F0A780A4F10104D5F1200E28
:1001A0000DDB02FA0EFC22FA05F2801841F1000183
:1001B00003FA0EF2801843FA05F359410EE0A5F157
:1001C00020050EF1200E012A03FA0EFC28BF4CF088
:1001D000020C43FA05F3C01851EBE37101F000453E
:1001E00007D54FF0000EDCF1000C7EEB00006EEB4B
:1001F0000101B1F5801F1BD3B1F5001F0CD34908D5
:100200005FEA30004FEA3C0C04F101044FEA44522B
:1002100012F5800F80F09A80BCF1004F08BF5FEAB2
:10022000500C50F1000041EB045141EA050130BD92
:100230005FEA4C0C404141EB0101013C28BFB1F5A4
:10024000801FE9D291F0000F04BF01460020B1FAEF
:1002500081F308BF2033A3F10B03B3F120020CDAC2
:100260000C3208DD02F1140CC2F10C0201FA0CF0A0
:1002700021FA02F10CE002F11402D8BFC2F1200C05
:1002800001FA02F120FA0CFCDCBF41EA0C019040BB
:10029000E41AA2BF01EB0451294330BD6FEA040404
:1002A0001F3C1CDA0C340EDC04F11404C4F12002EF
:1002B00020FA04F001FA02F340EA030021FA04F301
:1002C00045EA030130BDC4F10C04C4F1200220FA58
:1002D00002F001FA04F340EA0300294630BD21FA96
:1002E00004F0294630BD94F0000F83F4801306BF5C
:1002F00081F480110134013D4EE77FEA645C18BF50
:100300007FEA655C29D094EA050F08BF90EA020FE6
:1003100005D054EA000C04BF1946104630BD91EADE
:10032000030F1EBF0021002030BD5FEA545C05D1E1
:100330004000494128BF41F0004130BD14F5800420
:100340003CBF01F5801130BD01F0004545F0FE4194
:1003500041F470014FF0000030BD7FEA645C1ABFC9
:10036000194610467FEA655C1CBF0B46024650EA00
:10037000013406BF52EA033591EA030F41F400212C
:1003800030BD00BF90F0000F04BF0021704730B5B2
:100390004FF4806404F132044FF000054FF0000187
:1003A00050E700BF90F0000F04BF0021704730B548
:1003B0004FF4806404F1320410F0004548BF40421D
:1003C0004FF000013EE700BF42004FEAE2014FEA72
:1003D00031014FEA02701FBF12F07F4393F07F4F4D
:1003E00081F06051704732F07F4208BF704793F050
:1003F0007F4F04BF41F40021704730B54FF4607463
:1004000001F0004521F000411CE700BF50EA010265
:1004100008BF704730B54FF000050AE050EA01020E
:1004200008BF704730B511F0004502D5404261EB7E
:1004300041014FF4806404F132045FEA915C3FF4BF
:10044000D8AE4FF003025FEADC0C18BF03325FEA5C
:10045000DC0C18BF033202EBDC02C2F1200300FA0D
:1004600003FC20FA02F001FA03FE40EA0E0021FA32
:1004700002F11444BDE600BF70B54FF0FF0C4CF420
:10048000E06C1CEA11541DBF1CEA135594EA0C0FD2
:1004900095EA0C0F00F0DEF82C4481EA030621EA0D
:1004A0004C5123EA4C5350EA013518BF52EA033548
:1004B00041F4801143F4801338D0A0FB02CE4FF0FA
:1004C0000005E1FB02E506F00042E0FB03E54FF02A
:1004D0000006E1FB03569CF0000F18BF4EF0010E22
:1004E000A4F1FF04B6F5007F64F5407404D25FEA1E
:1004F0004E0E6D4146EB060642EAC62141EA5551D1
:100500004FEAC52040EA5E504FEACE2EB4F1FD0C12
:1005100088BFBCF5E06F1ED8BEF1004F08BF5FEA90
:10052000500E50F1000041EB045170BD06F0004642
:1005300046EA010140EA020081EA0301B4EB5C04EF
:10054000C2BFD4EB0C0541EA045170BD41F48011E7
:100550004FF0000E013C00F3AB8014F1360FDEBF0C
:10056000002001F0004170BDC4F10004203C35DAE8
:100570000C341BDC04F11404C4F1200500FA05F36B
:1005800020FA04F001FA05F240EA020001F000420C
:1005900021F0004110EBD37021FA04F642EB060182
:1005A0005EEA430E08BF20EAD37070BDC4F10C04AC
:1005B000C4F1200500FA04F320FA05F001FA04F270
:1005C00040EA020001F0004110EBD37041F100015C
:1005D0005EEA430E08BF20EAD37070BDC4F1200567
:1005E00000FA05F24EEA020E20FA04F301FA05F2CF
:1005F00043EA020321FA04F001F0004121FA04F277
:1006000020EA020000EBD3705EEA430E08BF20EA46
:10061000D37070BD94F0000F0FD101F00046400080
:1006200041EB010111F4801F08BF013CF7D041EA02
:10063000060195F0000F18BF704703F00046520006
:1006400043EB030313F4801F08BF013DF7D043EAD7
:100650000603704794EA0C0F0CEA135518BF95EA8D
:100660000C0F0CD050EA410618BF52EA4306D1D114
:1006700081EA030101F000414FF0000070BD50EA33
:10068000410606BF1046194652EA430619D094EABD
:100690000C0F02D150EA013613D195EA0C0F05D1A7
:1006A00052EA03361CBF104619460AD181EA0301FB
:1006B00001F0004141F0FE4141F470014FF00000B3
:1006C00070BD41F0FE4141F4780170BD70B54FF04E
:1006D000FF0C4CF4E06C1CEA11541DBF1CEA1355CE
:1006E00094EA0C0F95EA0C0F00F0A7F8A4EB0504B0
:1006F00081EA030E52EA03354FEA013100F08880A7
:100700004FEA03334FF0805545EA131343EA12636F
:100710004FEA022245EA111545EA10654FEA002624
:100720000EF000419D4208BF964244F1FD0404F5DD
:10073000407402D25B084FEA3202B61A65EB030539
:100740005B084FEA32024FF480104FF4002CB6EBF6
:10075000020E75EB030E22BFB61A754640EA0C0076
:100760005B084FEA3202B6EB020E75EB030E22BFB6
:10077000B61A754640EA5C005B084FEA3202B6EBF7
:10078000020E75EB030E22BFB61A754640EA9C00B6
:100790005B084FEA3202B6EB020E75EB030E22BF86
:1007A000B61A754640EADC0055EA060E18D04FEA44
:1007B000051545EA16754FEA06164FEAC30343EAE4
:1007C00052734FEAC2025FEA1C1CC0D111F4801FB1
:1007D0000BD141EA00014FF000004FF0004CB6E7AA
:1007E00011F4801F04BF01430020B4F1FD0C88BF49
:1007F000BCF5E06F3FF6AFAEB5EB030C04BFB6EB54
:10080000020C5FEA500C50F1000041EB045170BD46
:100810000EF0004E4EEA113114EB5C04C2BFD4EB73
:100820000C0541EA045170BD41F480114FF0000EF7
:10083000013C90E645EA060E8DE60CEA135594EA73
:100840000C0F08BF95EA0C0F3FF43BAF94EA0C0F76
:100850000AD150EA01347FF434AF95EA0C0F7FF4EB
:1008600025AF104619462CE795EA0C0F06D152EA3F
:1008700003353FF4FDAE1046194622E750EA410623
:1008800018BF52EA43067FF4C5AE50EA41047FF434
:100890000DAF52EA43057FF4EBAE12E74FEA410297
:1008A00012F5001215D211D56FF47873B3EB6252C2
:1008B00012D94FEAC12343F0004343EA505311F0E9
:1008C000004F23FA02F018BF404270474FF000007B
:1008D000704750EA013005D111F0004008BF6FF0B9
:1008E000004070474FF00000704700BF53B94AB94D
:1008F000002908BF00281CBF4FF0FF314FF0FF3028
:1009000000F074B9ADF1080C6DE904CE00F006F802
:10091000DDF804E0DDE9022304B070472DE9F0477B
:10092000089E0D4604468846002B4DD18A429446C7
:1009300068D9B2FA82F252B101FA02F3C2F120018F
:1009400020FA01F10CFA02FC41EA030894404FEA54
:100950001C45210CB8FBF5FE1FFA8CF705FB1E8326
:1009600041EA03430EFB07F199420BD91CEB030349
:100970000EF1FF3080F01E81994240F21B81AEF1F2
:10098000020E63445B1AA4B2B3FBF5F005FB10330F
:1009900044EA034400FB07F7A7420AD91CEB04040E
:1009A00000F1FF3380F00881A74240F205816444E2
:1009B0000238E41B40EA0E4000211EB1D44000235F
:1009C000C6E90043BDE8F0878B4208D9002E00F04D
:1009D000EE800021C6E900050846BDE8F087B3FABD
:1009E00083F100294AD1AB4202D3824200F2F9805E
:1009F000841A65EB030301209846002EE2D0C6E975
:100A00000048DFE702B9FFDEB2FA82F2002A40F0C6
:100A10009180A1EB0C054FEA1C471FFA8CFE0121C7
:100A2000B5FBF7F307FB1350250C45EA00450EFB19
:100A300003F0A84208D91CEB050503F1FF3802D2E8
:100A4000A84200F2CB8043462D1AA4B2B5FBF7F0C2
:100A500007FB105544EA05440EFB00FEA64508D9E5
:100A60001CEB040400F1FF3502D2A64500F2BB8066
:100A70002846A4EB0E0440EA03409EE7C1F120079C
:100A80008B4022FA07FC4CEA030C20FA07F405FA23
:100A900001F31C43FD404FEA1C4900FA01F3B5FB8A
:100AA000F9F8200C1FFA8CFE09FB185540EA0545A1
:100AB00008FB0EF0A84202FA01F20BD91CEB050567
:100AC00008F1FF3A80F08880A84240F28580A8F1C2
:100AD000020865442D1AA4B2B5FBF9F009FB1055C4
:100AE00044EA054500FB0EFEAE4508D91CEB0505A2
:100AF00000F1FF346CD2AE456AD90238654440EA51
:100B00000840A0FB0294A5EB0E05A542C846A646E8
:100B100056D353D05EB1B3EB080265EB0E0505FA70
:100B200007F722FA01F3CD401F43C6E90075002103
:100B3000BDE8F087C2F1200320FA03F10CFA02FCB1
:100B400025FA03F395400D434FEA1C471FFA8CFE2C
:100B5000B3FBF7F107FB11302B0C43EA004301FB19
:100B60000EF0984204FA02F408D91CEB030301F1D9
:100B7000FF382FD298422DD9023963441B1AADB2E7
:100B8000B3FBF7F007FB103345EA034500FB0EF318
:100B9000AB4208D91CEB050500F1FF3816D2AB4279
:100BA00014D902386544ED1A40EA014138E731466C
:100BB000304607E78646E5E61846FAE64B45A9D2F1
:100BC000B9EB020864EB0C0E0138A3E74046EAE7F4
:100BD000204694E74146D1E7D0467BE7023B654497
:100BE00032E7084609E76444023842E7704700BF2D
:100BF00010F8012B11F8013B012A28BF9A42F7D0C7
:100C0000D01A7047034613F8012B002AFBD1181A9B
:100C100001387047000000002DE9F04FBDB090464C
:100C20000022059306460D461346AA4241DBB3FB5C
:100C3000F5F3974C00222046AA423FDB944A00215C
:100C4000136852F8040F03445068034490681B185B
:100C500048BF033301319B10B1F5F87F42F8043CE3
:100C6000EED18C498A4F8C46002240F2EF1E3B4663
:100C700078681B680132C31A72454CF8043B07F1CF
:100C80000407F4D1834A0020136852F8047F3B44E0
:100C9000013003EBD3735B10B0F5F77F42F8043CEF
:100CA000F2D17C480027DFF8F0E1844606230022D9
:100CB00012E056F8221001320B44B6E756F8221023
:100CC000C91A40F8041B0132B6E75CF804ABD14600
:100CD0003EF802AB09FB1A22013BF6D140F27A4CF6
:100CE000013792FBFCF240F8042B40F2E9129742E4
:100CF000D9D11A4640F2EF1751F8040B01330028FE
:100D0000B8BF4042BB420244F6D108210520B2FBE5
:100D1000F3F2CDE90110009209A95E4A2DA808F06E
:100D20003CF8099901294FF0000338DD2DAA01276D
:100D30001046D2F804C000680137ACEB0000B9429D
:100D400002F104020344F3D14A1E93FBF2F341F291
:100D5000707292FBF3F3479A13600123489A0FAF26
:100D600013700DF1B40C3846002399421BDC4B4B39
:100D700047489C4600228646AA421BDB00221646B4
:100D80000DF1780AB1421FDC012A3CDC059A444B84
:100D900013600023469A13703DB0BDE8F08F47986A
:100DA0003F4A0260DAE75CF8042B023240F8042B79
:100DB0000133DAE756F8229040F8049B58F8229065
:100DC0004CF8049B0132D7E757F8040B851FB5F5A3
:100DD000F27F0BD2451F4FF0807805304FF0010CA9
:100DE000854205D1BCF1000F00D101320136C9E7BF
:100DF0005EF82590C145BEBF4AF82650C8464FF060
:100E0000000C0135ECE70025216854F8040F01447B
:100E100060680844A168411848BF0331891044F84C
:100E2000041C196853F8040F014458680144986879
:100E3000091848BF033101358910B5F5F87F43F82B
:100E4000041CE1D10023CDE90A33CDE90C331EACFB
:100E50000E93214651F8040BB0F5FA7F96DC01336E
:100E60009A42F7D10021531E094D0C4E07938E462E
:100E7000D4F804C054F8040BACEB0008B8F10A0F26
:100E80000EF1010E54DD4FF07F470346B94617E0DF
:100E9000DC1D00201C160020DCAF0000AC2500206B
:100EA00019FCFFFF55F82320BA42C8BF174656F871
:100EB0002320C8BF06934A45C4BF9B4691460133D1
:100EC0009C45EFDC55F8202055F82C30DDF818A0B3
:100ED0009B1AAAEB000A0AFB03F393FBF8F31344F3
:100EE00055F82B20D21A09FB02F24FEAE219B9F1A8
:100EF000000F1DDD04291BDC56F8203056F82C208D
:100F0000ABEB0000D21A504390FBF8F0184456F8AF
:100F10002B301B1A5F43FF110AD03CAB03EB810C53
:100F2000642303FB07F2013192FBF9F24CF8C82C61
:100F3000079B9E459CDB0AA807F0C5FE4A100329C3
:100F40004FEA82033ADD3CA9F03301EB82026B44A5
:100F500052F8CC4C53F8C83C1C4404EBD4746410D5
:100F6000E31EB42B3FF612AF6FF02C0004FB04F32A
:100F7000434342F2107093FBF0F0FFF713FA06467A
:100F800020460F46FFF70EFA0FA3D3E90023FFF721
:100F900073FA114B0022FFF799FB02460B463046CD
:100FA0003946FFF7B3F80AA3D3E90023FFF7AEF8F9
:100FB000FFF774FC059B18600123EBE6F0336B44EC
:100FC00053F8C84CCCE700BFB4C876BE9F5A3E4029
:100FD000AE47E17A14B65740000059402DE9F04F72
:100FE000002087B001F0D2FC0546002840F0B18017
:100FF0005A4800F0F1F85A4806F016FC0446026917
:1010000081681368574F584EDFF86091DFF84CA1A4
:10101000DFF85CB123F4806313600B68554A0A2142
:1010200098474E4807F017FE4C4807F008FE524A12
:101030004FF4FA731360504B1968A94267DC4F4BA9
:10104000DFF83C814F4F0093474A4F4B4548CDF85E
:1010500008800197FFF7E0FDDFF830A1414A4249DF
:101060006423D1F8900141F8040B0133D2F89001C8
:1010700042F8040BB3F5FA7FF3D16423444E454D97
:101080000593204607F049FD01285ED032462946E7
:101090003248DFF8F490DFF8E4B000F0E1F83448CB
:1010A00007F0AEFE3168504607F0AAFE3A4807F056
:1010B000A7FE2968504607F0A3FE3968374807F0B5
:1010C0009FFE98F90010364807F09AFED9F80010F4
:1010D000344807F095FE9BF90010334807F090FE66
:1010E000059B013B06F1040605F104050593C8D1F3
:1010F000CDE901782049CDF800B01B4A09681948AC
:101100004B46FFF789FDA9E7484607F079FE2046E0
:1011100007F003FD0128F7D03246394650460596C0
:1011200000F09EF8584607F06BFE059B17481968BB
:1011300007F066FE184807F063FE39681B4807F0A1
:101140005FFE04360437013575E7084807F058FE9E
:1011500097E7012007B0BDE8F08F00BF8CAB00001F
:101160003EB0000070060020400E002045B0000098
:101170004EB000000001080014160020B13B002012
:10118000B03B0020101600201816002053B00000BD
:1011900080140020B00C002056B000005CB00000AD
:1011A00066B0000073B000007DB0000087B00000A2
:1011B00007B500230DF10702FF218DF8073007F076
:1011C000CFFC10B1034807F01BFE9DF8070003B0E9
:1011D0005DF804FB8CB000000B4B10B51968044699
:1011E00083681B689847204609F007F920B907482B
:1011F000BDE8104007F004BE2046FFF7D9FF1528D0
:1012000014BF03480348F3E700000020AEB000001D
:10121000C8B00000DFB0000007B500210DF10702E3
:1012200007F09EFC10B1044807F0EAFD9DF80700A6
:1012300003B05DF804FB00BFEEB0000007B501216C
:101240000DF1070207F08CFC10B1044807F0D8FD3F
:101250009DF8070003B05DF804FB00BFEEB000008E
:101260007FB500230B60064613600D461446FFF75A
:10127000D3FF3046FFF7E2FF07238DF807300DF16B
:101280000701062302AA304607F055FC014610B1BB
:10129000134807F0B5FD9DF809309DF808201B02A2
:1012A00003EB02439DF80A2013442A6813442B6081
:1012B0009DF80C309DF80B201B0203EB02439DF8B8
:1012C0000D2013442268134423602B68C3F31103D9
:1012D0002B6023680120C3F31103236004B070BDA9
:1012E0000AB100000B6801330B60014B1B68184703
:1012F00004000020014B1860704700BF040000206C
:1013000007B50B46002102460191034801A900F0F0
:1013100045F903B05DF804FBE51200002DE9F84F34
:10132000B0F8189019F00808044693460DD001292A
:101330000CBF49F0100949F02009A0F818908BF370
:101340001188BFF36F8FBDE8F88F09F007090229F4
:1013500007D1204607F07BFD0028F0D00128238B21
:101360004ED16769218B002F15DA256821F007011E
:10137000C4E9008841F0010121830026218B01F09E
:10138000070ACA4502D0A368002B5AD10DB9002E16
:1013900071D0002356E001F007035A1F012A1ED81E
:1013A00021F00701062B256889B2C4E900880AD11B
:1013B0003DB1638B2A46126801339BB2002AFAD1F1
:1013C000638341F002012183204607F040FD064679
:1013D0000028D3D0238B43F020032383CDE7042BB5
:1013E0000CD121F0070189B22183204607F02FFD9F
:1013F00005460028C1D041F0200121830025BCE72B
:10140000032809D1226923F00703166843F0060375
:10141000238300252F46B1E7042806D1226923F053
:101420000703566843F00403F2E7052806D1226952
:1014300023F00703966843F00503E9E700252E46ED
:10144000E8E7012341F0080121838BF31188BFF302
:101450006F8FFBB985BB16B11F492046B0474FF0CF
:101460002003EFF3118B83F31288BFF36F8F238B6D
:1014700023F008032383238BDA0625D523F01003FA
:1014800023830121B4F8189009F0070900297FF49B
:101490005EAF54E7A1680029DCD0D1F80090D1F804
:1014A00004B03B4652462046D847B9F1000FD1D090
:1014B0004946D9F80090F2E729463B465246204675
:1014C0002D6807F0E0FCC5E713F020011EBF23F0F4
:1014D000200323830221D5E7B38E0000F0B5084E28
:1014E000026803460A270020114601320C78A55DE8
:1014F0006D0701D41960F0BD07FB00403038F3E7F9
:101500001EB200002DE9F84F15469A46D378224ABC
:1015100013F802B06F2B80460F460BF0030B29D057
:1015200024D8582B14BF0A261026DDF828903246FE
:10153000002340463946FFF7D9F9092AD4B21ED80C
:101540003034B045E4B277F1000309F8014D01D31E
:10155000D14511D82B789B0605D5082E15D1AB782F
:1015600043F00803AB704846BDE8F88F03F0F7037B
:10157000702BD7E70826D8E780460F46D7E7BBF1A0
:10158000010F0CBF37345734DBE7102EEBD1AB78AB
:1015900043F01003E6E700BF1EB200002DE9F04F54
:1015A00081469BB08A4615461C460026287810B90D
:1015B000304600F0C5BD6B1C2528029306D051466D
:1015C000C8470028C0F2BC85013626E21822002157
:1015D0000CA809F02CFA6B78252B59D06A1C1746F9
:1015E00012F8013B2B2B00F08B8079D8202B00F0D8
:1015F0008C80232B00F08E809DF8383003F044025D
:10160000442A03D16FF386138DF838309DF83830B3
:101610000A9743F080038DF838303B782A2B7ED12F
:101620009DF8393043F001038DF839307B1C0A9363
:101630001A782E2A9DF839200CBF0121002161F370
:1016400041028DF839200BD15A1C0A925A782A2A65
:101650007BD19DF8392042F004028DF83920023305
:101660001A4612F8010B6C2800F0CF807DD868284C
:1016700000F084806A2800F0D2804C2800F0D680E8
:101680009DF839206FF3C6028DF839201A4680E0A4
:10169000AA1C02928DF83B309DF83930DF0740F1EB
:1016A000708154F804BBBBF1000F07DA9DF83820B5
:1016B00042F004028DF83820CBF1000B580740F1BE
:1016C000698154F8048BB8F1000F80F268819DF8AD
:1016D00039306FF341038DF839304FF0FF385EE158
:1016E0002D2B06D0302B87D19DF8383043F04003A6
:1016F00003E09DF8383043F004038DF838306EE78E
:101700009DF8383043F00803F7E79DF8383043F090
:101710001003F2E79DF8383043F02003EDE70AA804
:10172000FFF7DCFE0A9BBB4281D09DF838100F907A
:10173000C1F3400242EAD072520062F07F0201F02F
:101740007D010A438DF8382071E70AA8FFF7C6FE2D
:101750009DF838301090C3F3400242EAD07060F335
:1017600041038DF838300A9B7AE774289DF83910C8
:1017700059D07A2884D10B46062141E0597868294E
:101780009DF839103AD1012262F3C6018DF8391063
:101790009A1C134613F8012B0293782A8DF83B20EC
:1017A00000F2C580572A4ED8412A04D0A2F1450341
:1017B000022B00F2BC809DF83A3002F0DF020421D7
:1017C000A2F1410861F30203D8F100029DF839103B
:1017D0008DF83A3042EB080262F3C7110A068DF821
:1017E0003910CBB200F1CB8003F07802182A40F018
:1017F0009B806FF3C6038DF8393082E00B460221DF
:1018000061F3C6038DF83930C3E759786C299DF828
:10181000391001D10422B7E70B460321F0E79DF808
:1018200039300521ECE70B460721E9E7BDF83830F0
:1018300023F4F04323F0020343F4804343F0020314
:10184000ADF83830A5E7A2F15803202B6FD801A1DD
:1018500051F823F0071900002F1900002F1900007C
:101860002F1900002F1900002F1900002F19000058
:101870002F1900002F190000B71700002F190000C2
:1018800007190000D9180000B7170000B7170000AB
:10189000B71700002F190000D91800002F190000F9
:1018A0002F1900002F1900002F1900003D1900000A
:1018B00007190000611900002F1900002F190000FE
:1018C000611900002F190000071900002F190000EE
:1018D0002F190000071900009DF83A30012161F32B
:1018E00002038DF83A309DF8393003F07803402B2D
:1018F00002BF9DF8381041F001018DF83810632ABD
:1019000005D0002306E09DF83A300221E7E7003BCE
:1019100018BF01239DF83820C2F340010B4363F345
:1019200041028DF83820B7E613F0380FE9D09DF862
:10193000383043F001038DF83830E2E79DF83A3053
:10194000032262F302038DF83A309DF8393003F038
:101950007803A3F1400CDCF1000343EB0C03D9E75F
:101960009DF83A30032262F302038DF83A309DF875
:10197000393013F0780F14BF01230023CAE7012385
:10198000C8E79DF93820002AB4BFDDF83CB04FF01D
:10199000FF3B93E699077FF5A0AEDDF840809DF808
:1019A00039100023CDE90F339DF83A3003F00702D8
:1019B000042A09D18A0707D49DF93920002AB4BF27
:1019C0004FF00D084FF0060803F00703012BC1F399
:1019D000C30137D1CB1E042B21D8DFE803F0030964
:1019E0000920200054F8043BDA17CDE90C3206E058
:1019F000073424F00704F4E80223CDE90C239DF812
:101A00003870BB0756D0029B2A465146484607F01D
:101A100009FD0028C0F294830644029DC6E554F8EF
:101A2000043B01294FEAE372CDE90C3205D19DF860
:101A300030300C9300230D93E1E70229DFD1BDF98B
:101A40003030D1E7022B23D1CB1E042B13D8DFE893
:101A500003F0030A0A12120022680C920023201DD0
:101A60000D930446CBE7E01D20F00700F0E80223C9
:101A7000CDE90C23F5E754F8043B0C9301294FF012
:101A800000030D93D3D00229B9D1BDF83030D0E78F
:101A9000042B09D1E31D23F0070303F10804D3E964
:101AA0000023CDE90C23AAE7032B04BF54F8043B21
:101AB0000C93A4E79DF83B20782AAED8572A00F271
:101AC0008C80252A00F0D480242AA6D9412A03D06C
:101AD000A2F14503022BA0D8DDE90C13002BC0F2C4
:101AE000B781380700F1B68117F0100718BF20271B
:101AF000C3F30A55C3F31303CDE90813002D40F0D7
:101B0000AB8151EA030014BF01200020DB0243EA4D
:101B10005153C902462A45EA010E43EAE57C08BF53
:101B200066225EEA0C0CCDE9081300F0038200285F
:101B300040F0CB81DDE908014FF0000C41F000419D
:101B4000A5F2FE35099163464FF0050E15F1020F1F
:101B5000C0F2C281BCF1000F01D0CDE90801002D17
:101B6000DDE9081000F3CD8109980899C5F1040C4E
:101B70001C3500FA05F5ACF1200E21FA0CF120FA23
:101B80000EFE294341EA0E0120FA0CF0CDE90810BF
:101B900002F0DF01472940F0D481DD1C02DB9845CB
:101BA00080F2CB81023AB8F1000FD2B201DD08F128
:101BB000FF389DF83810880600F1C381B8F1000F96
:101BC000D4BF00210121662A039140F0BC8113EBB0
:101BD000080540F1BA810025BAE1A2F15803202B93
:101BE0003FF61BAF01A050F823F000BFF31D00002B
:101BF0001B1A00001B1A00001B1A00001B1A000011
:101C00001B1A00001B1A00001B1A00001B1A000000
:101C1000D91A00001B1A00009D1C0000931D000033
:101C2000D91A0000D91A0000D91A00001B1A0000A6
:101C3000931D00001B1A00001B1A00001B1A000055
:101C40001B1A0000291E0000F31D0000F71D0000F4
:101C50001B1A00001B1A0000771C00001B1A000052
:101C6000F31D00001B1A00001B1A0000F31D0000EA
:101C700051461046A4E4B8F1000F0C9A09DB414626
:101C80001046039208F0DBFE039A0027151862B98C
:101C9000C3E610460392FEF7B5FFF5E70C9B8DF8FF
:101CA0004C3000270DF14D0513AAAB1A07B10133D3
:101CB0009DF83A00C10640F1378202330F99400681
:101CC0000B4444BF10995B18BBF1000F23DDABEB55
:101CD000030B9DF838305907C3F380081BD458060E
:101CE00040F13682002F00F036825146384603928A
:101CF000C8470028C0F22482039A474601364FF0B5
:101D000030085E445B46002BA6EB0B000BF1FF3B5B
:101D100000F30E82064647B1514638460392C84743
:101D20000028C0F20D82039A01369DF83A30590618
:101D300040F165829DF93930002BA6EB020680F256
:101D400019821746B846F31917F8010B702840F0AE
:101D50000582109F1E461F44BB1B002B00F34882C8
:101D60002B4642465146484607F05CFB0028C0F22D
:101D7000E781304406468344ABEB0603002B7FF734
:101D80004CAE51462020C8470028C0F2D981013608
:101D9000F2E73D072BD417F0100718BF2027DDE925
:101DA0000C23002B05DA524263EB4303CDE90C23ED
:101DB0002D270DF1650300930EAADDE90C0113AB8D
:101DC000FFF7A0FB0246B8F1000F0DF16505FFF625
:101DD0005EAF9DF83810AB1A6FF3861198458DF8F9
:101DE00038107FF654AFA8EB03030F934FE72B2770
:101DF000D5E70027DDE70C98002800F091810DF170
:101E0000650300930EAA13AB0021FFF77BFBBDF81F
:101E10003A3003F0EF0343F4F04343F0100302467B
:101E2000ADF83A300027CEE70C9B07293FF6F5AD19
:101E3000DFE801F00C04060C08080C0C1E70ECE541
:101E40001E80EAE5F217C3E90062E6E51E60E4E5FC
:101E50002D274DE62B274BE640F2FF70854231D10E
:101E60000132B948D2B20B43125C02F003021BD11B
:101E7000012A11D149238DF84C304E238DF84D3075
:101E800046238DF84E309DF838306FF386138DF869
:101E900038300DF14F0507E769238DF84C306E237C
:101EA0008DF84D306623ECE7012A07BF4E2341220F
:101EB0006E2361220CBF8DF84C308DF84C308DF8BC
:101EC0004D20DEE7002021E6013D49185B41002B53
:101ED000FADACDE908132DE6400840EAC170490856
:101EE000B1F1333FAC4605F10105F5D20EFB01F52A
:101EF000A0FB0E012944013B0CF102054FF0010C3F
:101F000024E6023140F10000CDE9081008A8CDE92F
:101F1000032307F058FA049B039ADDE90810013DFA
:101F2000013349184041002805F1FF35F9DACDE9C0
:101F3000081014E600231D4616E6A8EB03086622E7
:101F400037E600213FE608F10105102DA8BF102556
:101F50001021079100204FF00061CDE90A01DDE971
:101F60000A10A5B9089D4919099D40EB0505B5F171
:101F7000805F1BD2CDE90815662A40F09980002BBE
:101F800023DC30218DF84C100DF14D052FE0490870
:101F900041EAC0714008CDE90A100AA8CDE904233E
:101FA000013D07F010FADDE90423D8E7490841EACA
:101FB000C57108A86D08CDE90423CDE9081507F01F
:101FC00002FA059B049A0133D6E713AD079900295D
:101FD0000BDD07A908A8CDE9042307F00CFA059B3F
:101FE00005F8010B013B049AF0D10F9300239DF8F3
:101FF0003810890602D4B8F1000F1DDD2E2105F836
:10200000011B9BB1B8F1000F16DD59424145A8BF35
:1020100041469DF83A000F910029A8EB0108D4BF72
:102020000021012161F345108DF83A00B8F1000F4D
:1020300002DD0799002956DC0399002963D1CDF808
:10204000408002F0DF01452921D1002B2946B8BF8D
:102050005B4201F8022BB4BF2D222B22632B6A7046
:1020600009DD6420B3FBF0F202F1300CE91C85F8C5
:1020700002C000FB12330A200D46B3FBF0F200FB56
:10208000123302F1300C303305F802CB4B700F9B4A
:10209000002B43DC109B002BD4BF002301239DF8B1
:1020A0003A2063F3861200238DF83A202B70FBE56B
:1020B00007A908A8CDE9042307F09DF9DDE9042369
:1020C0009DF838108DF84C00302818BF03F1FF330D
:1020D000880602D4B8F1000F12DD2E218DF84D10C4
:1020E0000DF14E05A2E707A908A8CDE9042307F0E2
:1020F00082F908F1FF38DDE9042305F8010B95E7C3
:102100000DF14D0598E700211091284615F8011DA5
:102110003029FAD02E2918BF054692E70123BEE7E1
:102120000A4D07466A1FC0E5010748BF0133C5E5F0
:10213000514640460392C8470028039ABFF6E2ADD5
:102140001BB0BDE8F08F00BF1DB2000033B100002E
:102150004FF02008D5E54FF03008D2E55146C8478A
:102160000028BFF6EFADEBE751460392C8470028C1
:10217000039AE5DB1078374BC35C5B07174606EB29
:10218000020802F10102EFD49DF83A300F9E990641
:1021900007D4B044002EA8EB060206F1FF360FDC90
:1021A000904638782E2808D15146C8470028C7DB0A
:1021B000002E08F1010809DC0137A8EB07060EE044
:1021C00051463020C8470028E4DAB9E751463020AC
:1021D000C847013EEAE75146C8470028B0DB1D4A20
:1021E000B846F31917F8010B125C5207F3D4B0E5A7
:1021F00051463020C8470028A2DB0136ACE5D8069E
:1022000001D4190707D5514630200392C84700284A
:1022100096DB039A01369DF83A30DB0608D59DF827
:102220003B0003925146C847002889DB039A0136D8
:102230000F9F3744BB1B002B01DC2B4692E5514618
:1022400030200392C8470028FFF67AAF039A013680
:10225000F0E700BF1EB200000C4BF0B45F6A0C4EFA
:102260000C4BB34203D36FF08500F0BC70475D6840
:10227000BD4209D31C693CB195F802C00579AC4553
:1022800002D12346F0BC18472433EAE77C2D002016
:1022900064030020400300202DE9F047134CDFF8D1
:1022A0005080DFF8509005460E461746444503D34C
:1022B0006FF08500BDE8F0876268D9F824309A4253
:1022C00012D3A36983B190782979884205D13A461F
:1022D00031462846BDE8F04718475279012A03D114
:1022E0003A463146284698472434DFE74003002029
:1022F000640300207C2D00202DE9F0410B4CDFF819
:10230000308005460E461746444502D36FF08500DF
:1023100009E063690BB92434F6E73A4631462846AA
:1023200098470028F7D1BDE8F08100BF40030020A6
:102330006403002007B583788DF800300379427973
:1023400043EA0223ADF80230C378684603F0030382
:102350008DF8043002F0AAF810F1780F04D018B10B
:10236000002003B05DF804FB9DF8000002F024F9A2
:1023700010F1780F01D00028F2D1024B012083F830
:10238000B900EEE77C2D0020034B0022C3F8BB20F0
:10239000C3F8BF20704700BF7C2D002070B50B4BE9
:1023A0000B4CA34201D3002070BD196A1E7F00228E
:1023B0000439D5B2AE4201D82433F2E7013211F824
:1023C00032508542F5D10120EEE700BF40030020E6
:1023D00064030020094808B50378C3F341130A33A6
:1023E00050F823303BB100F1080200F1100198478A
:1023F000C043C00F08BD1846FCE700BF7C2D00207D
:1024000004282DE9F047DFF8888004460E460ED1F7
:10241000FFF7BAFFDFF87C9099F8B9305BB100F0B4
:10242000B3FD042C01D0012C05D11B4D16E005286D
:10243000F0D00128EED0184D45451ED3154B1B6A30
:102440001BB331462046BDE8F0471847D5F820A019
:1024500000272A7FFBB29A4203D824354545F5D39D
:1024600007E00AEBC3030137187902F0CFF8002820
:10247000EFDA002389F8B930DDE7EB681BB13246AB
:102480002146284698472435D6E7BDE8F08700BFA7
:10249000640300207C2D00204003002073B5C4B2EB
:1024A00063060D468DF8074007D02046FFF776FFFC
:1024B00088B10F4B93F8BA0068B10D4E204665B154
:1024C00002F016F8F3690BB9012004E008200DF1C1
:1024D00007019847284602B070BD02F031F8F36951
:1024E000002BF1D00DF1070109209847ECE700BF60
:1024F0007C2D00202DE9F047A84EB36905460F4614
:10250000904663B9287800F01F00012800F0A680EB
:10251000022800F00E8138B16FF0150095E0984761
:102520000028EFD1002090E095F900206B78002A78
:1025300031DA062BD8F8002010D0082B25D0002B3C
:10254000EAD101215370117096F8C310002918BF09
:10255000022343F00103137002231AE06B881A0A66
:10256000111F0129D8D9072AD6D8D9B2736A1C7885
:10257000002CD1D05D78954203D1814200F01281C8
:1025800001302344F3E71B7812E196F8BA30137058
:1025900001233B6059E0013B082BBDD801A252F852
:1025A00023F000BF3D260000192500004F26000043
:1025B00019250000C9250000192500001925000073
:1025C00019250000D5250000A87801F05DFF00283E
:1025D000A8D0A1E76C8844B14FF0FF08776A0020CB
:1025E000C1463C786CB9002896D0FFF7CDFE6B88C9
:1025F00086F8BA30F369002B94D0694903209847D4
:1026000090E77B78042B0CD0052B0DD0022B05D145
:1026100097F805806A88424508BF01203B781F442F
:10262000DFE797F80390F9E76B884345F6D1B9F1F6
:10263000000FF3D13846FFF77DFEEFE76B88012BE3
:102640007FF46AAF002086F8C300BDE8F0876B888E
:10265000012B7FF461AF86F8C33063E796F8BA3098
:10266000002B3FF459AF746AB5F804C028792346AB
:102670001A78002A3FF450AF5978022904D193F810
:1026800004E0864500F296801344F1E71070507024
:102690003960DAE70C449BE00B287FF43DAF00275C
:1026A0004FF0FF0AD046B94606E06378042B0FD0FE
:1026B000052B22D023781C442378002BF5D1F36915
:1026C00013B1494607209847002F7FF42BAF23E72B
:1026D00094F802A0AA8894F8038092455346E9D161
:1026E000698888451FFA88F2E4D1072B1ED8334445
:1026F000A14683F8BB200127DCE7AB885345D9D13D
:10270000AB7843450DD0A778384600F01FFC38461B
:1027100001F07CFF10F1780FEDD0B0FA80F77F095F
:10272000C8E72046FFF706FE0746C3E7A146002795
:10273000C0E795F900206B78002A19DA002B7FF4A6
:10274000EBAE2C7963060AD02046FFF727FE00285F
:102750003FF4E2AE96F8BA30002B3FF4DDAED8F885
:1027600000502046294601F00BFF00206870F3E678
:10277000012B08D0032B7FF4CFAE6B88002B7FF4A6
:10278000CBAE012103E0698800297FF4C5AEA8889B
:10279000FFF784FE00287FF4C5AEBDE67C2D002047
:1027A000362E0020022AC8F800307FF4ECAE5B8899
:1027B0003B60B7E695F900306878002BBFF66CAF48
:1027C000D8F8002000283FF461AF0A287FF4A4AEB7
:1027D000217800293FF4A0AE6378042B7FF45AAF30
:1027E000A3789C457FF456AF072B96BF9B19002317
:1027F00093F8BB3013700123DAE700BF13B5134C15
:10280000237DCBB9E268A168019201AB802006F07C
:1028100005FF019AA3681344A360E3689B1AE36071
:1028200043B93AB12369E2889A4203DD9B0601D19C
:102830000123237502B010BD00231A4619468020DB
:10284000237502B0BDE8104001F006BF7C2D0020CA
:1028500030B585B0002302460D46019300285FD1B4
:1028600000293CD108220B460DEB020107F06BF862
:10287000002804DA802001F03BFE05B030BD2D4C6D
:102880009DF809309DF808206370BDF80A30638018
:10289000BDF80C302270A38004F13801BDF80E3071
:1028A000E3801206C4E90355A16025750AD4802B84
:1028B00004D9802001F01CFE0020DCE713B1C4E93C
:1028C0000333DAE7FFF786FD0028D3D0E2882369D7
:1028D0009A42D4BFE260E360FFF790FFCDE7154C6A
:1028E000D4E90215002D01AB04DC07F02CF8002818
:1028F000C3DABFE72A4607F026F80028D9DB01999A
:10290000A268E3680A445B1AA260E360002BB4D1BA
:1029100004F13803A360FFF75DFD0028DCD1A9E7CF
:102920008028AAD1034BDA68002AD5D11B7D002B61
:10293000D2D1A2E77C2D0020054B064A9A62064AB6
:10294000DA62064A1A63064A58629A6100207047A2
:102950007C2D0020F524000059220000F9220000FF
:1029600099220000084B10B593F8B84034B900F034
:10297000A3F930B1FFF7E0FF204610BD6FF07700FC
:10298000FBE74FF0FF30F8E77C2D00202DE9F34105
:102990000446354D35484FF0FF324FF0FF3305F018
:1029A00053F995F8B860002E5BD131482C62E8618C
:1029B00001F068FF01F02AFD041E36DB00F00CFB7D
:1029C000041E32DB40236846ADF802308DF8046007
:1029D0008DF8006001F06AFD041E26DB8027684642
:1029E0008DF8007001F062FD041E1EDB21493046A7
:1029F00001F034FF041E18DB1E49384601F02EFF9B
:102A0000041E12DB1C4CDFF87480444514D30020F4
:102A100001F0D2FD041E08DB802001F0CDFD041E74
:102A200003DB012385F8B8300024104805F084F951
:102A3000204602B0BDE8F081276A0026227FF3B26B
:102A40009A4201D82434E0E707EBC30257F8331069
:102A5000107901F003FF01360028EFD04FF0FF346A
:102A6000E3E76FF07704E0E77C2D002054020020BC
:102A700001240000512800004003002064030020CE
:102A800030B51F4B8BB005AA03F1100518685968C3
:102A9000144603C40833AB422246F7D11B78237097
:102AA0001022002101A807F0C2FF122200211548C0
:102AB00007F0BDFF102101A807F050F800281BDD2A
:102AC0000828B8BF0820083801AB0E4A1844002176
:102AD00010F8013B0AAC04EB131403F00F03283386
:102AE0006B44013114F8144C13F8143C1470082989
:102AF000537002F10202EBD102480BB030BD00BFAF
:102B000034B10000B23B00202DE9F04F044685B0FF
:102B100000254FF0011BA9462E46AA46207820B971
:102B2000614B02349C421FD0F2E76378052B05D835
:102B3000DFE803F0780403780720A24623781C44DA
:102B4000ECE7E378002BF9D1A37883B109F101090F
:102B50005FFA89F9F2E77268944200F09D802436AA
:102B60009E42F8D34FF0FF3005B0BDE8F08F4F4ED6
:102B70004F4BF5E7002EF5D000230121327F934221
:102B8000F0D2326AA77802EBC3021079874201D0F3
:102B90000133F3E70127E07894F805C000F0030063
:102BA0008DF80C00207940EA0C20ADF80A0094F969
:102BB000020000285FFA87F828DA07F1100001FA0E
:102BC00000F010EA0B0F29D168F07F008DF80800A3
:102BD00002A8CDE9003206F09EFEDDE900320121B7
:102BE000E0B99DF80830A37013F0800F1CBF08F106
:102BF00010085FFA88F813710B4615BF01FA08F840
:102C0000BB404BEA080B4BEA030B97E701FA07F0CE
:102C100010EA0B0F02D18DF80880D9E70137102F89
:102C2000B9D1B5E7032D1DD1FFF72AFF074668B1DB
:102C3000FDF7E8FF804648B11E48FDF7E3FF8045F9
:102C400004D142463946A01C07F0D0FE23786FF02D
:102C50000201E218091B04EB5303D14213D50135DD
:102C6000EDB26BE7002DF1D1BAF1000F3FF47AAF6E
:102C7000A4EB0A038AF80230C3F307238AF803306F
:102C80008AF80490EBE74FF0000002F8010C13F80B
:102C9000010902F8020DE0E7B368002B3FF456AFDC
:102CA00049462046984751E73D0300204003002055
:102CB0006403002034B1000008B50448FFF724FF86
:102CC0000028024818BF002008BD00BF780200207D
:102CD00010B5094B00211A461C78844204D15C6867
:102CE00014B102EB811010BD0131042903F140033E
:102CF000F2D10020F7E700BF402E00202DE9F3417C
:102D000050F8283C10F82C6C1033044610D103699D
:102D100050F8202C99073CD502BB13F0040304D1D2
:102D20001A461946304606F079FC002344F8283C40
:102D300054F8283C10330ED054F8185C5DB154F8A8
:102D40001C7C54F8148C07F0B2FB00284CD02E48A1
:102D5000214607F06BFC02B0BDE8F08150F8241C5E
:102D600001AB304606F05AFC10B16FF01503DDE7F9
:102D7000019A54F8243C134444F8243C54F8203C71
:102D80009B1A44F8203C54F81C3C134444F81C3C67
:102D9000CEE750F8241C01AB304601F0D5FC0028EA
:102DA000E3D1019D54F8243C2B4444F8243C54F8CE
:102DB000203C5B1B44F8203C54F81C3C2B4444F85A
:102DC0001C3C002DB1D0304601F062FDB5FBF0F3A4
:102DD00003FB1055002DA8D154F8203C002BA4D0A3
:102DE000304601F0F9FCA3E744F8180CA4F11000F8
:102DF00005F018F854F8283C8C33ACD042463946DC
:102E00003046A847A7E700BF680300204B1E012BF0
:102E100073B506460D460FD8FFF75AFF044668B94A
:102E2000012D09D101AB01220DF10301304601F062
:102E30008BFC019B002BF5D102B070BD07F037FB76
:102E400004F12C0108B1012D05D1084602B0BDE8FE
:102E50007040FFF753BF034802B0BDE8704007F071
:102E6000E5BB00BF680300202DE9F74F064601913E
:102E70001546984606F01AFC044600285CD14FF02F
:102E80002003EFF3118A83F31288BFF36F8FDFF80B
:102E9000B0B0A70100220023584604F0E3FF68B950
:102EA000DFF8A09009EB0704636813F1100F14D149
:102EB0000193584604F0B6FF019B06E00134042C50
:102EC0000BF1400BE5D16FF00B038AF31188BFF3D0
:102ED0006F8F184603B0BDE8F08F019B2061C4E9F5
:102EE00002350C9B63610D9BA3616FF00F03C4F867
:102EF0003C806360304609F8076001F0C9FC58B1B6
:102F0000304601F0C5FCB5FBF0F202FB10551DB1D7
:102F1000E36B43F00403E36318F0020F07D02C3790
:102F2000094809EB070107F081FB0023CDE7304694
:102F300001F052FC0346C8E76FF00F03C9E700BF7A
:102F40005C2E0020402E00206803002010B54FF0BA
:102F50002003EFF3118483F31288BFF36F8FFFF721
:102F6000B7FE50B14368103307D16FF08B03436055
:102F700000F12C01034807F059FB84F31188BFF3DB
:102F80006F8F10BD680300202DE9F041104CDFF871
:102F9000448004256FF08B074FF02003EFF3118678
:102FA00083F31288BFF36F8F6368103305D104F188
:102FB0002C014046676007F039FB86F31188BFF3A8
:102FC0006F8F013D04F14004E6D1BDE8F08100BF00
:102FD000402E00206803002070B50A4C0A4E0025E0
:102FE0003146204607F019FB0122A4F110001146DA
:102FF000013507F0F4FA042D04F14004F0D100206B
:1030000070BD00BF6C2E0020FD2C000008B50146ED
:10301000034806F035FB10B1012300F8033C08BD5E
:10302000402F00200169012381F82B300B6833B158
:1030300091F829301BB10248083107F0F7BA704700
:10304000680300200169012381F82A300B6833B13D
:1030500091F828301BB10248083107F0E7BA7047F1
:103060006803002038B5056995F87E0070B195F8C1
:103070007F3063B985F82830286F06F046FA05F1ED
:1030800018010446034807F0D1FA204638BD002055
:10309000FCE700BF6803002073B5144602F12C065C
:1030A0000A1E054610DDE06E314606F02EFA0123B9
:1030B00084F8293023683BB194F82B3023B10848B9
:1030C00004F1080107F0B2FA064B009301940123C2
:1030D000402231462846FFF7C7FE02B070BD00BF50
:1030E000680300209930000013B504698DF80710BB
:1030F00094F87E308BB194F87F3073B90DF10701ED
:10310000206F84F82830012206F0FFF9014630B123
:103110000A4804F1180107F089FA02B010BD206FC7
:10312000012206F05AFA0028F7D0206F01220DF193
:10313000070106F0EAF90028EAD1EEE7680300206B
:10314000012382F82830136810B514463BB192F879
:103150002A3023B1084802F1080107F067FA206F0E
:1031600006F079F930B904F118010348BDE81040C0
:1031700007F05CBA10BD00BF680300207FB5836E06
:103180005B681B6A1E7D0546304606F08FFAD0B993
:10319000A86D4FF4806203A906F0D6F9044690B1F9
:1031A0008306A5F1180308BF00F1FF340193074B14
:1031B00003990093224602233046FFF755FEA86D7F
:1031C000214606F0ECF904B070BD00BF41310000AB
:1031D00070B504460E4601791548154606F042FAC8
:1031E00010B394F900206378002A16DB202B04D05A
:1031F000222B0ED06FF085000AE02B681A6840F889
:103200000C2C9A8820F8082C9B7900F8063C0020AA
:1032100070BD638800F8053CF9E7212BEAD10C3832
:10322000072328603360F2E76FF01200F0E700BF79
:10323000402F00200B4A03460021A0F87E10018594
:103240001068586790889279A3F8780083F87A20FC
:1032500083F87C1083F87B10402203F12C0007F0E8
:10326000E6BB00BF70AD000038B50D4601462448EE
:1032700006F0ECF9044680B30246691E52F8803924
:103280005B68052929D8DFE801F0202803202529DB
:1032900014F8021C31B91B6A187BFFF7FDFE0123ED
:1032A00004F8023C14F8583CBBB9012304F8583C1C
:1032B00054F8803C8BB114F8563C73B1A4F17801FA
:1032C0001048BDE8384007F0B1B9BDE838401046B5
:1032D000FFF7B0BF012304F8013C38BD14F8011C0E
:1032E0000029FAD014F8020C002104F8011C00286F
:1032F000F3D01B6A187BBDE83840FFF7CDBE00BF96
:10330000402F00206803002010B504690023C4F892
:1033100084300C4BC4F88000596804F1840269B908
:10332000C3E9002204F10800074907F076F904F127
:103330001800064907F071F9002010BD0A605A60B4
:10334000F0E700BF402F0020D79600007D3100003D
:1033500030B585B0A12305698DF80430202342687B
:103360008DF80530002385F87D300220ADF80A0085
:10337000106AADF80C10ADF808300079ADF80630E1
:103380000A2201A906F04AF9054C95F87D3023B9C7
:10339000012007F08FFA013CF7D105B030BD00BF26
:1033A000A186010037B5094D0949002400944FF06A
:1033B000FF334FF48062284604F062FE0549284638
:1033C00007F07BF8204603B030BD00BF6803002043
:1033D000103C00204FB100002DE9F84305464FF0A6
:1033E0002003EFF3118683F31288BFF36F8F0E4B28
:1033F0001C689CB10D4FDFF838804FF00C09D4E900
:103400000132002D08BF13462BB198F8142009FB98
:1034100002F2B85C98472468002CF0D186F311883A
:10342000BFF36F8FBDE8F883482F0020502F002096
:10343000703B00204209012300F01F0003FA00F056
:10344000074BBFF35B8FC04303EB820353E8002FAE
:10345000024043E800210029F8D1BFF35B8F704799
:103460005C2F002030B51D4B1C7DBFF35B8F04F03B
:103470001F0301229A401A4B610985B0D04303EB28
:10348000810353E8001F01EA000543E8005CBCF13A
:10349000000FF6D1BFF35B8F114217D0114D0C22F4
:1034A00002FB045207CA01AB83E807000E4A7AB157
:1034B00093E8070006F0F8F90020FFF78DFF0C23D2
:1034C0005C432A1900232B51C2E9013305B030BDFA
:1034D00082F31188BFF36F8FEEE700BF703B0020CF
:1034E000602F0020502F0020A99800002DE9F04304
:1034F000354B364A1C7DBFF35B8F63094FEA830966
:1035000052F82330324DBFF35B8F04F01F0843FAAB
:1035100008F313F0010F85B007460AD10146204693
:1035200000F076F828B107C80C2303FB045383E8A6
:1035300007000C236343EA18EE5C36B92046FFF718
:1035400079FF304605B0BDE8F0837B1C0FD0D2F880
:1035500008C02048204A4FF4004600210023ECFB1D
:103560000601FDF7C3F90121381A07F085F904F0C7
:1035700017FE0120FFF730FFBFF35B8F012303FA33
:1035800008F8164B994459E8003F43EA080349E814
:103590000032002AF7D1BFF35B8F0C2303FB0455E5
:1035A00095E8070001AB83E807000D4A1AB193E8DC
:1035B000070006F066F9FFF755FF2046FFF73AFFD0
:1035C00004F0BCFF0120BDE7703B00205C2F002011
:1035D000502F00203F420F0040420F00602F00207C
:1035E00083980000054BBFF35B8F53F82000BFF3B7
:1035F0005B8FB0FA80F04009704700BF642F002055
:1036000008B9024B0B600020704700BFDCAD000022
:103610002DE9F04F85B00E4603A9FFF7F1FFDFF863
:1036200074A0DFF87480441E24B24FF400474FF0BA
:103630000009631C04D10025284605B0BDE8F08FC1
:10364000039A04EB440302EB830512F82300FFF70F
:10365000C9FFE0B168684FF0000BD4465946E0FB63
:1036600007C142464B466046FDF740F90190A86805
:10367000D4465946E0FB07C142464B466046FDF73B
:1036800035F9721CD8D0019B1844B042D4D9013C02
:1036900024B2CEE73F420F0040420F000149102202
:1036A0000A60704710ED00E072B6404080F3118868
:1036B000BFF36F8FBFF34F8F30BF62B6BFF36F8F13
:1036C000704700BF72B6494081F3118820BF80F374
:1036D000118862B6704700BF43B2002B08DB01229D
:1036E00000F01F0002FA00F05B09024A42F82300D2
:1036F000704700BF00E100E043B2002B0DDB012268
:103700005B0900F01F0002FA00F02033034A42F880
:103710002300BFF34F8FBFF36F8F704700E100E0CE
:10372000054B420900F01F0053F82220012303FA41
:1037300000F01040704700BF00E100E043B2002BF2
:10374000A8BF03F1604301F10101B8BF064B4FEA86
:103750004111ACBF03F5614300F00F00C9B2B4BF23
:10376000195483F80013704714ED00E030BFFFF7E1
:10377000FDBF00BF0F4A08B50F4B22F07F029A60D1
:10378000BFF34F8FBFF36F8FD3F8882022F47002FE
:10379000C3F88820EFF3148323F0040383F3148821
:1037A000BFF36F8F04F0AEF805F00CF800F09AF953
:1037B00004F0B2F80000000000ED00E0094A0A49F8
:1037C000936809689967094958674B6843F08053C3
:1037D0004B60002383F31188BFF36F8F9368986F5A
:1037E000704700BF703B0020D8AF000000ED00E044
:1037F0000F498A684FF030001044EFF3098C80E8DD
:10380000F01F202080F31288BFF36F8F094F4FF015
:103810000066CA698A603E60506F0023536780F378
:10382000118802F1300090E8F01F8CF3098870478E
:10383000703B002004ED00E01EF0040F0CBFEFF31E
:103840000880EFF30980816911F8021C0229FFD07A
:1038500001B506F002F801BD42F8203C009B42F899
:103860001C3C0A49019B42F8183C029B42F8143C5C
:1038700021F001014FF0807342F8043C42F8081C2B
:103880000023203A02654367704700BF279000007D
:10389000074B9860104681F30988002163B681F3D5
:1038A0001188BFF36F8F0022002305F0BCFB00BF1F
:1038B000703B002001B572B60B4A906900281EBF0C
:1038C0000021916106F0FEFD62B6EFF30580A0F1E4
:1038D00010004FEAC0000549014409C99847BDE8F6
:1038E0000140034908470000703B0020BCAB0000CA
:1038F000F5380000044B9968D869884203D0034921
:103900004FF080520A607047703B002004ED00E0E9
:103910000D4B9A6A9A6A9A6A920508D59A6B9A6AC6
:10392000120404D518B19A6A22F400429A62064B36
:103930009A6A9A6AD20558BF9A6A9A6A002042F433
:103940007F429A620870704700ED00E00E4B9A6A61
:103950009A6A9A6A920708D55A6B9A6A120604D52F
:1039600018B19A6A22F080029A62074B9A6A9A6AA0
:103970009A6AD20658BF9A6A9A6A002042F0FF02F9
:103980009A620870704700BF00ED00E0F0B54B4B45
:103990005B688BB00C46C3F30803002585F31188E0
:1039A000BFF36F8F02F07F41B1F17F4F11D102F071
:1039B0000C0108290DD0160701D404460125002268
:1039C000033B8DF80720032B70D8DFE803F0045A7F
:1039D0005E622C46F3E7394AD36A13F0020365D1DD
:1039E000D16A002914DBD16A490011D5A16931F8E7
:1039F000020C4DF60271884209D092F8281031B3BA
:103A00000DF107010120FFF7A1FF034600E0236845
:103A10009DF80720CAB902AE04F12007206861684A
:103A2000324603C20834BC421646F7D1099A002D2B
:103A30003ED0C2F3080121B96FEA52226FEA422256
:103A4000099202A9184605F006FF0BB0F0BD92F8E6
:103A5000291029B10DF107010120FFF759FFD4E723
:103A6000518D89B20029D3D0916A916A916A916A85
:103A7000916A916A916A6FEA01416FEA114191621C
:103A8000C6E70DF107010020BDE70DF10701002099
:103A9000E3E70A4B9A6A9A6A9A6A9A6A9A6A9A6AEF
:103AA0009A6A6FEA02426FEA12429A620023AFE713
:103AB00022F4FF7222F00102C2E700BF00ED00E035
:103AC000024A536943F010035361704700ED00E070
:103AD000EFF30880EFF3098101B57246FFF756FF57
:103AE00001BD00BF044800232021C2180133302B40
:103AF00082F80013F9D1704700E100E006F0ACFF56
:103B0000202080F3118808484FF40061401880F3AA
:103B10000988EFF314800221084380F31488BFF36F
:103B20006F8FFFF727FE000050490020064B9B686F
:103B3000834207D1EFF3058323B1044A536843F06E
:103B40008053536004F0DABD703B002000ED00E0CC
:103B5000024B034A0348012100F05EB80000042034
:103B600000000020DCAD0000F0B51F4F00268E42A3
:103B700001DB1046F0BD44689CB353B104F1FF3C37
:103B800014EA0C0F18D11F2C16D905681CEA050F72
:103B900012D1202C0568D0F808C0D2B20FD9B4F1E8
:103BA000004F0ED8013CB4FA84F4C4F11F04640041
:103BB000072A4CEA040406D96FF01502D9E7082455
:103BC000F6E73E24F4E725F01F05154345F0100500
:103BD00044F00104C7F89820C7F89C500132C7F898
:103BE000A04001360C30C2E700ED00E0044B052296
:103BF000C3F89420BFF34F8FBFF36F8F704700BFA0
:103C000000ED00E0BFF35F8F024B0022C3F8942069
:103C1000704700BF00ED00E010B5034C012322788F
:103C2000FFF7A2FF207010BDC43B002014490868B4
:103C3000082810B521D8FFF7E5FF124C496800228B
:103C4000904201F10C0105D10F4B1870FFF7CEFF28
:103C5000002010BDC4F8982051F80C3C23F01F033D
:103C6000134343F01003C4F89C3051F8043C43F074
:103C70000103C4F8A0300132E2E74FF0FF30E8E77B
:103C8000E8AD000000ED00E0C43B0020014B1860EF
:103C9000704700BFE0000020F8B50A4F0D46461EF1
:103CA000C0F10104A3199D4201DC2846F8BD7378D8
:103CB0000A2B02D13B680D2098473B6816F8010F8C
:103CC0009847EFE7E000002008B51D210448FFF702
:103CD000E3FF404080F311884FF0030002DF00BF94
:103CE00058B100004FF02003EFF3118283F31288E4
:103CF000BFF36F8F06490123C1F840354FF0804173
:103D0000C1F8783582F31188BFF36F8F00207047B8
:103D100000E0014020B1034B800143F0010318474C
:103D2000704700BF80AD000038B50C4803F07CFD43
:103D3000054680B1094803F077FD044658B141F2C9
:103D400001621921284605F0BAFD41F6012202213F
:103D5000204605F0B4FD002038BD00BF85B100004D
:103D600000F07F03082B42B204D010F0780F01D08E
:103D700000207047002A00F00F0300F0080005DA69
:103D800058B9084800EB43104C30704738B9054823
:103D900000EB431000F5B6707047034870470348C6
:103DA000704700BF80350020CC360020EC37002063
:103DB0000146014806F008BC68020020014902489B
:103DC00006F034BCA83500200804002013B50B48C9
:103DD00002F08CFA00240A4802F0CEFA4FF0FF33CA
:103DE0004FF4806207490848009404F049F90749F4
:103DF000074806F012FC204602B010BD8FB100004B
:103E000008AE0000104000200804002029410000F6
:103E1000A835002002480022002303F0CFBF00BFD6
:103E20006802002010B5054CFFF7F4FF20B1011D1A
:103E3000204606F013FBF7E710BD00BF3802002054
:103E400007B500230E48002201A903F0FBFD90B145
:103E5000FFF7E8FF0A480022002301A903F0F2FD62
:103E600038B90198042340600374FFF7A1FFFFF7FE
:103E7000A5FF002001E00198406003B05DF804FB5D
:103E800038020020817870B506460846FFF768FFC3
:103E90000B06F578044612D5002D43D1FFF7D0FF6D
:103EA000034600283ED00122A57702740322027344
:103EB0009C60FFF77DFFBDE87040FFF77FBF4DB10D
:103EC000012D2FD1FFF7BCFF034658B3657705746A
:103ED0000573EDE7FFF7B4FF20B3B278124B12F091
:103EE000800F02F0080111D041B1D3F8A836E36089
:103EF00001230374022303738460DAE702F00F02E4
:103F0000142101FB0233D3F80836F0E711B1D3F8DE
:103F1000A837ECE702F00F02142101FB0233D3F8BB
:103F20000837E4E770BD00BF00700240022810B5FA
:103F300011D8094B1C5CFFF783FF60B100220274AB
:103F40000472FFF735FF054B93F824301BB1BDE831
:103F50001040FFF733BF10BD8CB10000803500204A
:103F600010B50F49BFF35B8F01F12003002253E826
:103F7000000F012803D143E80024002CF7D1BFF340
:103F80005B8F0BD1CC690C31204605F030F87830CE
:103F900004D12046BDE8104005F004B810BD00BFB4
:103FA00080350020F0B5064689B01422002103A810
:103FB00006F03DFD3378013B052B21D8DFE803F007
:103FC0007A0314146A1603238DF814300024FFF7C3
:103FD00037FF0346A0B1047400F10802DDE90501D2
:103FE00082E8030018461DE00423EDE7B178084697
:103FF000FFF7B6FE837A044623B1013B022B43D977
:1040000009B0F0BD0B06F57813D5002DF8D1FFF7F8
:1040100017FF03460028F3D00122A577027403227C
:1040200002739C60FFF7C4FE09B0BDE8F040FFF7E3
:10403000C5BE55B1012DE3D1FFF702FF03460028AD
:10404000DED0657705740573EBE7FFF7F9FE0746E9
:104050000028D5D00123037402230373846004F184
:104060000C01B07806F08DF9134AE168B2F88C3291
:104070008B4206D95B1AA2F88C3203F0C5F8384699
:10408000D0E7A2F88C52FAE7304609B0BDE8F0401C
:10409000FFF7F8BE01A803F095F89DF80530052B51
:1040A00004D19DF8043013F0600FA9D0034B0593A1
:1040B00001248CE702248AE780350020EC360020BA
:1040C00038B5002464F07F00C0B2FFF749FE013428
:1040D00005F00AFC082CF5D10F4D0024E0B2FFF7E3
:1040E0003FFE036903B90561013405F0FDFB082CAF
:1040F00005F14005F2D1094C04F5A67005F0F4FB7A
:10410000D4F87C3213B9064BC4F87C32054805F06C
:10411000EBFB002038BD00BF80330020803500203D
:10412000802F0020EC3700202DE9F043A74CDFF86A
:10413000A08285B00746FFF76DFE10B905B0BDE857
:10414000F08394F82530027C00F104093BB9002A81
:1041500000F084804946404606F080F9EBE7042AE7
:10416000F8D8DFE812F07B000500010117014101DA
:10417000037B8568032BEDD8DFE803F0023B585D35
:104180006E69944B002232607260D3F880143170F3
:10419000D3F884147170D3F88814D3F88C0441EAEE
:1041A00000217180D3F89014D3F8940441EA0021DF
:1041B000B180D3F89814D3F89C3441EA0323F380F8
:1041C0000823EB6030687168834B03C311462B688A
:1041D000687A984796F90030002B06DBF38823B104
:1041E000A4F88C3203F010F8B4E70023A4F88C3262
:1041F000B0E76B7F002BADD02B7F002BAAD0002621
:104200006E774FF0FF3275482E774FF0FF3305F091
:104210007EFB6B6901936B68CDE9023601A9687A70
:1042200002F000FE6D4805F074FB93E72B68012156
:10423000687A98478EE7AB7A6BB9EB7F5BB96748D2
:104240004FF0FF324FF0FF3305F061FB03F00CF845
:10425000624805F05EFB2B680221E9E7027A042A36
:104260003FF678AFDFE802F05B032569750002F0E6
:1042700089FD054600287FF46DAF02F0C7FCBFF34F
:104280005B8F5749012351E8002F002A03D141E8F1
:1042900000300028F7D1BFF35B8F7FF45BAF41F8AC
:1042A000105C41F8085CE0696361143904F031FE88
:1042B00050E7002565F07F00C0B2FFF751FD037A9B
:1042C00013B1407A03F0BCF90135082DF2D194F80E
:1042D00054311BB194F8550103F0B2F90025E8B24E
:1042E000FFF73EFD037A13B1407A03F0A9F90135D7
:1042F000082DF4D194F874321BB194F8750203F0D0
:104300009FF9012002F020FD012384F82530236865
:10431000002B3FF41FAF0021022098471AE7002529
:1043200084F8255003F018F9FFF71AFE2368002BD4
:104330003FF410AF29460420EFE7002B3FF40AAF0B
:1043400003F022F92368002B3FF404AF002105207D
:10435000E3E72268002A3FF4FDAE002B3FF4FAAEFB
:10436000002106209047F5E607F110054FF0FF33D6
:104370004FF0FF32284605F0CAFAFFF7A1FE2846A3
:1043800005F0C7FA57F8283C002B3FF4E3AE0021B4
:104390000120C2E794F874327BB1012584F8895278
:1043A00084F88852FFF74CFD38B10E4A0574057346
:1043B0008260FFF7FDFCFFF701FD57F8283C002B5A
:1043C0003FF4C8AE00210A20A7E700BF80350020D7
:1043D000380200200070024084350020B8350020EB
:1043E000A0350020EC37002005F032FE03F0B4F8D1
:1043F00002F002FCFFF716FDFFF762FE05F021FE5A
:10440000014802F0C9FCA5E6A53F000038B51A4DE9
:1044100095F824405CBB05F1380006F062F82046B0
:1044200000F03CFB2246E86101212720FFF786F9D6
:10443000124802F0B1FC124B98421AD105F001FE6D
:10444000FFF73EFE044610B9012385F824300D4BDA
:104450001B680BB1FFF7B2FC4FF08043D3F8383440
:10446000DB0702D50020FFF761FD204638BD0024A0
:10447000FBE76FF00404F8E780350020A53F00005B
:104480000000AD0B68020020074B93F824203AB1DE
:1044900093F82530002B0CBF6FF0120000207047FE
:1044A0006FF01200704700BF803500200F4B93F86B
:1044B000243010B50146B3B104782046FFF750FC14
:1044C00010B96FF0150010BD44720B7983724988E2
:1044D0004160230702D44B1E0B42F2D1204605F067
:1044E0004BFF0020EFE76FF01200ECE78035002073
:1044F000124B93F8242010B50146CAB193F8253029
:10450000B3B1FFF72DFC0446A8B1837A012B12D07A
:1045100007D9023B012B07D96369A3610020E06042
:1045200010BD02F0A9FEF7E7084602F01DFEF3E712
:104530006FF01200F4E76FF01500F1E7803500200E
:1045400038B50E4B93F82420054682B193F82530F8
:104550006BB1FFF705FC68B115F008040AD12846D5
:1045600002F024FE284603F0BDF8204638BD6FF067
:104570001200FBE76FF01500F8E700BF8035002060
:1045800038B50C4B93F8242005460C4662B193F8DD
:1045900025304BB1FFF7E4FB48B141B1284602F0AA
:1045A000EBFD2070002038BD6FF01200FBE76FF0CC
:1045B0001500F8E780350020F8B5134F97F8243040
:1045C0000446BBB1FFF7CCFB0546B0B1230705D4C9
:1045D000204602F0EBFD204603F084F82E7A7EB9E7
:1045E00097F8250001232B7218B1204603F028F814
:1045F0003046F8BD6FF01200FBE76FF01500F8E7EA
:104600006FF07700F5E700BF8035002038B5114B1B
:1046100093F8242001469AB193F8253083B1FFF72F
:104620009FFB054678B1037A83B10846002402F067
:10463000DBFF2846AC7705F057F92C72204638BDD1
:104640006FF01200FBE76FF01500F8E76FF07700EE
:10465000F5E700BF803500202DE9F043DFF8DC806E
:104660001C4698F8243085B0074689461646002B2C
:104670005DD098F82530002B59D003065AD5FFF7A6
:104680006FFB0546002855D0037A002B52D04FF01F
:10469000FF334FF0FF3208F1380005F038F9AB7FF7
:1046A0004BB108F1380005F034F96FF00A042046E8
:1046B00005B0BDE8F08316B9EB7F03B1EE77AB7AB6
:1046C000BBB95EB1B8F80A30B34207D96A68B6FB25
:1046D000F2F302FB13630BB90123EB7702F0D4FD75
:1046E000B84206D002F0C0FD154805F012F90024CA
:1046F000DDE70123AB774FF0000801A93846CDE98B
:104700000196CDF80C8002F08DFB0E4B984207D03D
:1047100085F81E800CB1C4F800806FF0040402E03C
:104720000CB126604446064805F0F3F8BFE76FF089
:104730001204BCE76FF01504B9E700BF8035002014
:10474000B83500200000AD0B2DE9F0411D46204B8F
:10475000174693F824200E46002A33D093F82530CC
:1047600083B3030631D401B97FBBFFF7F9FA0446DE
:1047700058B3037A4BB34FF0FF3316484FF0FF3274
:1047800005F0C5F8E3689F42B84628BF984646B989
:104790003FB905B12B600F4805F0BBF80020BDE81C
:1047A000F081A1694246304606F020F9A3694344EE
:1047B000A361E368A3EB0803E360002DEBD0C5F829
:1047C0000080E8E76FF01200E9E76FF01500E6E718
:1047D00080350020B835002070B51E4D95F8242096
:1047E000034682B395F825206AB31B062ED4FFF743
:1047F000B7FA044650B3037A43B34FF0FF334FF098
:10480000FF3205F1380005F082F8E368B3B90126FC
:1048100063692677A361637F83B1FFF711FB30B92A
:1048200005F1380005F075F86FF00B0070BD0674E7
:1048300084600673FFF7BCFAFFF7C0FA064805F07C
:1048400068F80020F2E76FF01200EFE76FF0150054
:10485000ECE700BF80350020B835002008B5084BD4
:1048600093F824302BB1FFF77BFA28B101600020C8
:1048700008BD6FF01200FBE76FF01500F8E700BF0E
:1048800080350020014B1860704700BF8035002044
:1048900008B5074B93F8243023B1FFF761FA20B134
:1048A000406808BD6FF01200FBE76FF01500F8E7F5
:1048B00080350020084B70B5C31A0D4607499B1080
:1048C000044659430648402205F068F82B46014645
:1048D0002046BDE87040184720380020B76DDBB691
:1048E000FCAA000073B50C4C0C4A4023041B009337
:1048F0000D460B460A49A41061430646094805F0D7
:1049000079F8011E05DA30462B4602B0BDE870404A
:10491000184702B070BD00BF20380020659A000023
:10492000B76DDBB6FCAA0000002270B50121044679
:104930001046FEF703FF0020FEF7CEFE0F4801F001
:10494000E7F80F4B984215D101F0F2F826690D49AE
:10495000304604F0CBFA00280BDB24690949012515
:10496000356404F11C0004F0C1FA002801DBE564A1
:10497000002070BD6FF00400FBE700BFBD490000E0
:104980000000AD0B34AE000001460C2309484B4338
:1049900070B5C418D4E90E5600224033A2631844FF
:1049A00004F0E9FF2DB132462B460348BDE87040C4
:1049B000184770BD20380020FCAA000010B1012863
:1049C00004D07047034B1B6C5B0701D1FFF7DCBFC2
:1049D000704700BF2038002008B54FF02003EFF3E8
:1049E000118183F31288BFF36F8F124A136843F06B
:1049F000020013F0010310600CD04FF08042D2F897
:104A00000C34D2F80C2413F0010303D00A4804F04C
:104A1000B2FF012381F31188BFF36F8F23B1BDE88B
:104A200008400020FFF7B0BFBDE80840012005F0B6
:104A30007ABA00BF70380020603800201FB500220D
:104A40000123CDE90223094ACDF800D06B46CDF809
:104A500004D005F000F8002805DB4FF48042002365
:104A6000684603F0FFF905B05DF804FB839A000087
:104A7000094BBFF35B8F53E8002F22F0020143E89C
:104A800000100028F7D1BFF35B8FD30702D40120B9
:104A900001F05CB8704700BF70380020024AC3B212
:104AA0001C2003FB00207047203800202DE9F04136
:104AB0003949BFF35B8F0746012251E8003F41E8C7
:104AC00000200028F9D1BFF35B8F33B93349344854
:104AD0004B60CB608A6004F01CFA7B1E012B2FD840
:104AE000012F07D14FF08043D3F81C3403F00303A8
:104AF000012B25D005F0DBFC044618B9294B1B78A7
:104B0000002B41D14FF02003EFF3118683F312887D
:104B1000BFF36F8F0124DFF890804FF08045D5F808
:104B20001834D5F81824D2030CD503F00303012B55
:104B300001D0012F06D10CB386F31188BFF36F8F1C
:104B4000BDE8F081ACB13046FEF7BCFDD5F81835B4
:104B5000002BE4D1D5F80421002AE0D0C5F80431B7
:104B6000D5F804310123C5F81835C8F88031AB6099
:104B7000D5E70021212003F091FDE7E74FF08043C6
:104B80000222C3F80423DBE74FF080430222C3F87C
:104B900008230646BFE700BF743800201038002005
:104BA0003C3800200B3C002000E100E008B5084B39
:104BB0000848186005F021FC38B10748FFF766F88F
:104BC0000548FCF797FB002008BD6FF01200FBE7DB
:104BD0007838002044AB0000DD4B00000A2838B5CF
:104BE000074D044604D1286883680D215B68984707
:104BF00028688368E1B25B689847204638BD00BFEB
:104C00007838002030B54068047B01F01F05B2F50C
:104C1000005F45EA441585B04FF0000404D12846F2
:104C200001F042FA002032E0B2F5804FCDE90244B3
:104C30002FD1B3F5003F0CBF042305238DF80830B6
:104C4000836823FA01F1C9072FD4B2F5A03F2CD114
:104C50006A09012A05F01F031C4A03F5E07318BF17
:104C60004FF0A04252F82330DB071ED40DF10704A9
:104C70002146284601F07CF9154B984214D1204674
:104C800001F0C4F9134B98420ED06FF00B0005B041
:104C900030BDB3F5C02F05D0B3F5003F0CBF0223E4
:104CA0000123CBE70323C9E703940023194602AA93
:104CB000284601F037F8074B984204D101212846D5
:104CC00001F0AAF9AEE76FF00400E0E7000300503E
:104CD0000400AD0B0000AD0B10B501F087F90446E0
:104CE00068B901F05BF9084B98420AD107482146A0
:104CF00001F038F9224605210620FEF71FFD0020AD
:104D000010BD6FF00400FBE70000AD0B114D00007B
:104D1000420970B5034602D0012A15D070BD0B4E72
:104D2000326951680029F9D003F01F0301250C688E
:104D30009D408A682A4002D04B6830469847002C34
:104D4000ECD021462468F4E7014EE9E714AB0000FB
:104D50002CAB00002DE9F04347683B7B01F01F05B9
:104D600085B00E4645EA43151446CAB902A928463D
:104D700001F0FEF80446284601F0BEF9484B98427F
:104D800004D06FF0040005B0BDE8F083844205D183
:104D90009DF8080001F034F9A042F2D10020F2E7BA
:104DA0004FF000090DF103013046CDE9029901F001
:104DB000DFF84B46804602AA4946284600F0B2FF7B
:104DC000374B984202D06FF01500DCE7804503D1E5
:104DD0009DF8030001F014F9A3054ED5314B324A7A
:104DE000234093423AD00CD8062B14D004D893B168
:104DF000022BE8D104230EE0B3F5801FE3D1012399
:104E000009E02A4A93422BD0B3F5A00F2AD0B3F57C
:104E1000800FD8D102238DF8043084F48073C3F35B
:104E20000023E0068DF8053054BFC4F3401303237C
:104E300021058DF8063017D57B68012101FA06F6A9
:104E4000C3F80865002201A9284601F019F8144B9F
:104E5000984214BF6FF01500002094E70723DAE7AB
:104E60000523D8E70323D6E7620541BF7B6801210C
:104E700001FA06F6C3F80C65E4E7E3064FF0000319
:104E800054BFC4F3401403241A4601A928468DF8E0
:104E9000044000F047FF024B98423FF47FAF92E797
:104EA0000000AD0B0600F0000600100002004000FC
:104EB00008B54368D3E9020102F032FC034B984283
:104EC00014BF6FF00F00002008BD00BF0000AD0B45
:104ED00010B50446002201210320FEF72FFC606874
:104EE0002369064A00F1080101F086FB044B984251
:104EF00014BF6FF00F00002010BD00BF054F000071
:104F00000000AD0B0378012B08D0022B08D04BB961
:104F1000054B0B6201F1100002F084BF034BF8E770
:104F2000034BF6E7034BF4E70000AD0B0100AE0BBB
:104F30000200AE0B0100AD0B10B5044600220121AA
:104F40000420FEF7FBFB60682369064A00F10801B4
:104F500001F052FB044B984214BF6FF00F00002089
:104F600010BD00BF054F00000000AD0B2DE9F04F54
:104F70000C4689B017469946456806694FF0FF32DE
:104F80004FF0FF33304602F06DFF06F1100A0022A9
:104F90000023504602F066FF284601F08BFBDFF845
:104FA000BCB04FF00008B84501D300242BE0237AB1
:104FB000019313F008014BD1142203A8009105F0CE
:104FC00036FD019B6068049003F00102206800999F
:104FD0008DF80C2013F0020F8DF80D9006901CD167
:104FE0007B1E434502D9237D5B0718D582BB202257
:104FF00003A9284601F08CFB584512D0184B984263
:1050000029D06FF00404284601F064FB304602F01A
:1050100009FF204609B0BDE8F08F0A46E8E74022C4
:10502000E6E74FF480420023504602F01BFF38B100
:10503000284601F04FFBD5E9020102F071FBE0E7E1
:10504000336A5B4504F10C04DBD108F10108AAE7DF
:105050006FF08504D7E76FF00F04D4E70000AD0BC5
:105060000B00AD0B036803F01F025B09012B02600C
:10507000024818BF4FF0A040704700BF0003005027
:10508000F0B54B79012B26D0032B21D110268B793B
:10509000032B1DD1CC790CB1012C19D10A7912B195
:1050A000022A15D10E220B684568B3F5164F2D68FC
:1050B00065D02DD8B3F5165F64D016D8B3F5966FCA
:1050C00062D00AD8B3F5967F61D0B3F5167F61D070
:1050D0006FF0850052E00026D9E7B3F5166F5CD07B
:1050E000B3F5965FF4D1374B3CE0B3F5E14F57D0C1
:1050F00007D8B3F5615F55D0B3F5964FE8D1324B81
:1051000030E047F61227BB42E2D14FF4000329E01A
:10511000B3F5613F48D013D8B3F5963F47D009D8CF
:105120004DF6C027BB4244D0B3F5614FD0D14FF408
:105130006B0317E0B3F5E13FCAD14FF0EB7311E019
:10514000B3F5612F38D008D8204FBB4237D0B3F524
:10515000E12FBDD14FF0E86304E01D4FBB42B7D152
:105160004FF080530069C5F82435031D03C934434B
:105170002243C5F86C2583E803000020F0BD4FF4FE
:105180001D03EFE7134BEDE74FF49E23EAE74FF4DF
:10519000A033E7E74FF41C33E4E74FF41D23E1E7C6
:1051A0000D4BDFE70D4BDDE74FF06C73DAE70C4B8F
:1051B000D8E74FF46503D5E74FF07063D2E74FF0BF
:1051C0008063CFE700B0130000A04E0090D0030032
:1051D00040420F000050270000C0750000F03A0068
:1051E00000903A01F8B5066905460F4605F05FF9EB
:1051F00010B9204B1B7883B94FF02003EFF31184D3
:1052000083F31288BFF36F8F686804F0B4FD28BB86
:1052100084F31188BFF36F8FEEE76424686804F0AD
:10522000AAFD70B9012004F07CFE013CF6D10021FA
:10523000212003F033FAF0E784F31188BFF36F8F76
:10524000F5E74FF02003EFF3118483F31288BFF3E7
:105250006F8F686804F08FFD0028EDD03146012281
:1052600001F8147F686804F06BFD84F31188BFF3C4
:105270006F8FF8BD0B3C00202DE9F341D0F804807E
:105280000669D8F800400023C4F80035306045684E
:10529000EB685A1C074613D001A80193FFF7E2FE02
:1052A000019A01239340C0F80835EB68019301A8E7
:1052B000FFF7D8FE019B03F5E073032240F823209B
:1052C0002869431C06D02B7F002B14BF032100212B
:1052D00004F028FD6B695A1C13D001A80193FFF755
:1052E000C1FE019A01239340C0F808356B69019310
:1052F00001A8FFF7B7FE019B03F5E073032240F816
:105300002320A869431C06D06B7F002B14BF032108
:10531000002104F007FDD5E903122B68C3F80C1532
:10532000C3F81425D5E905123846C3F80815C3F8A3
:105330001025311DFFF7A4FE0546002846D1D8F8F8
:105340000430990719D506F1160001F06FF8234BC8
:1053500098423FD1B07DC30003F1804303F5F83399
:1053600004F10C0204F59071C3F81015C3F814256C
:105370001B4A01238340C2F804350823C4F80035D2
:1053800098F808305BB9C4F81031D4F8103106F140
:105390001503C4F834350123C4F838352360D8F830
:1053A00004309A075CBF4FF48072C4F80423DB0614
:1053B00044BF4FF48003C4F8043314360023C4F808
:1053C0004465C4F848350123A360E360284602B071
:1053D000BDE8F0816FF00405F8E700BF0000AD0BF9
:1053E00000F0014010B501238340114ABFF35B8FE9
:1053F000DC4352E8001F01EA040C42E800CEBEF193
:10540000000FF6D1BFF35B8F4FF4803202FA00F049
:1054100002F1804202F58052C2F80803BFF35F8FA9
:10542000BFF36F8F0B4214BF0120002010BD00BFDF
:10543000983800201949F8B5044622F07F450868DD
:10544000C1E90023A5F50013101AB3F5400F22D2CD
:10545000134B1B681A0A1B065E19124B42F1000718
:10546000C3E90067012603F08BFAA30003F1804330
:1054700003F58833D3F84025AA420BD11EB94FF467
:105480000002C3F84025084B4FF4803000FA04F4C2
:10549000C3F84443F8BD0026E5E700BFC004002080
:1054A0009C380020A80400200010014019B3BFF36D
:1054B0005B8F0123104A834052E8001F194342E8E2
:1054C000001CBCF1000FF7D1BFF35B8F0B4A4FF408
:1054D00080338340C2F80433094BBFF35B8F1B68F2
:1054E000BFF35B8F23FA00F0C30742BF054B4FF4B5
:1054F0000032C3F8002170479838002000100140A6
:105500009438002000E100E00D4B1868010A000605
:10551000BFF35F8F0B4BD3F80435181841F100012E
:10552000B3F5801F0AD2084BD3E90023904271EBF8
:10553000030303D210F1807041F10001704700BFF6
:105540009C38002000100140A80400202DE9F04FF5
:1055500085B0164698460546FFF744FF0090FFF7D2
:10556000D3FFB04271EB080378D2464B301A68EB98
:105570000101984271F1000380F08180424B03EBFE
:105580000513D3E902ABD84508BF564551D04FEAC1
:10559000850909F1804905F1500709F58839BF00EF
:1055A0004FF4803101FA05F3BFB226F07F4207F1D4
:1055B00080470193D9F84005344B07F588371446E6
:1055C000D3F80415401A20F07F4021F07F4C0128C9
:1055D000C9F840C507D1CDE90221132005F06AF9C9
:1055E000DDE90221294B01F1020CA4EB0C0020F0B3
:1055F0007F40B0F5000F88BF6446002038603868EF
:105600000198C3F8440324F07F40C9F84005D3F85B
:105610000405814206D0201A023820F07F40B0F500
:10562000000F19D8A41A24F07F4414EB060A48F19D
:10563000000B15490E982B0101EB0512C2E902ABD4
:10564000C8500F9B5360002428460099FFF72EFF97
:10565000204605B0BDE8F08F2046B1E701230C4A93
:10566000BFF35B8FAB4052E8001F194342E80010C4
:105670000028F8D1BFF35B8FB246C346D9E76FF07D
:105680001504E1E701000001B00400200010014012
:105690009438002073B5194B194D00244FF0FF309A
:1056A0004FF0FF31C5F80845C3E902014FF48033DC
:1056B000C5F80433134B02264FF400320121C5F81C
:1056C00004631120C3F880212246FEF737F8112029
:1056D000FEF702F80C4A0123AB602B6013600B4B02
:1056E0000B4A0093019400232046FFF72FFF30461A
:1056F000FFF7DCF9204602B070BD00BFB004002007
:105700000010014000E100E098380020355400000E
:10571000FFFF7F002DE9F743354CD4F804339A0797
:105720000BD5D4F8043143B1324A0023C4F8043114
:10573000D4F804311368013313604FF02003EFF302
:10574000118283F31288BFF36F8FD4F80433DB0325
:1057500012D5BFF35B8F284B53E8001F21F00100E7
:1057600043E80006002EF7D1BFF35B8F002936D146
:10577000D4F84031002B32D1002382F31188BFF3DB
:105780006F8F4BB3FFF7C0FE4FF02003EFF3118C88
:1057900083F31288BFF36F8F184BD3E90267B042CF
:1057A00071EB07024FF0000220D34FF0FF384FF0AB
:1057B000FF39D3E90015C3E902891A604FF4803339
:1057C000C4F848338CF31188BFF36F8F21B1009573
:1057D00032463B460020884703B0BDE8F0830023F3
:1057E000C4F84031D4F840310123C6E71146E9E757
:1057F000001001409C38002094380020B0040020A4
:10580000431C13B521D0012821DDB0F5000F20DAAB
:10581000441EFFF779FE104BD3E90013401AB0F590
:10582000000F28BF0024013002190C48824228BF13
:10583000024652184FF0000009490190009143F1CF
:105840000003FFF783FE02B010BD0448E0E7002428
:10585000DFE7024CDDE700BFC0040020FFFF7F0050
:105860003554000008B5FFF74FFE024B1B68C01A05
:1058700008BD00BFC00400204FF08053D3F8302192
:10588000082A06D1D3F83431052B02D8024AD05C5D
:1058900070470020704700BFB6B10000024AD2F83E
:1058A0000034002BFBD0704700E0014010B504F03D
:1058B0002EFB40B14FF080430022C3F80C21C3F807
:1058C0001021C3F8382504F022FB002846D04FF001
:1058D0008052604BD2F80414C3F82015D2F8081493
:1058E000C3F82415D2F80C14C3F82815D2F81014F4
:1058F000C3F82C15D2F81414C3F83015D2F81814C4
:10590000C3F83415D2F81C14C3F84015D2F820148B
:10591000C3F84415D2F82414C3F84815D2F8281453
:10592000C3F84C15D2F82C14C3F85015D2F8301423
:10593000C3F85415D2F83414C3F86015D2F83814EB
:10594000C3F86415D2F83C14C3F86815D2F84014B3
:10595000C3F86C15D2F84424C3F87025FFF78CFF08
:1059600018B13D4B3D4AC3F88C26FFF785FF18B1AF
:105970003B4BFB22C3F81825FFF77EFF70B14FF0B9
:1059800080414FF08053D1F8E42ED3F8583222F002
:105990000F0203F00F031343C1F8E43EFFF76CFF5F
:1059A00020B1304B4FF40072C3F8402604F0AFFA38
:1059B00048B14FF08043D3F80024D20744BF6FF0C2
:1059C0000102C3F800244FF08053D3F83021082A95
:1059D0000ED1D3F83431052B02D8234AD35C3BB126
:1059E0004FF01023D3F808224FF08043C3F8582516
:1059F0004FF01023D3F80022002A03DBD3F804323F
:105A0000002B22DA194901234FF01020C1F8043588
:105A10001224FFF743FFC0F80042FFF73FFFC0F832
:105A20000442FFF73BFF0023C1F80435FFF736FFC0
:105A3000BFF34F8F0E490F4BCA6802F4E062134365
:105A4000CB60BFF34F8F00BFFDE70B4B0B4A1A60D3
:105A500010BD00BF00C0004000500040488103005E
:105A600000F0004000900240B0B1000000E00140B2
:105A700000ED00E00400FA058C0100200090D00346
:105A800070B501250268B2FA82F3C3F11F035E1CF0
:105A9000DCB214D0BFF35B8F05FA03F322EA0303F1
:105AA00050E8006F964204D140E8003CBCF1000F82
:105AB000F6D1BFF35B8FE5D102480C7070BD024890
:105AC000FCE700BF0000AD0B0200AD0B0368CB404C
:105AD000DB0710B515D4012303FA01F10368BFF306
