:100000000887002011620000FD060200E561000083
:10001000E5610000E5610000E5610000000000000E
:10002000000000000000000000000000595F000018
:10003000E561000000000000115F0000E5610000C4
:10004000D55F00005D660100D55F0000D55F000050
:10005000D55F0000D55F0000D55F0000D55F0000D0
:10006000D55F0000D55F0000D55F0000D55F0000C0
:10007000D55F0000D55F0000D55F0000D55F0000B0
:10008000D55F0000D55F0000D55F0000D55F0000A0
:10009000D55F0000D55F0000D55F0000D55F000090
:1000A000D55F0000D55F0000D55F0000D55F000080
:1000B000D55F0000D55F0000D55F0000D55F000070
:1000C000D55F0000D55F0000D55F0000D55F000060
:1000D000D55F0000D55F0000D55F0000D55F000050
:1000E000D55F0000D55F0000D55F0000D55F000040
:1000F000D55F0000D55F0000D55F0000D55F000030
:1001000081F0004102E000BF83F0004330B54FEAC8
:1001100041044FEA430594EA050F08BF90EA020F35
:100120001FBF54EA000C55EA020C7FEA645C7FEAC8
:10013000655C00F0E2804FEA5454D4EB5555B8BFEB
:100140006D420CDD2C4480EA020281EA030382EA5C
:10015000000083EA010180EA020281EA0303362DEE
:1001600088BF30BD11F0004F4FEA01314FF4801CC1
:100170004CEA113102D0404261EB410113F0004FD3
:100180004FEA03334CEA133302D0524263EB43038A
:1001900094EA050F00F0A780A4F10104D5F1200E28
:1001A0000DDB02FA0EFC22FA05F2801841F1000183
:1001B00003FA0EF2801843FA05F359410EE0A5F157
:1001C00020050EF1200E012A03FA0EFC28BF4CF088
:1001D000020C43FA05F3C01851EBE37101F000453E
:1001E00007D54FF0000EDCF1000C7EEB00006EEB4B
:1001F0000101B1F5801F1BD3B1F5001F0CD34908D5
:100200005FEA30004FEA3C0C04F101044FEA44522B
:1002100012F5800F80F09A80BCF1004F08BF5FEAB2
:10022000500C50F1000041EB045141EA050130BD92
:100230005FEA4C0C404141EB0101013C28BFB1F5A4
:10024000801FE9D291F0000F04BF01460020B1FAEF
:1002500081F308BF2033A3F10B03B3F120020CDAC2
:100260000C3208DD02F1140CC2F10C0201FA0CF0A0
:1002700021FA02F10CE002F11402D8BFC2F1200C05
:1002800001FA02F120FA0CFCDCBF41EA0C019040BB
:10029000E41AA2BF01EB0451294330BD6FEA040404
:1002A0001F3C1CDA0C340EDC04F11404C4F12002EF
:1002B00020FA04F001FA02F340EA030021FA04F301
:1002C00045EA030130BDC4F10C04C4F1200220FA58
:1002D00002F001FA04F340EA0300294630BD21FA96
:1002E00004F0294630BD94F0000F83F4801306BF5C
:1002F00081F480110134013D4EE77FEA645C18BF50
:100300007FEA655C29D094EA050F08BF90EA020FE6
:1003100005D054EA000C04BF1946104630BD91EADE
:10032000030F1EBF0021002030BD5FEA545C05D1E1
:100330004000494128BF41F0004130BD14F5800420
:100340003CBF01F5801130BD01F0004545F0FE4194
:1003500041F470014FF0000030BD7FEA645C1ABFC9
:10036000194610467FEA655C1CBF0B46024650EA00
:10037000013406BF52EA033591EA030F41F400212C
:1003800030BD00BF90F0000F04BF0021704730B5B2
:100390004FF4806404F132044FF000054FF0000187
:1003A00050E700BF90F0000F04BF0021704730B548
:1003B0004FF4806404F1320410F0004548BF40421D
:1003C0004FF000013EE700BF42004FEAE2014FEA72
:1003D00031014FEA02701FBF12F07F4393F07F4F4D
:1003E00081F06051704732F07F4208BF704793F050
:1003F0007F4F04BF41F40021704730B54FF4607463
:1004000001F0004521F000411CE700BF50EA010265
:1004100008BF704730B54FF000050AE050EA01020E
:1004200008BF704730B511F0004502D5404261EB7E
:1004300041014FF4806404F132045FEA915C3FF4BF
:10044000D8AE4FF003025FEADC0C18BF03325FEA5C
:10045000DC0C18BF033202EBDC02C2F1200300FA0D
:1004600003FC20FA02F001FA03FE40EA0E0021FA32
:1004700002F11444BDE600BF70B54FF0FF0C4CF420
:10048000E06C1CEA11541DBF1CEA135594EA0C0FD2
:1004900095EA0C0F00F0DEF82C4481EA030621EA0D
:1004A0004C5123EA4C5350EA013518BF52EA033548
:1004B00041F4801143F4801338D0A0FB02CE4FF0FA
:1004C0000005E1FB02E506F00042E0FB03E54FF02A
:1004D0000006E1FB03569CF0000F18BF4EF0010E22
:1004E000A4F1FF04B6F5007F64F5407404D25FEA1E
:1004F0004E0E6D4146EB060642EAC62141EA5551D1
:100500004FEAC52040EA5E504FEACE2EB4F1FD0C12
:1005100088BFBCF5E06F1ED8BEF1004F08BF5FEA90
:10052000500E50F1000041EB045170BD06F0004642
:1005300046EA010140EA020081EA0301B4EB5C04EF
:10054000C2BFD4EB0C0541EA045170BD41F48011E7
:100550004FF0000E013C00F3AB8014F1360FDEBF0C
:10056000002001F0004170BDC4F10004203C35DAE8
:100570000C341BDC04F11404C4F1200500FA05F36B
:1005800020FA04F001FA05F240EA020001F000420C
:1005900021F0004110EBD37021FA04F642EB060182
:1005A0005EEA430E08BF20EAD37070BDC4F10C04AC
:1005B000C4F1200500FA04F320FA05F001FA04F270
:1005C00040EA020001F0004110EBD37041F100015C
:1005D0005EEA430E08BF20EAD37070BDC4F1200567
:1005E00000FA05F24EEA020E20FA04F301FA05F2CF
:1005F00043EA020321FA04F001F0004121FA04F277
:1006000020EA020000EBD3705EEA430E08BF20EA46
:10061000D37070BD94F0000F0FD101F00046400080
:1006200041EB010111F4801F08BF013CF7D041EA02
:10063000060195F0000F18BF704703F00046520006
:1006400043EB030313F4801F08BF013DF7D043EAD7
:100650000603704794EA0C0F0CEA135518BF95EA8D
:100660000C0F0CD050EA410618BF52EA4306D1D114
:1006700081EA030101F000414FF0000070BD50EA33
:10068000410606BF1046194652EA430619D094EABD
:100690000C0F02D150EA013613D195EA0C0F05D1A7
:1006A00052EA03361CBF104619460AD181EA0301FB
:1006B00001F0004141F0FE4141F470014FF00000B3
:1006C00070BD41F0FE4141F4780170BD70B54FF04E
:1006D000FF0C4CF4E06C1CEA11541DBF1CEA1355CE
:1006E00094EA0C0F95EA0C0F00F0A7F8A4EB0504B0
:1006F00081EA030E52EA03354FEA013100F08880A7
:100700004FEA03334FF0805545EA131343EA12636F
:100710004FEA022245EA111545EA10654FEA002624
:100720000EF000419D4208BF964244F1FD0404F5DD
:10073000407402D25B084FEA3202B61A65EB030539
:100740005B084FEA32024FF480104FF4002CB6EBF6
:10075000020E75EB030E22BFB61A754640EA0C0076
:100760005B084FEA3202B6EB020E75EB030E22BFB6
:10077000B61A754640EA5C005B084FEA3202B6EBF7
:10078000020E75EB030E22BFB61A754640EA9C00B6
:100790005B084FEA3202B6EB020E75EB030E22BF86
:1007A000B61A754640EADC0055EA060E18D04FEA44
:1007B000051545EA16754FEA06164FEAC30343EAE4
:1007C00052734FEAC2025FEA1C1CC0D111F4801FB1
:1007D0000BD141EA00014FF000004FF0004CB6E7AA
:1007E00011F4801F04BF01430020B4F1FD0C88BF49
:1007F000BCF5E06F3FF6AFAEB5EB030C04BFB6EB54
:10080000020C5FEA500C50F1000041EB045170BD46
:100810000EF0004E4EEA113114EB5C04C2BFD4EB73
:100820000C0541EA045170BD41F480114FF0000EF7
:10083000013C90E645EA060E8DE60CEA135594EA73
:100840000C0F08BF95EA0C0F3FF43BAF94EA0C0F76
:100850000AD150EA01347FF434AF95EA0C0F7FF4EB
:1008600025AF104619462CE795EA0C0F06D152EA3F
:1008700003353FF4FDAE1046194622E750EA410623
:1008800018BF52EA43067FF4C5AE50EA41047FF434
:100890000DAF52EA43057FF4EBAE12E74FEA410297
:1008A00012F5001215D211D56FF47873B3EB6252C2
:1008B00012D94FEAC12343F0004343EA505311F0E9
:1008C000004F23FA02F018BF404270474FF000007B
:1008D000704750EA013005D111F0004008BF6FF0B9
:1008E000004070474FF00000704700BF53B94AB94D
:1008F000002908BF00281CBF4FF0FF314FF0FF3028
:1009000000F074B9ADF1080C6DE904CE00F006F802
:10091000DDF804E0DDE9022304B070472DE9F0477B
:10092000089E0D4604468846002B4DD18A429446C7
:1009300068D9B2FA82F252B101FA02F3C2F120018F
:1009400020FA01F10CFA02FC41EA030894404FEA54
:100950001C45210CB8FBF5FE1FFA8CF705FB1E8326
:1009600041EA03430EFB07F199420BD91CEB030349
:100970000EF1FF3080F01E81994240F21B81AEF1F2
:10098000020E63445B1AA4B2B3FBF5F005FB10330F
:1009900044EA034400FB07F7A7420AD91CEB04040E
:1009A00000F1FF3380F00881A74240F205816444E2
:1009B0000238E41B40EA0E4000211EB1D44000235F
:1009C000C6E90043BDE8F0878B4208D9002E00F04D
:1009D000EE800021C6E900050846BDE8F087B3FABD
:1009E00083F100294AD1AB4202D3824200F2F9805E
:1009F000841A65EB030301209846002EE2D0C6E975
:100A00000048DFE702B9FFDEB2FA82F2002A40F0C6
:100A10009180A1EB0C054FEA1C471FFA8CFE0121C7
:100A2000B5FBF7F307FB1350250C45EA00450EFB19
:100A300003F0A84208D91CEB050503F1FF3802D2E8
:100A4000A84200F2CB8043462D1AA4B2B5FBF7F0C2
:100A500007FB105544EA05440EFB00FEA64508D9E5
:100A60001CEB040400F1FF3502D2A64500F2BB8066
:100A70002846A4EB0E0440EA03409EE7C1F120079C
:100A80008B4022FA07FC4CEA030C20FA07F405FA23
:100A900001F31C43FD404FEA1C4900FA01F3B5FB8A
:100AA000F9F8200C1FFA8CFE09FB185540EA0545A1
:100AB00008FB0EF0A84202FA01F20BD91CEB050567
:100AC00008F1FF3A80F08880A84240F28580A8F1C2
:100AD000020865442D1AA4B2B5FBF9F009FB1055C4
:100AE00044EA054500FB0EFEAE4508D91CEB0505A2
:100AF00000F1FF346CD2AE456AD90238654440EA51
:100B00000840A0FB0294A5EB0E05A542C846A646E8
:100B100056D353D05EB1B3EB080265EB0E0505FA70
:100B200007F722FA01F3CD401F43C6E90075002103
:100B3000BDE8F087C2F1200320FA03F10CFA02FCB1
:100B400025FA03F395400D434FEA1C471FFA8CFE2C
:100B5000B3FBF7F107FB11302B0C43EA004301FB19
:100B60000EF0984204FA02F408D91CEB030301F1D9
:100B7000FF382FD298422DD9023963441B1AADB2E7
:100B8000B3FBF7F007FB103345EA034500FB0EF318
:100B9000AB4208D91CEB050500F1FF3816D2AB4279
:100BA00014D902386544ED1A40EA014138E731466C
:100BB000304607E78646E5E61846FAE64B45A9D2F1
:100BC000B9EB020864EB0C0E0138A3E74046EAE7F4
:100BD000204694E74146D1E7D0467BE7023B654497
:100BE00032E7084609E76444023842E7704700BF2D
:100BF0002DE9F04FBDB090460022059306460D4604
:100C00001346AA4241DBB3FBF5F3974C0022204682
:100C1000AA423FDB944A0021136852F8040F0344B0
:100C20005068034490681B1848BF033301319B1080
:100C3000B1F5F87F42F8043CEED18C498A4F8C46DE
:100C4000002240F2EF1E3B4678681B680132C31A4F
:100C500072454CF8043B07F10407F4D1834A0020A5
:100C6000136852F8047F3B44013003EBD3735B10ED
:100C7000B0F5F77F42F8043CF2D17C480027DFF85A
:100C8000F0E184460623002212E056F822100132D9
:100C90000B44B6E756F82210C91A40F8041B01327B
:100CA000B6E75CF804ABD1463EF802AB09FB1A226A
:100CB000013BF6D140F27A4C013792FBFCF240F84E
:100CC000042B40F2E9129742D9D11A4640F2EF17AD
:100CD00051F8040B01330028B8BF4042BB42024424
:100CE000F6D108210520B2FBF3F2CDE90110009204
:100CF00009A95E4A2DA81EF0E6FC099901294FF0CA
:100D0000000338DD2DAA01271046D2F804C0006880
:100D10000137ACEB0000B94202F104020344F3D105
:100D20004A1E93FBF2F341F2707292FBF3F3479A7F
:100D300013600123489A0FAF13700DF1B40C3846BD
:100D4000002399421BDC4B4B47489C4600228646B9
:100D5000AA421BDB002216460DF1780AB1421FDCC5
:100D6000012A3CDC059A444B13600023469A137019
:100D70003DB0BDE8F08F47983F4A0260DAE75CF883
:100D8000042B023240F8042B0133DAE756F82290A4
:100D900040F8049B58F822904CF8049B0132D7E7A6
:100DA00057F8040B851FB5F5F27F0BD2451F4FF0A6
:100DB000807805304FF0010C854205D1BCF1000F61
:100DC00000D101320136C9E75EF82590C145BEBFAA
:100DD0004AF82650C8464FF0000C0135ECE70025D4
:100DE000216854F8040F014460680844A168411860
:100DF00048BF0331891044F8041C196853F8040FE4
:100E00000144586801449868091848BF0331013506
:100E10008910B5F5F87F43F8041CE1D10023CDE932
:100E20000A33CDE90C331EAC0E93214651F8040B66
:100E3000B0F5FA7F96DC01339A42F7D10021531EB8
:100E4000094D0C4E07938E46D4F804C054F8040B99
:100E5000ACEB0008B8F10A0F0EF1010E54DD4FF0B3
:100E60007F470346B94617E0E02000202019002004
:100E700004620200B028002019FCFFFF55F823206F
:100E8000BA42C8BF174656F82320C8BF06934A4542
:100E9000C4BF9B46914601339C45EFDC55F82020AA
:100EA00055F82C30DDF818A09B1AAAEB000A0AFBB3
:100EB00003F393FBF8F3134455F82B20D21A09FBE4
:100EC00002F24FEAE219B9F1000F1DDD04291BDC23
:100ED00056F8203056F82C20ABEB0000D21A5043C5
:100EE00090FBF8F0184456F82B301B1A5F43FF11A3
:100EF0000AD03CAB03EB810C642303FB07F2013106
:100F000092FBF9F24CF8C82C079B9E459CDB0AA883
:100F10001EF06FFB4A1003294FEA82033ADD3CA919
:100F2000F03301EB82026B4452F8CC4C53F8C83CCE
:100F30001C4404EBD4746410E31EB42B3FF612AFD0
:100F40006FF02C0004FB04F3434342F2107093FB58
:100F5000F0F0FFF727FA064620460F46FFF722FA81
:100F60000FA3D3E90023FFF787FA114B0022FFF705
:100F7000ADFB02460B4630463946FFF7C7F80AA3D9
:100F8000D3E90023FFF7C2F8FFF788FC059B186040
:100F90000123EBE6F0336B4453F8C84CCCE700BFB9
:100FA000B4C876BE9F5A3E40AE47E17A14B6574069
:100FB00000005940000000002DE9F041D0E90B3558
:100FC000866A5C193034A6428846174618D81C4DEC
:100FD000A3FB050118A3D3E90023FFF787FCA41B9B
:100FE00020F07F40C8F8000013A3D3E90023A4FB3E
:100FF0000501FFF77BFC20F07F403860BDE8F08101
:101000000F4C0DA3D3E90023A6FB0401FFF76EFCF0
:1010100005F1300120F07F40C8F8000006A3D3E9B5
:101020000023A1FB0401FFF761FC20F07F40386042
:10103000BDE8F081AFF300808D49FD1A0700000084
:1010400000CA9A3B000000002DE9F04F8FB0002845
:1010500000F03C81AC4C94F86A6016F0010640F058
:101060003A8194F82500FF2300F0030084F826302D
:1010700014F08EFE94F86A0041072DD494F82920CC
:1010800094F8353004EB820204EB8303D2F82C8011
:10109000D3F83890B8F1000F11D09B4841460EF0BC
:1010A00061FA98F800305A0605D5062109F0CCFA05
:1010B000002800F0D381944849460EF053FA98F87E
:1010C000003013F00E0F40F0EE80236A9BB10C2627
:1010D00030460FB0BDE8F08F324604F16B01C0F32B
:1010E000C00014F0E7FFFF2884F82600C6D0304681
:1010F00014F094FEC2E70DF0E5F88246002800F0F7
:10110000B7810DF0EBF88346002800F0B6810FF0B0
:10111000D9FA0546002800F0AD81406F4FF6FF7305
:101120002B8505F11C03002800F09E8105F1680263
:1011300005F164010B9309F093FAB5F86020734B45
:1011400022F4EF6222F0070242F4887242F00102B8
:10115000A5F8602095F8392002F03F0262F07F0286
:1011600085F8392095F87A2022F0070285F87A2050
:1011700095F83C2022F0070285F83C2095F8D8200D
:1011800022F0070285F8D8204FF01B120027C5E98E
:1011900016230622A5F8C020C5E912776F67A5F8C7
:1011A0007870EF852F6385F83B702F65A5F8C470C4
:1011B000A5F8C870A5F8D070A5F8CC70A5F8E470B3
:1011C00085F8E670C5F80871A5F80C71A5F82071CE
:1011D0000CF036FB95F83A21A5F8387122F003029D
:1011E00085F83A2195F87A20A5F8407122F0180286
:1011F00085F87A2095F8662185F8437122F0070278
:1012000085F8662195F88621C5F844A167F3451253
:1012100085F8862195F8AE21A5F8647167F3C302BD
:10122000C5E94A0100210020C5E94C0185F8AE213D
:1012300085F8D970A5F88471C5F8E070A5F8AC718F
:10124000A5F8B8710FF086FDA5F8D2000FF088FD63
:10125000D5F8BC112E4AA5F8D4000A40C5F8BC2127
:101260000FF084FD95F8C02160F3020285F8C021DB
:101270000FF082FD0B9B236295F8C031C5F8C47155
:1012800060F3C503C4E918ABC5E97477C5E97277A3
:10129000C5E905772F70ED6185F8C03115F03CFF89
:1012A000002840F0DD8094F824300121C3F342038C
:1012B0000DF133008DF8333009F052FB50BB236A37
:1012C000002B3FF404AF0DF00FFE00E70E4B93F838
:1012D0006A20D40704D4002630460FB0BDE8F08F52
:1012E0001A6A5AB192F8201041F0020182F82010D7
:1012F0001B6A93F82030D8073FF5E9AE0FB0BDE880
:10130000F04F0DF033BE00BF444C002048014801AF
:101310000000FFF699F80110024640460DF0D6FE97
:101320005B49B4F8689000253123A360C4E90555F2
:1013300055A3D3E90023A0FB010125706560E5609A
:10134000FFF7D4FA20610AF015FD0746B9F1000F46
:1013500008D198F8005005F00F05A5F10105B5FA80
:1013600085F56D0994F8240065F3000010F001057F
:1013700084F8240032D02369464ADFF81C91049394
:10138000002002250DF13408019305920321CDE9D7
:10139000020006943B460090CDF82080CDF81C90CA
:1013A0002A460D950AF0BCFB41460DF01BF80028BB
:1013B00085D13A4A05924AF2D8320092CDE903002B
:1013C000CDE90100CDF81C90CDF8208006943B4675
:1013D000012203210D950AF0A3FB2AE00694029551
:1013E00023692F4A2F48049303F247131360A9FB84
:1013F0000001912303FB0911274B0793254B05930C
:101400004FF6FF7309924FF0020903930DF1340870
:101410001DA3D3E90023CDF83490CDF82080FFF749
:1014200065FA3B46CDE900504A46284603210AF0BA
:1014300021FB41460CF0D6FF00287FF440AF94F822
:101440006A3043F0010384F86A300EF06FFA002826
:101450007FF441AF012014F07DFC39E6122637E617
:101460000DF042FD032633E605F16C0068675DE68A
:1014700007262DE658460CF037FF50460CF028FFA3
:10148000072625E6AFF300808D49FD1A070000000E
:1014900000CA9A3B45F100000DD9000071EC000034
:1014A000B84C0020002AE78470B590F824308AB048
:1014B000C3F342030D46044601210DF123001646F5
:1014C0008DF8233009F04CFA7178024628460DF069
:1014D000FDFD1D491AA3D3E90023A0FB0101FFF77D
:1014E00005FA23699842054620D21B1A0022019270
:1014F000164A0293164BA21AA3FB0232022192094A
:1015000000230A4409AE099112490591CDE903333C
:101510000321D2B20696009318460AF073FB3146B7
:101520000CF060FF48B925610AB070BD02D9C21A3B
:101530000023DCE700200AB070BD0C200AB070BDAB
:101540008D49FD1A0700000000CA9A3B444C002058
:1015500009CB3D8D0DD9000038B5194C9DF810E030
:1015600094F844C01CF0010522D163F3420C400101
:1015700094F83230A1874FEACE0E0EF0180E00F02C
:10158000200040EA0E0023F0380303430D4884F89E
:101590003230A2FB0001912303FB021106A3D3E921
:1015A000002384F844C0FFF7A1F92064284638BD21
:1015B0000C25284638BD00BF8D49FD1A07000000E4
:1015C000DC4C0020002AE78410B59DF808C00446D2
:1015D00049014FEACC0000F0180001F0200CA17D79
:1015E00022844CEA000C0C4821F038014CEA010C32
:1015F0009122A3FB000102FB031184F816C004A38F
:10160000D3E90023FFF772F9606210BDAFF30080E9
:101610008D49FD1A07000000002AE7840000000041
:101620002DE9F047044600F1350190F8440094F8A4
:101630003230C0F3400060F386138CB084F832304F
:101640000AF0D0FB94F83220A38F4D48E46102F0F9
:1016500079020025A3FB000184F83220912202FBCD
:101660000311C4E9055544A3D3E900232570FFF70E
:101670003DF93123C4E90153236CE5600933A0F13E
:101680003102934232BF23612261256406460AF08B
:1016900071FB236A07460DF12C08002B4CD0394D05
:1016A000394BCDF820800694651BA3FB05353448E3
:1016B000A38F4FF0000AA3FB00019122CDF80CA0EC
:1016C00002FB031123690493304B0793304B0593BE
:1016D0004FF0020928A3D3E90023CDF82C90FFF79F
:1016E00005F9104619464FF47A720023FFF7FEF809
:1016F0002D090435EDB22A46CDE901603B460321B0
:10170000CDF800A050460AF00BFA41460CF06AFEF4
:10171000054668B994F8443043F0010384F8443036
:101720000DF0F6FE0446F8B128460CB0BDE8F0878F
:101730000C200CB0BDE8F087CDE90A33216943469F
:101740000AAA032001F09CF90B990029A7D011489F
:1017500009A3D3E90023A1FB0001FFF7C7F80A9F03
:1017600020F07F4007449AE7484614F0F3FA2046F9
:101770000CB0BDE8F08700BF8D49FD1A07000000DE
:10178000002AE784DC4C0020398EE3380DD90000B4
:1017900025F7000000CA9A3B2DE9F04FC38D458E16
:1017A0001D4490F80E31ADB22944164613F00702DD
:1017B0008BB0044689B20AD0531E042B00F2788302
:1017C000DFE813F0C6013702A0014F013A02B0F87A
:1017D000E870C91B1FFA81F8090400F16D8190F9C6
:1017E0003930002BC0F26C8294F8E43084F8E53094
:1017F00094F8842194F8853194F80C1184F80D1133
:1018000093420AD094F8863103F00F03062B04D1DB
:10181000002384F88521A4F8C830BF4BD4F8089180
:101820001A68944204BF00221A60B9F1000F00F058
:101830005981D9F80000002800F05481628DB4F875
:1018400010314168C4F808119342B4F8122100F035
:101850003F82B4F81411B4F828C0A9F81E30182338
:1018600089F804300023A9F806C0A9F82020A9F8B7
:10187000221089F81C3049460CF03CFD0CF044FD68
:10188000A368002B09DAE168626823F00043914203
:101890002CBF7618B618A360F61A608DB4F81091B4
:1018A00010FB08F080B2B0FBF9F119FB01F39BB219
:1018B00098421FFA81FA80F004811B1A40F2E2413B
:1018C000964803FB01F1A1FB000191A3D3E900239A
:1018D000FFF70CF820F07F400644E38D1F4494F995
:1018E00039307D1B554440F2E24B002BE5850BFB64
:1018F00009F7C0F21082D4F81811884884A3D3E9FC
:101900000023A1FB0001FEF7F1FF20F07F483D46D8
:1019100008F10108824AB4F81431B4F8120181497F
:10192000A4F82A903A44B2FBF7F2A4F8C62042F297
:10193000107202FB03733944013BB1FBF7F1B3FBB7
:10194000F7F78AB2831D9A42A085A4F8C270A4F862
:10195000CE2004DDC0F57F43FA331A4492B294F8E6
:101960000E31A4F8CA201B0744BF0023A4F8C430DA
:101970000221012018F018F90022022181460120DD
:1019800008F0BEFE68494FF4F072204608F048FEA9
:1019900000F1050A5FFA8AFA644B0094524601216D
:1019A00000200AF047F930F002030CD0604A614988
:1019B000614840F6CB431DF0E2FE404080F31188C1
:1019C0004FF0030002DF554FA5FB077B50A3D3E97F
:1019D000002338465946FEF789FF20F07F455748D7
:1019E0000723A5FB0001381A03FB05116BEB01016E
:1019F0004FF47A720023FEF779FFCDE90150089485
:101A00000694CDF80080216994F939504C4804912E
:101A10004C494D4C079411EA250138BF0146059108
:101A20004FF6FE71334603915246012100200AF021
:101A300077F830F002030CD03D4A3E493E4840F66C
:101A4000E5431DF09CFE404080F311884FF00300F9
:101A500002DFB9F1000F40F0588100200BB0BDE863
:101A6000F08F828D90F80E51D0F8EC300632114490
:101A7000D0F8C42189B26FF30205A0F8E8101981EB
:101A8000A3F1090084F80E5122B194F866118E0773
:101A900040F18F81D4F8C811002900F0A381D4F857
:101AA000CC21116843F8091C106053F8092CC4F8C4
:101AB000CC01002A00F093816FF076000BB0BDE8F6
:101AC000F08F09FB110140F2E243144889B203FB95
:101AD00001F1A1FB00010EA3D3E90023FEF706FFED
:101AE000361AFAE6124A194913484FF442631DF0B8
:101AF00046FE404080F311884FF0030002DFD9F822
:101B000000009BE66FF00F000BB0BDE8F08F00BF48
:101B10008D49FD1A07000000384D002000CA9A3B8D
:101B2000FF5962027FC3C901A014002029FE0000F2
:101B30006056020040570200505102008D49FD1AC4
:101B4000D94B0100E9490100D1FD00002C570200EA
:101B5000DFF8248301200CF0DDFB0746002800F0AD
:101B60005281C64808F026FD0546002800F04B814A
:101B7000C34B1A68002A00F01A810CF0E9FB3B689D
:101B8000D4F808215A602B79C4F8087143F0030394
:101B90002B710C236B710023EB7194F81C312B72A9
:101BA000B84AD4F81831A2FB03239B0AA5F80930E0
:101BB000B4F81031A5F80B30B4F81231A5F80D3097
:101BC000B4F81431A5F80F3094F80E31C4F8F06071
:101BD000032262F3020384F80E31A368002B0ADAB1
:101BE000E168626823F0004391422CBF7618B61872
:101BF000F31AC4F8F030A44B01220935C4F8EC50B4
:101C000002211046C3E9024808F0ACFD00283FF469
:101C100053AF9E4A9E499F4840F673331DF0AFFD77
:101C2000404080F311884FF0030002DF6FF0760030
:101C300014E7DFF864828DE7D0F8EC20D0F8C431E7
:101C400090F8E40084F8E50094F80C018C4984F8DD
:101C50000D0194F8840184F8850100200860A2F148
:101C60000901C3B194F86601800714D494F8BF0148
:101C7000C70710D4D4F8D001834200F0E080D4F834
:101C8000C80168B9187900F00300032800F0E88063
:101C9000C4F8C83106E0D4F8C801002800F0AC80D0
:101CA000D4F8CC31186842F8090C196052F8093C94
:101CB000C4F8CC11002B00F0A9806FF08B00CDE6AA
:101CC00090F8D930002B3FF48FAD80F8D9208FE504
:101CD000A18D9142B4F814117FF4BDAD40F2E24CF5
:101CE0000CFB03FE42F2107C0CFB01EC0CF1FF3C00
:101CF000BCFBFEFCB4F8C2E01FFA8CFCE6457FF4A6
:101D0000AAAD012389F80430B5E50122022110466D
:101D100008F0F6FCA1E6226CA36C02FB1833A36466
:101D200015F04EFA054694F8D800DFF87081C0F33C
:101D3000C20015F047FA054407FB05F5584B94F827
:101D40001C2105F5742505F23F25A3FB0535AD0CD7
:101D5000A36C25640BFB02F205FB0AF022657A08EE
:101D60000344963A934228BF1346C4E91123002343
:101D7000A0FB0801C4F8E0303DA3D3E90023FEF73F
:101D8000B5FD404B361AD4F81801A3FB0030800A89
:101D90000BFB00F0A0FB080135A3D3E90023FEF7FD
:101DA000A5FD7D1BB4F8109120F07F48B2E51C60C2
:101DB000E3E694F8BF11CD073FF56CAED4F8D0112F
:101DC0008A4228D0D4F8C81100297FF468AE11796E
:101DD00001F00301032965D0C4F8C82161E6C4F805
:101DE000D40169E643F8092CC4E97100C4F8CC01B8
:101DF000002A7FF461AEF2E742F8093CC4E97111B0
:101E0000C4F8CC1156E76FF0680027E6C4F8D41187
:101E10006FF08B0022E61168C4F8D011D4F8C81115
:101E200000297FF43CAE116843F8091C106053F898
:101E3000092CC4E97200002A7FF43EAECFE718688F
:101E4000C4F8D001D4F8C80100287FF429AF18687D
:101E500042F8090C196052F8093CC4E9721129E7EB
:101E6000D8790328F3D00A287FF412AFEFE700BF38
:101E70008D49FD1A070000002D520100CC4D0020B5
:101E8000384D00205917B7D1F006002060560200E7
:101E90005454020050510200492C000000CA9A3BE1
:101EA00083DE1B43D1790329BDD00A2994D1BAE737
:101EB000074A0849084840F6C7331DF060FC404017
:101EC00080F311884FF0030002DF4FF0000841E675
:101ED00060560200B05102005051020000000000A4
:101EE0002DE9F04F0B68D2F800801B6897B00C46C4
:101EF0000A93037F00F11E01C3F3801305461746C2
:101F000014A806228DF847301EF03EFC94F811907C
:101F1000B9F1FF0F0DF1480B5BD05A460DF14701A7
:101F2000484613F033FC9DF8473002338DF84730B4
:101F30002946032251F82E6B07F1080007F1040A25
:101F40001EF022FC07F11803042205F12A01504675
:101F50000B931EF019FC0B9B052205F13A01184664
:101F60001EF012FC0B9B0521184608F0F9FC7B7F44
:101F700095F83F2000F03F0060F305037B77C2F344
:101F80000403BB77AB8EFB81012899B202F01F03DB
:101F900005D91B3303F01F030B2B00D8F9B90A9B9B
:101FA000EC6800225A6197F82030304662F3000353
:101FB000012687F8203029462E710CF09BF9206805
:101FC000267121460CF096F90CF09EF917B0BDE889
:101FD000F08F062214A958461EF0D6FBA8E7236806
:101FE0000020586095F8370095F8363043EA002312
:101FF0003B8298F8D830520962F3C5036A8E0D927D
:1020000040F2E24202FB01F088F8D8300B9015F064
:10201000D7F80C9098F8D800C0F3C20015F0D2F8A9
:102020000C9BC74903440B9800FB03F303F574238F
:1020300003F23F23A1FB03239B0C7B6295F8313015
:10204000398A40F2E24203FB02F24308963BBA634C
:10205000BB622B8FBB4AADF83A309E46BA4B8446E2
:1020600003440244B3FBF0F3B2FBF0F242F210700F
:10207000A8F8C6201FFA8EF200FB02C2013A881DA2
:10208000B2FBFCF2A8F8C2209AB28242A8F8CE2095
:1020900004DDC1F57F41FA310A4492B2A8F8CA20A2
:1020A0005146042208F1DC001EF06EFB2B4613F8AB
:1020B0001C2FC2F34011DA070F910C9100F11A8125
:1020C0004FF48073AB830A9B93F8260014F010F949
:1020D000002800F0EE80062205F1240105F12B0016
:1020E0001EF052FBB9F1FF0F00F0EA8014A906229E
:1020F00005F125001EF048FB9DF84730AB775946A7
:10210000062205F11F001EF03FFB98F8D830FA892F
:102110006A863A8AAA86C3F3C203BDF83A2085F8D4
:102120003830EA8640460EF0D9FA2946B881E88070
:10213000656830460CF0DEF8BB89EB801B232B7101
:102140000C9B2E68002B40F0C2809DF83C302B7712
:10215000294630460CF0CEF80CF0D6F897F845003A
:10216000B7F84050B7F84260012100F0070014F0C2
:1021700035FE2E4406F5E1763118824673484FF05D
:1021800000093123C8F80830A1FB00016AA3D3E994
:102190000023C8F80490C8F80C90FEF7A7FB0B9B2F
:1021A0007E6A0D9AE5689E1B40F2E24303FB0255EE
:1021B00020F07F4005F2B245A5EB0A034A46022112
:1021C000C8F8100001200B9308F09AFA0A9D2846DF
:1021D0000DF084F9821C5E4B0095D2B24846012175
:1021E00009F028FD012800F092800A9B93F8243022
:1021F000DB0777D440460EF071FADFF85091A6FB6A
:1022000009564DA3D3E90023834631462846FEF7FD
:102210006DFBA368CDF818800BF10504A3F13A0B10
:102220004C4B07934C4B05934FF4E4730893D8F849
:10223000103020F07F4749484FF0000ACDE903A352
:10224000A7FB00010723281A03FB071166EB010116
:102250004FF47A720023FEF749FB0B9BCDE9017026
:10226000A3FB090134A3D3E90023FEF73FFBE4B24B
:1022700020F07F4000905B4622460121504609F045
:102280004FFC30F002030CD0354A3649364840F254
:10229000C9131DF074FA404080F311884FF0030019
:1022A00002DF01220221104608F02AFA17B0BDE829
:1022B000F08F0146062205F12B001EF070FA11E79F
:1022C0000622002105F125001EF069FA14E77B7F44
:1022D00043F040037B77504613F056F80123F88310
:1022E0002B7735E70023012200931846114609F0A9
:1022F000A1FC7FE71A4A1D491B48F1231DF03FFA54
:10230000404080F311884FF0030002DFD8E60CF064
:10231000A7F80A9B83423FF468AF114A1449124858
:1023200040F29F231DF02BFA404080F311884FF0BC
:10233000030002DF59E700BF8D49FD1A07000000C6
:1023400083DE1B43FF5962027FC3C90100CA9A3B67
:10235000AD4901007D490100E94901008D49FD1A9F
:1023600048580200405702005051020060520200DB
:10237000A4580200000000002DE9F04F8BB00F467A
:102380000493BDF85830059006930020BDF86030E6
:102390009DF85490BDF85CB0039316460DF0D4FA46
:1023A000002800F09D8109F0010A0546504609F019
:1023B00009FDBAF1000F6AD12B6A05F11C020792E0
:1023C000002B6BD0D5F82080D8F8004098F8440056
:1023D000C0F3C00100F0070014F0FEFCB8F8401094
:1023E00000F5E1700144B8F842000144C648C4A3B6
:1023F000D3E90023A1FB0001FEF778FA20F07F402B
:102400002061304613F0E6FC95F833306FF341035A
:1024100085F83330FF2385F8343066B3A9F1020321
:10242000012B40F2618195F84430049A69F342032C
:1024300085F8443095F8333062F3000385F8333083
:102440001499062205F124001EF09EF9039B2B86A9
:10245000059A00963B4605F11C000021FFF7B4F8F1
:1024600014F05AFE002840F05B812846FFF7D8F8A8
:102470000BB0BDE8F08F14F0E9F80028CED0149925
:102480000498324613F016FE85F83400C6E706219C
:1024900008F0DAF800288FD11220E9E70BF012FFDC
:1024A0000790002800F073810EF00CF90446002814
:1024B00000F08F81203008F067FA04F11C08002832
:1024C00040F05881032104F1240014F033FB069BF3
:1024D000606F63854FF6FF73A4F82CB02385002846
:1024E00000F0578104F1640104F1680208F0B8F8C3
:1024F000B4F86030854A23F4EF6323F0070343F414
:10250000887343F00103A4F8603094F87A3023F024
:1025100007034FF0000B84F87A304FF01B13C4E927
:102520001632C4F874B0A4F878B0A4F82EB0C4F889
:1025300030B004F1340012F0DBFE94F8393060F36F
:102540000503012184F839300DF1270014F0F2FA67
:102550009DF827206E4BDDF80CC0A08D84F83BB0B1
:10256000A3FB0213DB0803EB4303A2EB8303053356
:1025700084F83A3094F839300699A4F8C4B003F0DE
:102580003F0384F8393094F83C30A4F8C8B023F005
:10259000030340F2E24284F83C305E4BA4F8D0B032
:1025A00002FB01F10A460B44B3FBF1F35A49A4F8CC
:1025B000CCB01144B1FBF2F1A4F8C61042F2107194
:1025C00001FB0C210139B1FBF2F2A4F8C220062272
:1025D000A4F8C020811D9AB28A42A4F8CE2002DD60
:1025E000063A121A92B294F8D830A4F8CA204FF0E2
:1025F000000B23F0070384F8D830A4F8E4B084F883
:10260000E6B0C4F808B1A4F80CB1A4F820B10BF0FE
:1026100017F9079BC4F8443194F83A31A4F838B15B
:1026200023F0030384F83A3194F87A30A4F840B1E7
:1026300023F0180384F87A3094F8663184F843B1B3
:1026400023F0070384F8663194F88631A4F864B166
:102650006BF3451384F8863194F8AE31A4F884B155
:102660006BF3C303002284F8AE310023C4E94A01AE
:10267000C4E94C23A4F8ACB1A4F8B8B10EF06AFBDD
:10268000A4F8D2000EF06CFBD4F8BC21234BA4F8C4
:10269000D4001340C4F8BC310EF068FB94F8C0318C
:1026A00060F3020384F8C0310EF066FB94F8C03189
:1026B000C4F8C4B160F3C50384F8C0313123C4E960
:1026C00074BBC4E972BBC4F804B0C4F80CB0A36016
:1026D000C5F82080C4E905BB84F800B0E46175E664
:1026E0000C200BB0BDE8F08F002013F097FB95F89D
:1026F000333043F00203D14685F8333093E600BF10
:102700008D49FD1A0700000000CA9A3B48014801A4
:10271000ABAAAAAA7FC3C901FF5962020000FFF653
:102720002C6AA36D63B12D4A2D492E484FF497634F
:102730001DF025F8404080F311884FF0030002DFC0
:1027400004F14C0104F1480007F08EFF0646002812
:1027500031D02768A665D7F84441F4B120460BF084
:10276000B7FD38460DF0B4FF002303202B620BB0F9
:10277000BDE8F08F194A1C491A48BF231CF0FFFF1F
:10278000404080F311884FF0030002DF9AE60720F3
:102790006EE604F16C006067A4E6104A1349114824
:1027A00040F2C1431CF0EBFF404080F311884FF032
:1027B000030002DFD2E7094A0C490A4840F2BA4353
:1027C0001CF0DDFF404080F311884FF0030002DF72
:1027D000BFE707980BF07CFD072049E6D4580200BC
:1027E0008C550200505102002C530200B8560200D2
:1027F0002DE9F04F80468DB004460F46154600F196
:10280000240106220AA818F81C6F1DF0BDFF94F8D9
:102810001C9018F0010FC9F3401BC6F3C016D9462F
:1028200040F000810023A383B97C97F8118011F058
:1028300001014FF0060200F0DF8004F11E0104F1F7
:102840002B001DF0A1FFB8F1FF0F00F0DD80404626
:1028500004F11F0204F11E0112F098FFA37F02335E
:102860000AA9A377062204F125001DF08DFF3B681D
:10287000D3F800A0EB8963862B8AA386BAF83030A0
:10288000E38614F09BFC84F83800D5F800804046BD
:102890000DF024FF7E68A8812146E08020680BF0BF
:1028A00029FDAB89F3801B2334683371B9F1000F24
:1028B00040F0C68086F81CB0314620460BF01AFD69
:1028C0000BF022FDD8F80430D8F8086095F84400E1
:1028D000B5F80E90FC689E4238BF1E46C0F3C0019A
:1028E00040F2E24300F0070003FB09F914F074FA28
:1028F000203400220221241A012007F001FF504653
:102900000CF0FAFF021D564BCDF800A0D2B2012107
:10291000002009F08FF930F002030CD0514A5249DF
:10292000524840F2C9331CF02AFF404080F311881E
:102930004FF0030002DF4FF0000A5346032201214B
:10294000CDF800A0504609F075F940460DF0C6FEDE
:10295000BB68CDF81880093B9E1B454B0793454B40
:10296000059340F2F933444F0893D8F81030A9FB8F
:102970000798CDE903A3451D37A3D3E900234846B3
:102980004146FDF7B3FF104619464FF47A72002313
:10299000FDF7ACFF30A3D3E900230290414648463F
:1029A000FDF7A4FF2CA3D3E900230190A4FB0701AA
:1029B000FDF79CFFEDB220F07F40009033462A46A1
:1029C0000121504609F0ACF830F002030CD0254A42
:1029D0002549264840F2FA331CF0D1FE404080F3EE
:1029E00011884FF0030002DF01220221104607F098
:1029F00087FE0DB0BDE8F08F04F12B001DF0CFFE77
:102A0000B8F1FF0F7FF423AF0622002104F1250067
:102A10001DF0C5FEA6770AA9062204F11F001DF0CD
:102A2000B3FE24E70F4A154910484FF452731CF0C7
:102A3000A6FE404080F311884FF0030002DFF1E66C
:102A40006B7F43F040036B77281D12F09DFC012340
:102A5000E883337730E700BF8D49FD1A0700000097
:102A6000A54B0100D458020040570200505102000B
:102A7000A94B0100D94B010000CA9A3B60520200E9
:102A80002DE9F04F8FB01E4609931546FF230A1D0E
:102A9000DFF80481DFF804B1DFF804A1DFF8049166
:102AA00008920021316004468DF82F3004930C9178
:102AB000059106910DAF0CAE02230D93CDE9018770
:102AC00000962B460DF12F022146002009F0F4F864
:102AD00002282DD00D9B002B30D19DF82F30FF2BDD
:102AE0003CD0052BE8D100200DF000FE0028E3D0FB
:102AF00090F93930002BDFDB049902690C9BFF2928
:102B00000CD0069907921846049309F035F9059BF5
:102B1000089A99188842049B079A22D8CDE9052380
:102B20009DF82F300493C7E72146002009F00AF9E9
:102B30000D9B022BF8D00D9B002BCED073235A4651
:102B4000514648461CF01BFE404080F311884FF070
:102B5000030002DF9DF82F30FF2BC2D1049BFF2B17
:102B600010D0DDE9053210481344A3FB0001072211
:102B700002FB031106A3D3E90023FDF7B7FE099B6F
:102B8000803018600FB0BDE8F08F00BFAFF3008059
:102B900000CA9A3B00000000754F01002059020056
:102BA00064590200505102008D49FD1A00000000D6
:102BB00070B582B01C4601921546064601AA022055
:102BC000FFF75EFF23680BB30198431B1B021FD462
:102BD000294609F0D1F81A4A03460721A0FB020250
:102BE00001FB032114A3D3E90023FDF77FFE226834
:102BF00002442260002A09DB40F2E24006FB00F0BA
:102C0000904203D2121A8242FCD8226002B070BDF8
:102C10000146284609F0B0F8094A03460721A0FBFF
:102C2000020201FB032104A3D3E90023FDF75EFEAA
:102C30002268121A2260DDE700CA9A3B00000000F9
:102C40008D49FD1A000000002DE9F041B0F8941103
:102C500088B0044640F2E2434348002603FB01F1FA
:102C600005AD0623C5E901668DF80F30A1FB000113
:102C70003BA3D3E900230596FDF738FE0DF10F03C2
:102C800001950093B4F88A31049004AA20460121EA
:102C900012F072F99DF80F8008F1FF3C5FFA8CFC8E
:102CA0000DF11603304604F5CA7703EB4C0C04F51E
:102CB000D0764FF6FF7E3A88B8F1000F0AD02B4647
:102CC000724504D0198891424FF0010013D00233AD
:102CD0009C45F5D10237BE42EDD108BBBDF814309A
:102CE000D4F8EC1040F2E24203FB02F2C4F81821DF
:102CF000180A0B7009E0D4F8EC1040F2E24302FB32
:102D000003F3C4F81831100A0A70487094F80E31B1
:102D1000042262F3020384F80E3108B0BDE8F081AA
:102D2000D4F8EC30032203F8042C13F8052C94F8A3
:102D30000E11052542F00302112003F8020C03F8DE
:102D4000052C65F302010F20202203F8010C1A70F4
:102D500084F80E1108B0BDE8F08100BFAFF3008029
:102D60008D49FD1A0700000000CA9A3B00000000D0
:102D700038B5044615F0B2F8A27DC2F34103013321
:102D800003F00303032B34D063F34202A27503F173
:102D9000250013F0DFFF63680BB32369FBB116F066
:102DA0008DFD054608F0E6FFC11C002016F054FD1D
:102DB00016F0D0FD16F082FD294608F0DDFF12491D
:102DC00003460722A0FB010102FB03110CA3D3E978
:102DD0000023FDF78BFD23691B1A236138BD08F022
:102DE000C9FFC11C002016F037FDBDE8384016F0C1
:102DF000B1BD6FF34202A2752520CAE7AFF3008090
:102E000000CA9A3B000000008D49FD1A0000000036
:102E10002DE9F04F87B0044616F032FBC0B250B92E
:102E200013F0F0FFB848214616F004FA07B0BDE8E9
:102E3000F04F16F0FBBA16F043FB054616F05EFCA9
:102E4000834616F065FC814616F07AFE064616F0BB
:102E50005BFE824616F016FCEDB2804616F0F8FBDB
:102E600013F0D0FF002DDDD001200BF09FFB0546B5
:102E7000002800F07C811BF0FF0BF6B240F0D580FB
:102E8000002E40F0CC80FF275A463B463146204674
:102E900015F052FA0028C5D0636800225FFA88F85E
:102EA0008DF81320002B00F0DC80636893F820304D
:102EB000990700F1D6802B7F03F00F010729B1D0CD
:102EC000A27D120740F16181002940F0B7806B7F3D
:102ED000252B00F22A8104200BF068FB0028A1D0EA
:102EE00016F040FD636A804643B9238C40F271229C
:102EF00002FB03F3B0FBF3F203FB120823681A6929
:102F0000824B0721A2FB030301FB02317CA3D3E91F
:102F10000023FDF7EBFCA0F24233434582D316F0C9
:102F200089FB3846636813F0F1F9E37D9B0781461E
:102F300040F1CE81002800F0CB8183464FF001089C
:102F400016F0CCFA2B7F05AA039205F11E0201466A
:102F50008246C3F38013009220460022CDE9018B04
:102F600015F004FA504616F03FFA16F07FFA0028E2
:102F700040F0C4816648214616F05CF96168A37D83
:102F800091F8202043F0800342F0010281F82020D4
:102F9000A3750BF029FB1623804603714FF6FF73D0
:102FA0002D7FC380514624221C301DF0EDFB98F884
:102FB0001C30C8F80840C5F3401565F3451388F880
:102FC0001C3016F07BFC0021C8F810000120059D84
:102FD00016F01AFA002E08BFFF2788F81970E37D53
:102FE0002D1A13F00203C8F8145003D0B9F10003EE
:102FF00018BF012398F81A2063F3000288F81A20FA
:103000000BF0F2FA03464146D8F80000C8F80C303D
:103010000BF000FB0BF00EFB07B0BDE8F08F5FFA82
:103020008AF013F001FA07462EE7A07D5FFA89F1D6
:10303000C0F3C00013F08EF9074625E7012915D12A
:103040006B7F0C2B7FF4EEAE2A7F00970023019359
:10305000D20905F12403204615F0C0F800287FF4BA
:103060003AAF297F01F00F01002953D0062951D032
:10307000022900F09D80012957D16B7F0C2B7FF432
:10308000D1AE2A7F00970DF113030193D20905F108
:1030900024030021204615F0A1F8002845D06B7FBD
:1030A000002B3FF4BFAE63682BB12B7F03F00F03FF
:1030B000072B7FF4B7AE03209DF813900BF076FA40
:1030C000054600283FF4AEAE0BF08EFA4FF6FF73C4
:1030D000EB8005232B71B8F1000F65D17F20AB7E0B
:1030E0002876002E08BFFF2769F341032868AB76D6
:1030F00029466F760BF08EFA0BF09CFA92E600BF31
:1031000000CA9A3B00000000957F01008D49FD1A1E
:103110008D8101006B7F252B07D8A27D920602D5F9
:103120006268002A46D0252BBAD92B7F03F00F0303
:10313000042B7FF477AE6B7F252B3FF673AEA37D18
:10314000D9077FF56FAE16F0C9F92B7F0278C3F36C
:103150008013B3EBD21F7FF465AE0830062205F171
:103160001E011DF000FB00287FF45CAE97E7714A5A
:103170007149724840F2C3231CF001FB404080F3C8
:1031800011884FF0030002DF75E6FF2F8DF81470F1
:10319000C3F3801978D0237EDB1BB3FA83F35B097A
:1031A000002B7FF491AE5FE716F05EFAC0B296E7AF
:1031B0006B7FB8E7962016F0C1FA002016F092F95E
:1031C00003200BF0F3F9814600283FF42BAE0BF0FF
:1031D0000BFA4FF6FF73A9F80630052389F804307F
:1031E000B8F1000F70D17F23002E89F8183014BF7A
:1031F0003B46FF2389F8193099F81A30D9F80000B6
:103200006FF3410389F81A3049460BF003FA0BF0CB
:1032100011FA16F063F92B7F0646C3F38013327858
:10322000DB0102F0700243F00303134333700C23FD
:103230003846737013F06AF8E37D9F074FD5002876
:103240004DD033780146304643F0400300F8023B4E
:1032500006221DF099FA062205F11E0106F108006A
:103260001DF092FA304616F0BFF816F0FFF800286D
:1032700052D116F06FFBA37D314843F00103A375D3
:10328000214615F0D7FFC7E605F11E0A05AA5146EB
:10329000484613F07FF900283FF4E3AEE37D03F0E6
:1032A00001034B457FF4DDAE5146062204F10800D0
:1032B0001DF059FA297FB0FA80F35B0901F00F0184
:1032C000002B7FF401AECFE616F0CEF9C3B28BE748
:1032D00094F8168004F1190BC8F3801830E6A37D2A
:1032E0003278C3F38013304663F3861200F8022B62
:1032F00004F1190106221DF047FAACE70D4A114905
:103300000E4840F291431CF03AFA404080F3118895
:103310004FF0030002DF2DE6064A0A49074840F253
:1033200016531CF02CFA404080F311884FF0030034
:1033300002DF9EE7845D0200385D0200505102000A
:10334000A97F0100405D020007B500230DF10702CF
:10335000FF218DF807301CF0B0F810B103481CF0C5
:103360000EFA9DF8070003B05DF804FB89620200C5
:103370000B4B10B51968044683681B6898472046B4
:1033800020F015FD20B90748BDE810401CF0F7B942
:103390002046FFF7D9FF152814BF03480348F3E779
:1033A000A8010020AB620200C5620200DC620200DC
:1033B00008B50A460C211CF08BF820B1BDE8084086
:1033C00001481CF0DCB908BDEB62020008B50A46F2
:1033D0000D211CF07DF820B1BDE8084001481CF02B
:1033E000CEB908BDEB62020008B50F2208211CF01F
:1033F0006FF820B1BDE8084001481CF0C0B908BD15
:10340000FD62020038B50022042105461CF060F878
:1034100000220446052128461CF05AF806210444DF
:10342000002228461CF054F8211804D0BDE838408A
:1034300001481CF0A4B938BD1563020010B5C022C4
:10344000022104461CF044F810B107481CF097F91B
:103450000022032120461CF03BF820B1BDE81040BB
:1034600002481CF08CB910BD416302005C6302008D
:1034700008B5402202211CF02BF820B1BDE808401D
:1034800001481CF07CB908BD4163020007B500216A
:103490000DF107021CF011F810B104481CF06FF98F
:1034A0009DF8070003B05DF804FB00BF77630200DE
:1034B00007B501210DF107021BF0FFFF10B1044811
:1034C0001CF05DF99DF8070003B05DF804FB00BF38
:1034D000776302007FB500230B60064613600D463C
:1034E0001446FFF7D3FF3046FFF7E2FF07238DF8BE
:1034F00007300DF10701062302AA30461BF0C8FF72
:10350000014610B113481CF03AF99DF809309DF8B6
:1035100008201B0203EB02439DF80A2013442A688B
:1035200013442B609DF80C309DF80B201B0203EB1D
:1035300002439DF80D2013442268134423602B6836
:10354000C3F311032B6023680120C3F3110323602D
:1035500004B070BD93630200F7B514461F460DF129
:10356000070200230E4605468DF807301BF0A5FF25
:10357000014618B10A4822461CF001F99DF80720BF
:1035800022408DF8072031463A4328461BF0A0FF21
:10359000014610B103481CF0F2F803B0F0BD00BFC3
:1035A000B7630200E563020010B504461BF0A7FFF5
:1035B0002046FFF743FF2046FFF716FF2046032172
:1035C0001BF0C0FF144B0222204620211A701BF072
:1035D000BEFF204604211BF0BFFF204603211BF045
:1035E000C0FF20462421FFF7E3FE20462421FFF7F9
:1035F000EDFE0122114620461BF0B8FF2046202395
:103600008F221121FFF7A8FF2046FFF7FBFE20467F
:10361000BDE81040FFF72CBF8C6100202DE9F04F72
:10362000002087B001F0DAFC0546002840F08380D6
:103630004348FFF79DFE43481AF090FC0446026998
:1036400081681368404EDFF804A1DFF804B1DFF8A9
:10365000F09023F4806313600B683E4A0A21984778
:1036600037481BF048FF3648FFF79EFF4FF4FA73C8
:103670003360D84657463168A9424DDC364BDFF8F7
:10368000DC90374D0093324A364B3048CDF80890E5
:103690000195FDF7ADFA334F524659466423D1F8F0
:1036A000900141F8040B0133D2F8900142F8040B69
:1036B000B3F5FA7FF3D14FF4C86820461CF016F832
:1036C0000128FAD00BEB08021D480AEB0801FFF7AE
:1036D00001FF99F9002002B92A601F4B93F90020DD
:1036E00002B93A602A68ADF814201F483A688DF88C
:1036F000162004A908F1040820F0B6FCB8F5FA6F0A
:10370000DBD1154B0093CDE90159114A31680F48BF
:103710003B46FDF76DFABFE720461BF0E7FF0128A7
:10372000FAD0424639464846FFF7D4FE0135043701
:1037300008F104089FE7012007B0BDE8F08F00BF43
:10374000AC490200FF6302002440002080300020CA
:1037500050380020000108008E6100208D6100209B
:103760002040002028400020540B0020F8B50746D8
:1037700014460E4631B9142220461DF010F8354685
:103780002846F8BD098A17481BF0F9FF257C95B932
:10379000154920681DF089F868B914481BF0EFFF3F
:1037A000338A25600133238103232374214638465D
:1037B00006F0DEFBE4E7237C032B01D00125DFE7E5
:1037C000F4680B4920681DF070F818B909481BF01F
:1037D000D6FFF3E7064920681DF067F80028EDD111
:1037E0000548F4E706640200E80900201D640200B1
:1037F000D5090020316402003D64020010B5074C79
:103800002368834209D106481BF0B9FF20681DF0E8
:10381000CEFD044A00232360137010BD40400020F9
:103820004E6402008F6100202DE9F34105460C46ED
:103830001DF0A2FD214EDFF8888030604CB1214898
:1038400021461BF09CFF002388F8003002B0BDE841
:10385000F0811D481BF093FF06231C48ADF8003093
:103860000127ADF802304FF44873ADF8063088F800
:103870000070ADF804401BF082FF1549154A0A603C
:10388000154A4A6030680F814FF6FF72CA810C7486
:1038900006F06EFB11481BF072FF694628461DF0CA
:1038A0001CFE0028D2DA0E4C20461BF068FF0021D7
:1038B0004FF4A4701BF046FBF6E700BF4040002029
:1038C0008F6100206D6402008D640200A664020016
:1038D0002C400020E80900206D370000D064020071
:1038E000E364020000B5002089B003F05FFD0646E6
:1038F00060B1014611481BF042FF114804F0F8FE88
:10390000002140F267601BF01DFBF9E70D4D0E48EA
:103910001BF035FF0FCD03AC0FC42B6823600B49A0
:1039200000963346022203A804F072F9014608B15A
:103930000748E0E707481BF022FFDEE7FC640200CF
:10394000B4010020E04B02001C650200684C02003C
:10395000336502005965020070B50A4E0A4C0B4DE2
:103960004FF0FF324FF0FF3330461AF0D3FD90F99D
:10397000041090F906202170284662701BF0FFFEAB
:10398000EEE700BF540B0020E60900207B65020033
:103990000B6801330B60014B1B681847C8010020FE
:1039A000014B1860704700BFC801002007B50B46E7
:1039B000002102460191034801A900F0E5F803B097
:1039C0005DF804FB913900002DE9F84FB0F818902C
:1039D00019F00808044693460DD001290CBF49F0A0
:1039E000100949F02009A0F818908BF31188BFF353
:1039F0006F8FBDE8F88F09F00709022907D120462B
:103A00001BF0E4FE0028F0D00128238B4ED167691B
:103A1000218B002F15DA256821F00701C4E9008801
:103A200041F0010121830026218B01F0070ACA45DC
:103A300002D0A368002B5AD10DB9002E71D00023FB
:103A400056E001F007035A1F012A1ED821F0070192
:103A5000062B256889B2C4E900880AD13DB1638B81
:103A60002A46126801339BB2002AFAD1638341F0DF
:103A70000201218320461BF0A9FE06460028D3D070
:103A8000238B43F020032383CDE7042B0CD121F0BB
:103A9000070189B2218320461BF098FE05460028C5
:103AA000C1D041F0200121830025BCE7032809D1C2
:103AB000226923F00703166843F0060323830025D9
:103AC0002F46B1E7042806D1226923F00703566880
:103AD00043F00403F2E7052806D1226923F0070327
:103AE000966843F00503E9E700252E46E8E7012341
:103AF00041F0080121838BF31188BFF36F8FFBB96D
:103B000085BB16B11F492046B0474FF02003EFF3A5
:103B1000118B83F31288BFF36F8F238B23F008037D
:103B20002383238BDA0625D523F010032383012179
:103B3000B4F8189009F0070900297FF45EAF54E744
:103B4000A1680029DCD0D1F80090D1F804B03B4640
:103B500052462046D847B9F1000FD1D04946D9F88E
:103B60000090F2E729463B46524620462D681BF05E
:103B700049FEC5E713F020011EBF23F02003238375
:103B80000221D5E731F801002DE9F04F81469BB0C5
:103B90008A4615461C460026287810B9304600F0A3
:103BA000EEBD6B1C2528029306D05146C84700285D
:103BB000C0F2E58501364CE2182200210CA81CF069
:103BC000EEFD6B78252B7CD00022681C9646904633
:103BD00094461746014610F8013B2B2B00F0A080BD
:103BE00000F29780202B00F09E80232B00F09E8017
:103BF0002FB19DF8380040F004008DF83800BCF17A
:103C0000000F05D09DF8380040F008008DF838000E
:103C1000B8F1000F05D09DF8380040F010008DF885
:103C20003800BEF1000F05D09DF8380040F02000AC
:103C30008DF838002AB19DF8382042F040028DF806
:103C400038209DF8382002F04400442803D16FF357
:103C500086128DF838209DF838202A2B42F08002F9
:103C60008DF838207ED19DF8392042F001024B1C9E
:103C70008DF839201A782E2A9DF839200CBF0121A1
:103C8000002161F341028DF8392077D15A782A2A30
:103C90006DD0013300214FF00A0C184610F8012BAB
:103CA000A2F13007092F40F2AB809DF83820109127
:103CB000C2F3400040EAD17161F341028DF838202F
:103CC0005CE0AA1C02928DF83B309DF83930DF078A
:103CD00040F1738154F804BBBBF1000F07DA9DF883
:103CE000382042F004028DF83820CBF1000B580741
:103CF00040F16C8154F8048BB8F1000F80F26B81B5
:103D00009DF839306FF341038DF839304FF0FF38AB
:103D100061E12D2B0DD0302B7FF46AAF012259E7E2
:103D20004FF0010C56E74FF0010853E74FF0010E3A
:103D300050E701274EE70CFB0272303A0346184663
:103D400010F8017BA7F1300EBEF1090FF3D99942AB
:103D500090D09DF838100F92D20F62F341018DF888
:103D6000381087E70B4600224FF00A0CE7E79DF872
:103D7000392042F004028DF839200233194611F837
:103D8000012B6C2A5CD040D8682A46D06A2A61D0C0
:103D90004C2A67D019460B4613F8012B0293782A58
:103DA0008DF83B2000F2DF80572A68D8412A04D0E2
:103DB000A2F14503022B00F2D6809DF83A3002F0C2
:103DC000DF020421A2F1410861F30203D8F10002ED
:103DD0009DF839108DF83A3042EB080262F3C711B2
:103DE0000A068DF83910CBB200F1E58003F07802B5
:103DF000182A40F0B5806FF3C6038DF839309CE087
:103E00000CFB01213039034647E7742A26D07A2A71
:103E1000C0D19DF8393006220DE05A78682A9DF805
:103E2000392006D1012161F3C6028DF83920991C91
:103E3000B1E71346022262F3C6038DF83930AAE7D0
:103E40005A786C2A9DF8392001D10421EBE71346FA
:103E50000322F0E79DF839300522ECE79DF8393070
:103E60000722E8E7BDF8383023F4F04323F00203DB
:103E700043F4804343F00203ADF838308BE7A2F1FE
:103E80005803202B6FD801A151F823F03F3F0000C9
:103E9000673F0000673F0000673F0000673F00008A
:103EA000673F0000673F0000673F0000673F00007A
:103EB000BB3D0000673F00003F3F0000113F000096
:103EC000BB3D0000BB3D0000BB3D0000673F000064
:103ED000113F0000673F0000673F0000673F0000A0
:103EE000673F0000753F00003F3F0000993F000022
:103EF000673F0000673F0000993F0000673F0000F8
:103F00003F3F0000673F0000673F00003F3F000069
:103F10009DF83A30012161F302038DF83A309DF8A3
:103F2000393003F07803402B02BF9DF8381041F080
:103F300001018DF83810632A05D0002306E09DF8B2
:103F40003A300221E7E7003B18BF01239DF83820F3
:103F5000C2F340010B4363F341028DF83820B4E60D
:103F600013F0380FE9D09DF8383043F001038DF895
:103F70003830E2E79DF83A30032262F302038DF80D
:103F80003A309DF8393003F07803A3F1400CDCF1AE
:103F9000000343EB0C03D9E79DF83A30032262F3A8
:103FA00002038DF83A309DF8393013F0780F14BFC2
:103FB00001230023CAE70123C8E79DF93820002A1E
:103FC000B4BFDDF83CB04FF0FF3B90E699077FF5BA
:103FD0009DAEDDF840809DF839100023CDE90F3308
:103FE0009DF83A3003F00702042A09D18A0707D462
:103FF0009DF93920002AB4BF4FF00D084FF0060894
:1040000003F00703012BC1F3C30137D1CB1E042BEF
:1040100021D8DFE803F003090920200054F8043B0D
:10402000DA17CDE90C3206E0073424F00704F4E88F
:104030000223CDE90C239DF83870BB0756D0029BB4
:104040002A46514648461BF0F2FE0028C0F29783EC
:104050000644029DA0E554F8043B01294FEAE372AF
:10406000CDE90C3205D19DF830300C9300230D932F
:10407000E1E70229DFD1BDF93030D1E7022B23D1AE
:10408000CB1E042B13D8DFE803F0030A0A12120038
:1040900022680C920023201D0D930446CBE7E01DFF
:1040A00020F00700F0E80223CDE90C23F5E754F8EF
:1040B000043B0C9301294FF000030D93D3D0022948
:1040C000B9D1BDF83030D0E7042B09D1E31D23F07E
:1040D000070303F10804D3E90023CDE90C23AAE781
:1040E000032B04BF54F8043B0C93A4E79DF83B203A
:1040F000782AAED8572A00F28C80252A00F0D48086
:10410000242AA6D9412A03D0A2F14503022BA0D824
:10411000DDE90C13002BC0F2BE81380700F1BD8130
:1041200017F0100718BF2027C3F30A55C3F3130372
:10413000CDE90813002D40F0B28151EA030014BF0D
:1041400001200020DB0243EA5153C902462A45EA16
:10415000010E43EAE57C08BF66225EEA0C0CCDE95D
:10416000081300F00682002840F0CE81DDE9080146
:104170004FF0000C41F00041A5F2FE350991634675
:104180004FF0050E15F1020FC0F2C581BCF1000F12
:1041900001D0CDE90801002DDDE9081000F3D08140
:1041A00009980899C5F1040C1C3500FA05F5ACF125
:1041B000200E21FA0CF120FA0EFE294341EA0E01ED
:1041C00020FA0CF0CDE9081002F0DF01472940F099
:1041D000D781DD1C02DB984580F2CE81023AB8F12E
:1041E000000FD2B201DD08F1FF389DF838108806C3
:1041F00000F1C681B8F1000FD4BF00210121662A69
:10420000039140F0BF8118EB030540F1BD8100250B
:10421000BDE1A2F15803202B3FF61BAF01A050F8DF
:1042200023F000BF39440000534000005340000019
:104230005340000053400000534000005340000032
:104240005340000053400000114100005340000063
:10425000D5420000D9430000114100001141000087
:104260001141000053400000D943000053400000BA
:104270005340000053400000534000006F440000D2
:10428000394400003D44000053400000534000000A
:10429000AF4200005340000039440000534000008A
:1042A0005340000039440000514610467EE4B8F106
:1042B000000F0C9A09DB4146104603921CF03EFAAF
:1042C000039A0027151862B9C3E6104603921CF042
:1042D0002EFAF5E70C9B8DF84C3000270DF14D05BB
:1042E00013AAAB1A07B101339DF83A00C10640F199
:1042F0003A8202330F9940060B4444BF10995B1871
:10430000BBF1000F23DDABEB030B9DF838305907F1
:10431000C3F380081BD4580640F13482002F00F00C
:104320003482514638460392C8470028C0F227829B
:10433000039A474601364FF030085E445B46002B37
:10434000A6EB0B000BF1FF3B00F31182064647B1D1
:10435000514638460392C8470028C0F21082039A9B
:1043600001369DF83A30590640F165829DF93930A1
:10437000002BA6EB02030393C0F20A82174638789B
:10438000039BA0F13002092AB84603EB070607F1A8
:10439000010740F229829DF83A200F9F930608D426
:1043A0003E44002FA6EB070307F1FF3700F32282FC
:1043B0001E4698F800002E280BD15146C847002809
:1043C000C0F2DD81002F06F1010600F31A8208F128
:1043D0000108A6EB08061DE23D072BD417F01007D5
:1043E00018BF2027DDE90C23002B05DA524263EBCE
:1043F0004303CDE90C232D270DF1650300930EAA8D
:10440000DDE90C0113AB1BF0CCFC0246B8F1000F48
:104410000DF16505FFF657AF9DF83810AB1A6FF335
:10442000861198458DF838107FF64DAFA8EB030341
:104430000F9348E72B27D5E70027DDE70C980028E6
:1044400000F08D810DF1650300930EAA13AB0021DE
:104450001BF0A7FCBDF83A3003F0EF0343F4F04340
:1044600043F010030246ADF83A300027CEE70C9B2C
:1044700007293FF6EEADDFE801F00C04060C080852
:104480000C0C1E70E5E51E80E3E5F217C3E900623F
:10449000DFE51E60DDE52D2746E62B2744E640F2EA
:1044A000FF7085422DD10B43A2F141021BD1192A85
:1044B00011D849238DF84C304E238DF84D304623CA
:1044C0008DF84E309DF838306FF386138DF8383004
:1044D0000DF14F0504E769238DF84C306E238DF8FC
:1044E0004D306623ECE7192A99BF4E2341226E23F3
:1044F000612294BF8DF84C308DF84C308DF84D20F2
:10450000DEE700201EE6013D49185B41002BFADA88
:10451000CDE908132AE6400840EAC1704908B1F124
:10452000333FAC4605F10105F5D20EFB01F5A0FBCA
:104530000E012944013B0CF102054FF0010C21E66C
:10454000023140F10000CDE9081008A8CDE90323AD
:104550001BF0F8FB049B039ADDE90810013D0133D1
:1045600049184041002805F1FF35F9DACDE9081076
:1045700011E600231D4613E6A8EB0308662234E685
:1045800000213CE608F10105102DA8BF10251021DF
:10459000079100204FF00061CDE90A01DDE90A1022
:1045A000A5B9089D4919099D40EB0505B5F1805F46
:1045B0001BD2CDE90815662A40F09980002B23DC38
:1045C00030218DF84C100DF14D052FE0490841EADE
:1045D000C0714008CDE90A100AA8CDE90423013DC5
:1045E0001BF0B0FBDDE90423D8E7490841EAC571B7
:1045F00008A86D08CDE90423CDE908151BF0A2FB3E
:10460000059B049A0133D6E713AD079900290BDD0A
:1046100007A908A8CDE904231BF0ACFB059B05F80E
:10462000010B013B049AF0D10F9300239DF8381041
:10463000890602D4B8F1000F1DDD2E2105F8011BFB
:104640009BB1B8F1000F16DD59424145A8BF414664
:104650009DF83A000F910029A8EB0108D4BF002172
:10466000012161F345108DF83A00B8F1000F02DD29
:104670000799002956DC0399002963D1CDF84080C1
:1046800002F0DF01452921D1002B2946B8BF5B424A
:1046900001F8022BB4BF2D222B22632B6A7009DD97
:1046A0006420B3FBF0F202F1300CE91C85F802C083
:1046B00000FB12330A200D46B3FBF0F200FB12336D
:1046C00002F1300C303305F802CB4B700F9B002BFE
:1046D00043DC109B002BD4BF002301239DF83A201C
:1046E00063F3861200238DF83A202B70F8E507A9B2
:1046F00008A8CDE904231BF03DFBDDE904239DF868
:1047000038108DF84C00302818BF03F1FF338806AD
:1047100002D4B8F1000F12DD2E218DF84D100DF1ED
:104720004E05A2E707A908A8CDE904231BF022FB48
:1047300008F1FF38DDE9042305F8010B95E70DF1D9
:104740004D0598E700211091284615F8011D3029E4
:10475000FAD02E2918BF054692E70123BEE74B4D3C
:1047600007466A1FBDE5010748BF0133C2E5514650
:1047700040460392C8470028039ABFF6DFAD1BB03E
:10478000BDE8F08F4FF02008D7E54FF03008D4E5B2
:104790009046039B4746434418F8010B70281ED1EE
:1047A0001E46109B03EB0608A8EB0603002B3BDC20
:1047B0002B463A46514648461BF039FB0028DEDBC3
:1047C000304406468344ABEB0603002B7FF741AC35
:1047D00051462020C8470028D1DB0136F3E7514677
:1047E000C8470028D5DACAE75146C8470028BFF6AF
:1047F000C6ADC4E751463020C8470028BFF6D1AD4A
:10480000BDE751463020C847013FD8E55146C8476B
:104810000028B4DB474606EB080318F8010BA0F1AB
:104820003002092AF2D9BBE751463020C847002898
:10483000A5DB0136B8E7D80601D4190707D55146DC
:1048400030200392C847002899DB039A01369DF86F
:104850003A30DB0608D59DF83B0003925146C84725
:1048600000288CDB039A01360F9F3744BB1B002BBB
:1048700001DC2B469EE7514630200392C8470028B2
:10488000FFF67DAF039A0136F0E700BF94650200A2
:104890001FB507240294044C0194BDF818400094FD
:1048A0001EF05BF804B010BDF90900200C4BF0B409
:1048B0005F6A0C4E0C4BB34203D36FF08500F0BC23
:1048C00070475D68BD4209D31C693CB195F802C0D0
:1048D0000579AC4502D12346F0BC18472433EAE7FA
:1048E00044400020A80D0020840D00202DE9F04751
:1048F000134CDFF85080DFF8509005460E461746FF
:10490000444503D36FF08500BDE8F0876268D9F8AD
:1049100024309A4212D3A36983B1907829798842CE
:1049200005D13A4631462846BDE8F0471847527946
:10493000012A03D13A463146284698472434DFE716
:10494000840D0020A80D0020444000202DE9F041F6
:104950000B4CDFF8308005460E461746444502D31F
:104960006FF0850009E063690BB92434F6E73A4635
:104970003146284698470028F7D1BDE8F08100BFAE
:10498000840D0020A80D002007B583788DF8003035
:104990000379427943EA0223ADF80230C3786846CE
:1049A00003F003038DF8043015F094FF10F1780F35
:1049B00004D018B1002003B05DF804FB9DF800009E
:1049C00016F00EF810F1780F01D00028F2D1024B4A
:1049D000012083F8B900EEE7444000200248082295
:1049E00000211BF0DCBE00BFFF40002070B50B4B68
:1049F0000B4CA34201D3002070BD196A1E7F002218
:104A00000439D5B2AE4201D82433F2E7013211F8AD
:104A100032508542F5D10120EEE700BF840D002021
:104A2000A80D0020094808B50378C3F341130A33E1
:104A300050F823303BB100F1080200F11001984713
:104A4000C043C00F08BD1846FCE700BF444000202B
:104A500004282DE9F047DFF8888004460E460ED181
:104A6000FFF7BCFFDFF87C9099F8B9305BB100F03C
:104A7000B5FD042C01D0012C05D11B4D16E00528F5
:104A8000F0D00128EED0184D45451ED3154B1B6ABA
:104A90001BB331462046BDE8F0471847D5F820A0A3
:104AA00000272A7FFBB29A4203D824354545F5D327
:104AB00007E00AEBC3030137187915F0BBFF0028A4
:104AC000EFDA002389F8B930DDE7EB681BB1324635
:104AD0002146284698472435D6E7BDE8F08700BF31
:104AE000A80D002044400020840D002073B5C4B2FE
:104AF00063060D468DF8074007D02046FFF776FF86
:104B000088B10F4B93F8BA0068B10D4E204665B1DD
:104B100015F002FFF3690BB9012004E008200DF144
:104B200007019847284602B070BD15F01DFFF369D4
:104B3000002BF1D00DF1070109209847ECE700BFE9
:104B4000444000202DE9F047A84EB36905460F46C2
:104B5000904663B9287800F01F00012800F0A68075
:104B6000022800F00E8138B16FF0150095E09847EB
:104B70000028EFD1002090E095F900206B78002A02
:104B800031DA062BD8F8002010D0082B25D0002BC6
:104B9000EAD101215370117096F8C310002918BF93
:104BA000022343F00103137002231AE06B881A0AF0
:104BB000111F0129D8D9072AD6D8D9B2736A1C780F
:104BC000002CD1D05D78954203D1814200F0128152
:104BD00001302344F3E71B7812E196F8BA301370E2
:104BE00001233B6059E0013B082BBDD801A252F8DC
:104BF00023F000BF8D4C0000694B00009F4C00006B
:104C0000694B0000194C0000694B0000694B000023
:104C1000694B0000254C0000A87815F049FE0028DB
:104C2000A8D0A1E76C8844B14FF0FF08776A002054
:104C3000C1463C786CB9002896D0FFF7CFFE6B8850
:104C400086F8BA30F369002B94D06949032098475D
:104C500090E77B78042B0CD0052B0DD0022B05D1CF
:104C600097F805806A88424508BF01203B781F44B9
:104C7000DFE797F80390F9E76B884345F6D1B9F180
:104C8000000FF3D13846FFF77FFEEFE76B88012B6B
:104C90007FF46AAF002086F8C300BDE8F0876B8818
:104CA000012B7FF461AF86F8C33063E796F8BA3022
:104CB000002B3FF459AF746AB5F804C02879234635
:104CC0001A78002A3FF450AF5978022904D193F89A
:104CD00004E0864500F296801344F1E710705070AE
:104CE0003960DAE70C449BE00B287FF43DAF0027E6
:104CF0004FF0FF0AD046B94606E06378042B0FD088
:104D0000052B22D023781C442378002BF5D1F3699E
:104D100013B1494607209847002F7FF42BAF23E7B4
:104D200094F802A0AA8894F8038092455346E9D1EA
:104D3000698888451FFA88F2E4D1072B1ED83344CE
:104D4000A14683F8BB200127DCE7AB885345D9D1C6
:104D5000AB7843450DD0A778384600F021FC3846A3
:104D600015F068FE10F1780FEDD0B0FA80F77F09EA
:104D7000C8E72046FFF708FE0746C3E7A14600271D
:104D8000C0E795F900206B78002A19DA002B7FF430
:104D9000EBAE2C7963060AD02046FFF727FE0028E9
:104DA0003FF4E2AE96F8BA30002B3FF4DDAED8F80F
:104DB00000502046294615F0F7FD00206870F3E604
:104DC000012B08D0032B7FF4CFAE6B88002B7FF430
:104DD000CBAE012103E0698800297FF4C5AEA88825
:104DE000FFF784FE00287FF4C5AEBDE644400020F6
:104DF000FE400020022AC8F800307FF4ECAE5B8849
:104E00003B60B7E695F900306878002BBFF66CAFD1
:104E1000D8F8002000283FF461AF0A287FF4A4AE40
:104E2000217800293FF4A0AE6378042B7FF45AAFB9
:104E3000A3789C457FF456AF072B96BF9B190023A0
:104E400093F8BB3013700123DAE700BF13B5134C9E
:104E5000237DCBB9E268A168019201AB80201BF0F1
:104E6000FCF8019AA3681344A360E3689B1AE3600B
:104E700043B93AB12369E2889A4203DD9B0601D126
:104E80000123237502B010BD00231A461946802065
:104E9000237502B0BDE8104015F0F2BD444000207B
:104EA00030B585B0002302460D46019300285FD13E
:104EB00000293CD108220B460DEB02011EF01DFA21
:104EC000002804DA802015F027FD05B030BD2D4CF8
:104ED0009DF809309DF808206370BDF80A306380A2
:104EE000BDF80C302270A38004F13801BDF80E30FB
:104EF000E3801206C4E90355A16025750AD4802B0E
:104F000004D9802015F008FD0020DCE713B1C4E9C6
:104F10000333DAE7FFF786FD0028D3D0E288236960
:104F20009A42D4BFE260E360FFF790FFCDE7154CF3
:104F3000D4E90215002D01AB04DC1EF0DEF90028D7
:104F4000C3DABFE72A461EF0D8F90028D9DB019959
:104F5000A268E3680A445B1AA260E360002BB4D144
:104F600004F13803A360FFF75DFD0028DCD1A9E759
:104F70008028AAD1034BDA68002AD5D11B7D002BEB
:104F8000D2D1A2E744400020054B064A9A62064A65
:104F9000DA62064A1A63064A58629A61002070472C
:104FA00044400020454B0000AD4800004D49000042
:104FB000ED480000084B10B593F8B84034B900F044
:104FC000A3F930B1FFF7E0FF204610BD6FF0770086
:104FD000FBE74FF0FF30F8E7444000202DE9F341B4
:104FE0000446354D35484FF0FF324FF0FF3319F08E
:104FF000D7F995F8B860002E5BD131482C62E86192
:1050000015F054FE15F016FC041E36DB00F00EFB06
:10501000041E32DB40236846ADF802308DF8046090
:105020008DF8006015F056FC041E26DB80276846CC
:105030008DF8007015F04EFC041E1EDB2149304631
:1050400015F020FE041E18DB1E49384615F01AFE26
:10505000041E12DB1C4CDFF87480444514D300207E
:1050600015F0BEFC041E08DB802015F0B9FC041E00
:1050700003DB012385F8B8300024104819F008FA42
:10508000204602B0BDE8F081276A0026227FF3B2F5
:105090009A4201D82434E0E707EBC30257F83310F3
:1050A000107915F0EFFD01360028EFD04FF0FF34F6
:1050B000E3E76FF07704E0E744400020280B00208E
:1050C000514A0000A14E0000840D0020A80D0020D0
:1050D00030B51F4B8BB005AA03F11005186859684D
:1050E000144603C40833AB422246F7D11B78237021
:1050F0001022002101A81BF052FB122200211548AA
:105100001BF04DFB102101A81EF002FA00281BDD48
:105110000828B8BF0820083801AB0E4A18440021FF
:1051200010F8013B0AAC04EB131403F00F0328330F
:105130006B44013114F8144C13F8143C1470082912
:10514000537002F10202EBD102480BB030BD00BF38
:10515000B0650200906100202DE9F04F044685B053
:1051600000254FF0011BA9462E46AA46207820B9FB
:10517000614B02349C421FD0F2E76378052B05D8BF
:10518000DFE803F0780403780720A24623781C4464
:10519000ECE7E378002BF9D1A37883B109F1010999
:1051A0005FFA89F9F2E77268944200F09D80243634
:1051B0009E42F8D34FF0FF3005B0BDE8F08F4F4E60
:1051C0004F4BF5E7002EF5D000230121327F9342AB
:1051D000F0D2326AA77802EBC3021079874201D07D
:1051E0000133F3E70127E07894F805C000F00300ED
:1051F0008DF80C00207940EA0C20ADF80A0094F9F3
:10520000020000285FFA87F828DA07F1100001FA97
:1052100000F010EA0B0F29D168F07F008DF808002C
:1052200002A8CDE900321EF050F8DDE9003201217C
:10523000E0B99DF80830A37013F0800F1CBF08F18F
:1052400010085FFA88F813710B4615BF01FA08F8C9
:10525000BB404BEA080B4BEA030B97E701FA07F058
:1052600010EA0B0F02D18DF80880D9E70137102F13
:10527000B9D1B5E7032D1DD1FFF72AFF074668B165
:105280001BF055FA804648B11E481BF050FA804585
:1052900004D142463946A01C1BF076FA23786FF001
:1052A0000201E218091B04EB5303D14213D5013567
:1052B000EDB26BE7002DF1D1BAF1000F3FF47AAFF8
:1052C000A4EB0A038AF80230C3F307238AF80330F9
:1052D0008AF80490EBE74FF0000002F8010C13F895
:1052E000010902F8020DE0E7B368002B3FF456AF66
:1052F00049462046984751E7810D0020840D002043
:10530000A80D0020B065020008B50448FFF724FF8F
:105310000028024818BF002008BD00BFBC0C0020B8
:1053200010B5094B00211A461C78844205D15C68EF
:105330001CB1482000FB012010BD0131042903F1FC
:105340004803F1D10020F7E7084100202DE9F3419F
:1053500050F8303C10F8346C1033044610D1036917
:1053600050F8282C99073CD502BB13F0040304D154
:105370001A46194630461AF070FE002344F8303CB5
:1053800054F8303C10330ED054F8205C5DB154F822
:10539000247C54F81C8C1EF0CAFD00284CD02E48EA
:1053A00021461EF03BFF02B0BDE8F08150F82C1CF6
:1053B00001AB30461AF051FE10B16FF01503DDE776
:1053C000019A54F82C3C134444F82C3C54F8283CE3
:1053D0009B1A44F8283C54F8243C134444F8243CD9
:1053E000CEE750F82C1C01AB304615F0C1FB00286D
:1053F000E3D1019D54F82C3C2B4444F82C3C54F848
:10540000283C5B1B44F8283C54F8243C2B4444F8CB
:10541000243C002DB1D0304615F04EFCB5FBF0F326
:1054200003FB1055002DA8D154F8283C002BA4D024
:10543000304615F0E5FBA3E744F8200CA4F1180072
:1054400019F09CF854F8303C8C33ACD042463946C5
:105450003046A847A7E700BF280F00204B1E012BAE
:1054600073B506460D460FD8FFF75AFF044668B9D4
:10547000012D09D101AB01220DF10301304615F0D8
:1054800077FB019B002BF5D102B070BD1EF04FFDE4
:1054900004F1340108B1012D05D1084602B0BDE880
:1054A0007040FFF753BF034802B0BDE870401EF0E4
:1054B000B5BE00BF280F00202DE9F74F0646019129
:1054C000154698461AF011FE044600285FD14FF0A9
:1054D0002003EFF3118A83F31288BFF36F8FDFF895
:1054E000B4B04FF0480909FB04F7002200235846E6
:1054F00019F06AF868B9DFF8A09009EB070463684F
:1055000013F1100F14D10193584619F037F8019B8D
:1055100006E00134042C0BF1480BE4D16FF00B03CF
:105520008AF31188BFF36F8F184603B0BDE8F08F80
:10553000019B2061C4E902350C9B63610D9BA36153
:105540006FF00F0309F80760C4F8448063603046C9
:1055500015F0B2FB58B1304615F0AEFBB5FBF0F2DA
:1055600002FB10551DB1636C43F00403636418F033
:10557000020F07D03437094809EB07011EF04EFE31
:105580000023CDE7304615F03BFB0346C8E76FF03C
:105590000F03C9E72441002008410020280F002004
:1055A00010B54FF02003EFF3118483F31288BFF39B
:1055B0006F8FFFF7B5FE50B14368103307D16FF01E
:1055C0008B03436000F1340103481EF027FE84F38F
:1055D0001188BFF36F8F10BD280F00202DE9F04117
:1055E000104CDFF8448004256FF08B074FF0200348
:1055F000EFF3118683F31288BFF36F8F6368103364
:1056000005D104F13401404667601EF007FE86F3C1
:105610001188BFF36F8F013D04F14804E6D1BDE866
:10562000F08100BF08410020280F002070B50A4C0F
:105630000A4E0025314620461EF0E7FD0122A4F166
:105640001800114601351EF060FD042D04F14804D8
:10565000F0D1002070BD00BF3C4100204D53000040
:1056600070B504460E460179124815461AF019FD28
:10567000E8B194F900206378002A11DB202B04D0D4
:10568000222B09D06FF0850005E0296807220C382D
:105690001BF07AF8002070BD638800F8053CF9E73C
:1056A000212BEFD10C38072328603360F2E76FF02D
:1056B0001200F0E72842002008B5014603481AF01E
:1056C000FEFC10B1012300F8033C08BD2842002075
:1056D0000169012381F82B300B6833B191F829302F
:1056E0001BB1024808311EF099BD7047280F0020F9
:1056F0000169012381F82A300B6833B191F8283011
:105700001BB1024808311EF089BD7047280F0020E8
:105710000B4A03460021A0F87E10018510685867E7
:1057200090889279A3F8780083F87A2083F87C1027
:1057300083F87B10402203F12C001BF030B800BF2F
:10574000364C020038B5056995F87E0070B195F8C1
:105750007F3063B985F82830286F1AF0DBFB05F13C
:105760001801044603481EF059FD204638BD0020AC
:10577000FCE700BF280F002073B5144602F12C0689
:105780000A1E054610DDE06E31461AF0C3FB012308
:1057900084F8293023683BB194F82B3023B10848B2
:1057A00004F108011EF03AFD064B00930194012319
:1057B000402231462846FFF77FFE02B070BD00BF91
:1057C000280F00207957000013B504698DF80710E1
:1057D00094F87E308BB194F87F3073B90DF10701E6
:1057E000206F84F8283001221AF094FB014630B172
:1057F0000A4804F118011EF011FD02B010BD206F1F
:1058000001221AF0EFFB0028F7D0206F01220DF1E2
:1058100007011AF07FFB0028EAD1EEE7280F0020ED
:10582000012382F82830136810B514463BB192F872
:105830002A3023B1084802F108011EF0EFFC206F66
:105840001AF00EFB30B904F118010348BDE810400E
:105850001EF0E4BC10BD00BF280F00207FB5836E92
:105860005B681B6A1E7D054630461AF03EFCD0B9C7
:10587000A86D4FF4806203A91AF06BFB044690B147
:105880008306A5F1180308BF00F1FF340193074B0D
:1058900003990093224602233046FFF70DFEA86DC0
:1058A00021461AF081FB04B070BD00BF21580000F2
:1058B00038B50D46014624481AF0E7FB044680B38C
:1058C0000246691E52F880395B68052929D8DFE84D
:1058D00001F020280320252914F8021C31B91B6A85
:1058E000187BFFF749FF012304F8023C14F8583CE9
:1058F000BBB9012304F8583C54F8803C8BB114F830
:10590000563C73B1A4F178011048BDE838401EF050
:1059100085BCBDE838401046FFF7FABE012304F805
:10592000013C38BD14F8011C0029FAD014F8020C0F
:10593000002104F8011C0028F3D01B6A187BBDE885
:105940003840FFF719BF00BF28420020280F002071
:1059500010B504690023C4F884300C4BC4F88000EF
:10596000596804F1840269B9C3E9002204F108000E
:1059700007491EF04AFC04F1180006491EF045FCD8
:10598000002010BD0A605A60F0E700BF28420020E6
:10599000150102005D58000030B585B0A1230569EE
:1059A0008DF80430202342688DF80530002385F8F7
:1059B0007D300220ADF80A00106AADF80C10ADF889
:1059C00008300079ADF806300A2201A91AF045FB2B
:1059D000054C95F87D3023B901201EF0BAFD013C3D
:1059E000F7D105B030BD00BFA186010037B5094D24
:1059F0000949002400944FF0FF334FF48062284699
:105A000018F02EFF054928461EF097FA204603B0ED
:105A100030BD00BF280F002000700020CB650200C1
:105A20002DE9F84305464FF02003EFF3118683F389
:105A30001288BFF36F8F0E4B1C689CB10D4FDFF8BF
:105A400038804FF00C09D4E90132002D08BF13460D
:105A50002BB198F8142009FB02F2B85C984724682F
:105A6000002CF0D186F31188BFF36F8FBDE8F88367
:105A700030420020384200203461002042090123D6
:105A800000F01F0003FA00F0074BBFF35B8FC04329
:105A900003EB820353E8002F024043E80021002972
:105AA000F8D1BFF35B8F70474442002030B51D4BE7
:105AB0001C7DBFF35B8F04F01F0301229A401A4B39
:105AC000610985B0D04303EB810353E8001F01EA6D
:105AD000000543E8005CBCF1000FF6D1BFF35B8F1B
