:10100000006C0020CD8A00001D490200A18A00006A
:10101000A18A0000A18A0000A18A0000000000004F
:10102000000000000000000000000000F983000044
:10103000A18A000000000000A5830000A18A000032
:10104000A98400007DA20100A9840000A9840000F9
:10105000A9840000A9840000A9840000A9840000DC
:10106000A9840000A9840000A9840000A9840000CC
:10107000A9840000A9840000A9840000A9840000BC
:10108000A9840000A9840000A9840000A9840000AC
:10109000A9840000A9840000A9840000A98400009C
:1010A000A9840000A9840000A9840000A98400008C
:1010B000A9840000A9840000A9840000A98400007C
:1010C000A9840000A9840000A9840000A98400006C
:1010D000A9840000A9840000A9840000A98400005C
:1010E000A9840000A9840000A9840000A98400004C
:1010F000A9840000A9840000A9840000A98400003C
:1011000053B94AB9002908BF00281CBF4FF0FF316E
:101110004FF0FF3000F074B9ADF1080C6DE904CE6A
:1011200000F006F8DDF804E0DDE9022304B07047C2
:101130002DE9F047089E0D4604468846002B4DD108
:101140008A42944668D9B2FA82F252B101FA02F3A5
:10115000C2F1200120FA01F10CFA02FC41EA030875
:1011600094404FEA1C45210CB8FBF5FE1FFA8CF7A2
:1011700005FB1E8341EA03430EFB07F199420BD99D
:101180001CEB03030EF1FF3080F01E81994240F208
:101190001B81AEF1020E63445B1AA4B2B3FBF5F0FF
:1011A00005FB103344EA034400FB07F7A7420AD9C2
:1011B0001CEB040400F1FF3380F00881A74240F2E9
:1011C000058164440238E41B40EA0E4000211EB150
:1011D000D4400023C6E90043BDE8F0878B4208D91C
:1011E000002E00F0EE800021C6E900050846BDE8AB
:1011F000F087B3FA83F100294AD1AB4202D382428D
:1012000000F2F980841A65EB030301209846002E52
:10121000E2D0C6E90048DFE702B9FFDEB2FA82F2A7
:10122000002A40F09180A1EB0C054FEA1C471FFA01
:101230008CFE0121B5FBF7F307FB1350250C45EAA3
:1012400000450EFB03F0A84208D91CEB050503F18D
:10125000FF3802D2A84200F2CB8043462D1AA4B236
:10126000B5FBF7F007FB105544EA05440EFB00FE02
:10127000A64508D91CEB040400F1FF3502D2A645AF
:1012800000F2BB802846A4EB0E0440EA03409EE730
:10129000C1F120078B4022FA07FC4CEA030C20FA2C
:1012A00007F405FA01F31C43FD404FEA1C4900FA1C
:1012B00001F3B5FBF9F8200C1FFA8CFE09FB185559
:1012C00040EA054508FB0EF0A84202FA01F20BD9EC
:1012D0001CEB050508F1FF3A80F08880A84240F237
:1012E0008580A8F1020865442D1AA4B2B5FBF9F077
:1012F00009FB105544EA054500FB0EFEAE4508D932
:101300001CEB050500F1FF346CD2AE456AD90238FA
:10131000654440EA0840A0FB0294A5EB0E05A542F7
:10132000C846A64656D353D05EB1B3EB080265EB70
:101330000E0505FA07F722FA01F3CD401F43C6E96F
:1013400000750021BDE8F087C2F1200320FA03F107
:101350000CFA02FC25FA03F395400D434FEA1C47B3
:101360001FFA8CFEB3FBF7F107FB11302B0C43EA9D
:10137000004301FB0EF0984204FA02F408D91CEB7A
:10138000030301F1FF382FD298422DD9023963446B
:101390001B1AADB2B3FBF7F007FB103345EA034568
:1013A00000FB0EF3AB4208D91CEB050500F1FF383A
:1013B00016D2AB4214D902386544ED1A40EA014115
:1013C00038E73146304607E78646E5E61846FAE64E
:1013D0004B45A9D2B9EB020864EB0C0E0138A3E728
:1013E0004046EAE7204694E74146D1E7D0467BE70E
:1013F000023B654432E7084609E76444023842E7A5
:10140000704700BF0000000070B5464DD5F854315C
:10141000996811F0010188B023D102AA40F6034077
:1014200008F0A2FC0446002879D1029B9B681B7837
:10143000A3B909F08BFEBFF35B8F2B4653F8CC2F7B
:10144000BFF35B8F02F00502BFF35B8F53E8001F11
:1014500043E800200028F9D1BFF35B8F02981BF00E
:1014600083FD02AA002141F2030008F07DFC04463E
:10147000002854D1029B2C4899680822013123F09E
:101480008EFA02981BF070FD214602AA41F201007B
:1014900008F06AFC0446002841D1029883685A7813
:1014A00085F86820D9789A7842EA0122A5F86A205E
:1014B0001A7985F86920197ADA7942EA0122A5F8C1
:1014C0006C205A799B7942EA0323A5F86E301BF011
:1014D0004BFD214602AA41F2020008F045FC0446F9
:1014E000E8B9029B114899684022013123F057FA6C
:1014F0000E4823F0FEFA02981BF036FD95F8743082
:101500005A0619D40A4B06930A48022305AA4FF437
:1015100082516FF012040193059323F091FB204652
:1015200008B070BD0000002070000020780000208E
:1015300012B5020070890200214602AA42F203009D
:1015400008F012FC04460028E9D1029BBC489968C7
:101550000822013123F023FA02981BF005FD2146F1
:1015600002AA42F2020008F0FFFB04460028D6D18E
:10157000029B9B68B3F80120A5F8FC2091B221B131
:10158000DA78B048114626F0F8FB02981BF0ECFC24
:1015900095F8746016F0200600F0F98095F8943004
:1015A0001B0712D502AA002142F21C0008F0DCFB46
:1015B00004460028B3D102988368D3F80120D3F8F9
:1015C0000530C5E936231BF0CFFC95F8D0309E06D8
:1015D00022D501A9684608F047FC044600289ED1A0
:1015E000042142F2240008F05FFA0646002800F0C9
:1015F000D5800421083025F057FDBDF80030038068
:10160000BDF8043043802246314642F2240008F0FF
:10161000ABFB0446002882D195F8D0305C0610D58B
:1016200002AA002142F22A0008F09EFB044600288C
:101630007FF475AF029883685B7885F818311BF0EA
:1016400093FC082142F2010008F02EFA044600281B
:1016500000F0A4800821084425F026FD95F8D0105C
:1016600011F0400F024640F2022308BF032388070F
:101670004CBF43F02C0043F00C008B0695F8D130A2
:1016800048BF40F0400013F0090F95F89A3018BF9A
:1016900040F4006003F00603CE0748BF40F010009E
:1016A000062B08BF40F4C070002123F0DAFA21466F
:1016B000002242F2010008F057FB044600287FF4A4
:1016C0002EAF95F87430B5F8FC1098067BD4D9B9D4
:1016D00002AA41F2050008F047FB044600287FF407
:1016E0001EAFB5F8FC3063B9029B9B685A789978B5
:1016F00042EA0122A5F8FC209A885248114626F0B9
:101700003CFB02981BF030FC082140F6014008F039
:10171000CBF90446002841D00821084425F0C4FC38
:1017200095F8D030D90702465DD543A1D1E9000133
:1017300023F097FA2146002240F6014008F014FBFE
:10174000044600287FF4EBAE01466A464FF601409E
:1017500008F00AFB0446002849D03B4B06933B485F
:10176000022305AA4FF484510193059323F068FAEC
:1017700009F02CFC044600287FF4D1AE0AF03EFFAD
:10178000044600287FF4CBAE08F0ECFFC7E6022148
:1017900040F66D4008F088F9044610B96FF068040F
:1017A000BDE60221083025F07FFC0123037046705E
:1017B0002146324640F66D4008F0D6FA044600282D
:1017C0003FF4ECAEABE600299ED1214B06931F48B7
:1017D000022305AA4FF48251019305936FF004048C
:1017E00023F02EFA9BE61B484FF00051A0E700982B
:1017F0001BF0BAFB21466A464FF6024008F0B4FAE5
:10180000044608B1144BA9E7009B144899680222CA
:10181000013123F0C4F800981BF0A6FB95F8B9300D
:101820005B07A5D56A4621464FF6034008F09CFAAF
:10183000C0B10B4B92E700BF9088000200800020EF
:10184000D00000200001002059B50200708902007C
:1018500036B50200108800027DB50200B9000020F4
:10186000A6B50200009B054899680122114423F0A7
:1018700096F800981BF078FB7AE700BFB8000020CC
:1018800038B5194C9DF810E094F844C01CF00105DF
:1018900022D163F3420C400194F83230A1874FEA21
:1018A000CE0E0EF0180E00F0200040EA0E0023F0DD
:1018B000380303430D4884F83230A2FB0001912322
:1018C00003FB021106A3D3E9002384F844C0FFF709
:1018D00017FC2064284638BD0C25284638BD00BFBB
:1018E0008D49FD1A07000000502A0020002AE784D5
:1018F00010B59DF808C0044649014FEACC0000F03D
:10190000180001F0200CA17D22844CEA000C0C4848
:1019100021F038014CEA010C9122A3FB000102FBEB
:10192000031184F816C004A3D3E90023FFF7E8FBF2
:10193000606210BDAFF300808D49FD1A0700000002
:10194000002AE784000000002DE9F047044600F17A
:10195000350190F8440094F83230C0F3400060F351
:1019600086138CB084F8323010F09EFF94F8322049
:10197000A38F4948E46102F079020025A3FB00012E
:1019800084F83220912202FB0311C4E9055540A3DB
:10199000D3E900232570FFF7B3FB3123C4E90153DA
:1019A000236CE5600933A0F13102934232BF236119
:1019B00022612564064610F043FF236A07460DF1B5
:1019C0002C08002B4BD0354D354BCDF8208006949C
:1019D000651BA3FB05353048A38F4FF0000AA3FB1E
:1019E00000019122CDF80CA002FB0311236904939E
:1019F0002C4B07932C4B05934FF0020924A3D3E9FA
:101A00000023CDF82C90FFF77BFB104619464FF4CE
:101A10007A720023FFF774FB2D094D44EDB22A467C
:101A2000CDE901603B460321CDF800A0504610F0FF
:101A3000DDFD414613F056FA054660B994F844308E
:101A400043F00103484684F8443018F037F828463C
:101A50000CB0BDE8F0870C200CB0BDE8F087CDE9F4
:101A60000A33216943460AAA032002F0FDF80B99C4
:101A70000029A8D00D4806A3D3E90023A1FB00014B
:101A8000FFF73EFB0A9F20F07F4007449BE700BF23
:101A90008D49FD1A07000000002AE784502A002023
:101AA000398EE33801450100DD56010000CA9A3B3A
:101AB0002DE9F04390F8BCE090F8BBC0E6458BB050
:101AC00004460E4615462ED0ACEB0E0C0CF0030C63
:101AD000BCF1020F0CD094F8183194F819219B1A1C
:101AE000DBB2012B00F07A8100200BB0BDE8F0835F
:101AF00094F8852194F884319A4206D094F886317E
:101B000003F00603042B00F0A28394F8BD707B1E43
:101B1000052B00F24B83DFE813F01F001F03950233
:101B200049035A02CB0190F83E3113F00108D2D19B
:101B300090F8E51090F8E4208A4200F045830123F4
:101B400090F8842180F8BD3090F88531AEF1020C18
:101B50009A4280F8BCC0D1D1E38D678E1F4494F8BF
:101B6000E630BFB2EA1913F0070192B240F0B58334
:101B7000B4F8C050521B10041FFA82F9ABD494F889
:101B80005C2194F85D3194F8BB0084F8BC0093426A
:101B900094F8E40084F8E50009D094F85E3103F08D
:101BA0000F03062B04BF84F85D21A4F8AC10B44BDE
:101BB000D4F8E0801A68944204BF00221A60B8F199
:101BC000000F00F00287D8F80000002800F0FD8622
:101BD000628DB4F8E8304168C4F8E0109342B4F87C
:101BE000EA2000F00D87B4F8EC10B4F828C0A8F88B
:101BF0001E30182388F804300023A8F806C0A8F87F
:101C00002020A8F8221088F81C30414613F0F2F882
:101C100013F0FAF8A368002B09DAE068626823F091
:101C2000004390422CBF3118B118A360CE1A638DC7
:101C3000B4F8E88013FB09F39BB2B3FBF8F118FB8F
:101C400001F292B293421FFA81F980F0AC86D31A66
:101C50008C4940F2E24202FB03F3A3FB010186A39D
:101C6000D3E90023FFF74CFA20F07F431E44E38DB5
:101C70001D4494F93930EF1B4F4440F2E245002BEC
:101C8000E78505FB08F5C0F29A87D4F8F0107D4887
:101C900079A3D3E90023A1FB0001FFF731FA20F07B
:101CA0007F4701377849B4F8EC20B4F8EA00774B65
:101CB000A4F82A802944B1FBF5F1A4F8AA1042F255
:101CC000107101FB02522B44013A811DB2FBF5F267
:101CD000B3FBF5F3A4F8A6209AB28A42A085A4F833
:101CE000B22004DDC0F57F40FA30024492B294F88D
:101CF000E630A4F8AE201A0744BF0023A4F8A830A9
:101D0000022101201AF074FE0022022181460120E6
:101D10000FF05CFA5E494FF4DC7220460FF0E6F9F2
:101D200000F103085FFA88F85A4B009442460121FB
:101D3000002010F0E5FC30F002030CD0564A574961
:101D4000574840F6CB4320F0DDFC404080F311883B
:101D50004FF0030002DF0894069423690493494C72
:101D6000504B0793504B0593A5FB04544FF6FE735D
:101D70000393284640A3D3E900232146FFF7C0F987
:101D8000104619464FF47A720023FFF7B9F93AA3C7
:101D9000D3E90023029021462846FFF7B1F93346E4
:101DA000CDE9007042460121002010F01FFC30F008
:101DB00002030CD0384A3949394840F6E54320F04F
:101DC000A1FC404080F311884FF0030002DFB9F11D
:101DD000000F40F0D5866FF08B0086E633480FF099
:101DE0004FF900283AD094F81931013B84F81931A1
:101DF00003790222427143F003030371C271D4F8E4
:101E00009C3194F81A210272C3B194F83E219107D3
:101E100014D494F89721D20710D4D4F8A82193426F
:101E2000D4F8A02100F0E1866AB91A7902F0030221
:101E3000032A01F09180C4F8A03106E0D4F8A02173
:101E4000002A00F01384D4F8A4311A6802601860E4
:101E50000368C4F8A401002B00F0FD81B4F8AC00C5
:101E600000287FF441AEB4F8A630012B40F2E6839F
:101E7000A4F8AC3038E600BF8D49FD1A0700000019
:101E8000AC2A002000CA9A3BFF5962027FC3C901F5
:101E9000A0190020FD5D01008C970200A8980200A7
:101EA00020920200A55D01007D890100402B0020E9
:101EB000E18D628E94F8C0300A442A4495B2DA0764
:101EC000194600F16F82B4F8C220AD1A28043FF51C
:101ED00002AE94F8462094F8478094F8BB00B4F81A
:101EE000447084F8BC0013F01C0F02F0070908F0DE
:101EF000070840F07B85B4F8426013F0E00F08D08B
:101F000094F847205B0963F3020284F847204FF4FA
:101F1000A477D4F8E050002D00F0908528680028C0
:101F200000F08C85436894F84720C4F8E03094F8BA
:101F30004630890703F0070302F0070202D49945EF
:101F400000F06F86218D6B771C232B710023E980B5
:101F5000AA772B77294612F04DFFD4F8E050002DD8
:101F600000F0FA852868002800F0F685B4F84230C1
:101F70004268C4F8E020B3420AD3B3F5A47F07D87F
:101F8000B4F84430BB4203D3B3F5A47F41F21280CE
:101F9000A4F84260A4F844702B7F228DEA804FF0B1
:101FA000030C43F00303092185F804C069772B77FC
:101FB000B4F840302B84E38FAB8415232946EB77AC
:101FC0006F84EE8412F016FF12F01EFF83E5CB48FB
:101FD0000FF056F800283FF47EAD94F8BB3084F83B
:101FE000BC30012302794371D4F89C3142F00302E2
:101FF00012210271C171002B00F0418394F83E213F
:10200000950700F13C8394F89721D10700F13783BD
:10201000D4F8A8219342D4F8A02100F05487002AD4
:1020200000F0DD87D4F8A4311A68026018600368F4
:10203000C4F8A401002B00F09F85B4F8AA30A4F8DE
:10204000AC3048E594F8CC3013F003057FF443AD91
:10205000AA480FF015F8064600283FF43CAD94F965
:102060003930002B80F2168394F85E30190700F1A6
:10207000F58594F8CD50002D40F0B08604F15F074F
:102080003B462A4604F1CE0104F2491019F0E6FF5E
:102090001022394604F1800022F081FC082204F16C
:1020A000780104F1990022F07AFC94F8773094F8E2
:1020B000982084F86F5043F0010384F8773094F847
:1020C0005E3084F8705065F30002012143F008038C
:1020D00084F8982084F85E30C4E9245584F871505F
:1020E00084F8725084F8735084F8745084F87550F2
:1020F00084F8765032797171D4F89C3142F0030241
:1021000005213271F171002B00F00E8394F83E210D
:10211000920700F1098394F89721D70700F104830F
:10212000D4F8A8219342D4F8A02100F0E586002A33
:1021300000F06C87D4F8A4311A6832601E603368EE
:10214000C4F8A461002B00F04C8594F8CC3043F027
:10215000030384F8CC30BEE4628EE18D94F8C03085
:102160000A442A44DB0795B200F1D080B4F8C620B7
:10217000AD1A28043FF5AFAC94F8BB3084F8BC30FE
:1021800004F13405052204F1C101284622F007FCC0
:10219000052128460FF04AF994F83930012260F3FE
:1021A000050384F8393084F8B02194E4544A554941
:1021B000554840F2E14320F0A5FA404080F31188F1
:1021C0004FF0030002DF86E490F8F92090F8F870F1
:1021D000BA4243D190F8112190F81071BA4200F040
:1021E000AE82D21BD0077FF576AC94F81231D907B6
:1021F00040F1A085980740F1988512F029FE01462C
:1022000000B394F8103184F81131238DC380032377
:102210000371037F43F003030377062343770C2303
:10222000C37794F8133180F82030B4F81431A0F853
:102230002130B4F81631A0F82330086812F0DAFD26
:1022400012F0E2FD94F8BBC094F8BCE03CE42046F8
:1022500013F0C8FE59E4C4F8AC01FFE5D21BD10766
:102260007FF539AC90F8BA1011F0010700F00C843A
:1022700012F0EEFD07460028E4D094F8F83084F818
:10228000F930037F228DC28043F0030303770923D3
:102290004377C3770323037141460822203022F09D
:1022A00089FBD4E94223110C87F82020C2F30722CE
:1022B00087F821201A0C87F8243087F82210C3F3FE
:1022C0000723090A87F82620120A87F8231087F8BF
:1022D000253087F827203946AFE74B1E042B01F243
:1022E000218101A151F823F04D2500006D2400004B
:1022F000D71A0000C725000053250000402B0020FE
:102300008C970200B892020020920200CE480EF094
:10231000B7FE064600283FF4DEABA28D94F8C0104D
:10232000037906326FF300012A4484F8C010A4F840
:10233000C62043F003030821012203714171C271D9
:1023400004F1C1010522083022F029FBD4F89C31A8
:10235000B4F8C620A6F80D20002B00F01A8494F8DB
:102360003E21970700F1158494F89721D50700F1D5
:102370001084D4F8A8219342D4F8A02100F0388624
:10238000002A00F02587D4F8A4311A6832601E6054
:102390003368C4F8A461002B7FF49DABC4F8AC6132
:1023A000FFF799BBD4E9120100220EF0D7FE0646D2
:1023B00000287FF490AB022012F02CFD804600280C
:1023C0003FF489ABA0480EF05BFE074600283FF4BF
:1023D00082AB94F8C03066F30003C3F3421646EABA
:1023E000930616F0070684F8C030DBB240F0928501
:1023F00094F8BB20A4F8C2609B0784F8BC2000F1CD
:10240000B385334632467B7205233E727A817B71F7
:102410001822D4F89C31FA713A7942F003023A71E9
:10242000002B00F0168594F83E21960700F11185E7
:1024300094F89721D50700F10C85D4F8A821934290
:10244000D4F8A02100F04E86002A00F00587D4F8C9
:10245000A4311A683A601F60C4F8A4713B68002B6D
:102460007FF439ABC4F8AC71FFF735BBDFF8DC8122
:10247000012012F0CFFC074600283FF42CAB724835
:102480000EF0FEFD054600283FF425AB704B1A68A0
:10249000002A00F0478412F0DBFC3B68D4F8E0200F
:1024A0005A602B79C4F8E07043F003032B710C23BE
:1024B0006B710023EB7194F8F4302B72654AD4F8F9
:1024C000F030A2FB03239B0AA5F80930B4F8E830EA
:1024D000A5F80B30B4F8EA30A5F80D30B4F8EC30BC
:1024E000A5F80F3094F8E630C4F8C860032262F310
:1024F000020384F8E630A368002B0ADAE068626819
:1025000023F0004390422CBF3118B118CB1AC4F805
:10251000C830514B01220935C4F8C450022110467D
:10252000C3E902480EF084FE00283FF4D4AA4B4AC7
:102530004B494C4840F6733320F0E4F8404080F3B8
:1025400011884FF0030002DFFFF7C5BADFF81881EA
:102550008EE794F8BB1084F8BC1094F8E4103C4A61
:10256000D4F8C40084F8E510D4F89C3194F85C11D8
:1025700084F85D1100211160A0F10902002B00F028
:102580007C8394F83E118D0700F1778394F89711BE
:10259000C90700F17283D4F8A8118B4200F0AF850F
:1025A000D4F8A011002900F02F86D4F8A4311968BE
:1025B00040F8091C1A6050F8093CC4F8A421002B0B
:1025C0007FF489AA36E0A38D94F8E600D4F8C450CD
:1025D000D4F89C1106331A4493B26FF30200A4F8A6
:1025E000C030A5F109022B8184F8E600002900F033
:1025F000388394F83E319F0700F1338394F8973184
:10260000DE0700F12E83D4F8A831994200F0EA8564
:10261000D4F8A031002B00F05F86D4F8A4311968FB
:1026200045F8091C1A6055F8091CC4F8A4210029B2
:102630007FF451AAC4F8AC21FFF74DBA0133A4F8D6
:10264000AC30FFF752BA00BF402B0020313E0000F3
:10265000AC2A00205917B7D1540600208C970200ED
:102660009C96020020920200C98F01000360C4E919
:102670006700C4F8A401002B7FF4F0ABEBE5D4F8BD
:10268000A021002A7FF4CEAC0360C4E96700C4F83F
:10269000A401CFE404F15F073B462A4604F1CE01D2
:1026A00004F2491019F0DAFC1022394604F18000D6
:1026B00022F075F9082204F1780104F1990022F062
:1026C0006EF994F8771094F8982094F85E3084F8B6
:1026D0006F50C4E9245523F0180365F3000142F05C
:1026E000010284F8705084F8715084F8725084F8B4
:1026F000735084F8745084F8755084F8765043F021
:10270000180384F8771084F89820012184F85E304B
:1027100032797171D4F89C3142F003020621327192
:10272000F171002B7FF4F2ACD4F8A021002A7FF4E1
:1027300001AD3360C4E96766C4F8A46102E590F8AE
:102740005D7190F85C21974200F02F82C64F3A6885
:10275000002A00F0998390427FF4BDA990F85E2191
:1027600002F00F02082A00F2EE8601A050F822F0D3
:10277000D92800005128000001280000C91A0000D3
:10278000C91A0000C91A0000C91A0000C91A0000BD
:1027900095270000E18D628ED4F878010A442A441E
:1027A00094F85E51D4F89C1120F8022C042262F3B4
:1027B000030584F85E51A0F11302002900F00384A0
:1027C0009D0700F1008494F89731DB0700F1FB834B
:1027D000D4F8A831994200F01A86D4F8A031002B21
:1027E00000F03886D4F8A431196840F8131C1A6038
:1027F000C4F8A42150F8133C002B7FF46CA919E70E
:102800009F073FF568A912F023FB014600283FF41B
:1028100019AD94F85E010B7F032243F0030362F3CA
:102820000300182784F85E01208D0A710B774F771B
:10283000B4F860310B84B4F862314B84B4F864317D
:102840008B84B4F86631CB840F23C880CB77F4E453
:1028500094F85F31002B40F0E38394F93920002A8B
:10286000C0F24C8594F85E21C4F8F030062060F385
:10287000030294F8680184F85E210125B4F862210E
:1028800084F8F450002800F0F184B2FBF0F313FB5D
:1028900000F3B4F860019BB2984298BF1A46A4F8BE
:1028A000E82094F85E3194F8E620B4F86401A4F8C6
:1028B000EA00C3F30013DB0022F00F0243F002032F
:1028C00013430139B4F86621A4F8EC2084F8E6300B
:1028D00084F8E510FFF7FFB864480EF0D1FB02461C
:1028E00000283FF4AFAC03793C6043F0030303716D
:1028F000182343710F23C371B4F860310381B4F816
:1029000062314381B4F864318381B4F86631C381A4
:1029100000230374C37403754FF0FF33437583754D
:10292000C375037643768376C376037743778377DD
:10293000B4F8AA30A4F8AC3094F85E31C4F87C61E5
:10294000072161F3030384F85E31A368002B0ADAE0
:10295000E768606823F0004387422CBFF119311803
:10296000CB1AC4F87C311332414BC4F878210122D0
:10297000022110469C600EF05BFC00283FF462AC24
:102980003C4A3D4940F6F6633C481FF0BBFE4040E0
:1029900080F311884FF0030002DF94F8BBC094F875
:1029A000BCE0FFF791B808FB113340F2E242344932
:1029B0009BB202FB03F3A3FB010129A3D3E900238C
:1029C000FEF79EFB361AFFF752B92A4A2D492B48CB
:1029D0004FF442631FF096FE404080F311884FF0A1
:1029E000030002DFD8F80000FFF7F2B8C3F382005B
:1029F00060F3020284F846204FF4A476FFF77DBA14
:102A0000A18D9142B4F8EC107FF4EFA840F2E24CB3
:102A10000CFB03FE42F2107C0CFB01EC0CF1FF3CC2
:102A2000BCFBFEFCB4F8A6E01FFA8CFCE6457FF484
:102A3000DCA8012388F80430FFF7E7B80D4A1149F4
:102A40000E4841F21A231FF05DFE404080F31188CA
:102A50004FF0030002DF286894F8C010FFF762BA55
:102A60008D49FD1A07000000AC2A0020402B0020F1
:102A7000640600208C9702009C96020020920200BF
:102A800000CA9A3B6C980200CF480EF0F9FA8046D3
:102A900000283FF4D7AB94F8F930013B84F8F930C3
:102AA0000923437194F93930002B037943F0030370
:102AB00003714FF00802ACBF08230E23C3713946DF
:102AC000104421F077FFD4E94023110C88F8082046
:102AD000C2F3072288F809201A0C88F80C3088F80D
:102AE0000A10C3F3072388F80E20090A120A88F88F
:102AF0000B1088F80D3088F80F20D4F89C31002B8B
:102B000000F0848094F83E2192077FD494F89721B6
:102B1000D7077BD4D4F8A8219342D4F8A02100F0A1
:102B2000BE82002A00F08F83D4F8A4311A68C8F856
:102B30000020C3F80080D8F80030C4F8A481002B2E
:102B400000F0BE81B4F8AA3094F8BBC094F8BCE0A1
:102B5000A4F8AC30FEF7B8BF9C4A9D499D4841F2AD
:102B600049231FF0CFFD404080F311884FF0030050
:102B700002DF2868FFF7FAB9C4F8AC01FFF75DBAC5
:102B80000122104602210EF021FB6FF08B00FEF7B0
:102B9000ACBFD4F8A021002A7FF4F5AB3360C4E9C0
:102BA0006766C4F8A461FFF7F6BB90F8852190F83A
:102BB00084319A4270D013F015FAFFF743BB834A71
:102BC0008549844840F69C431FF09CFD404080F3BB
:102BD00011884FF0030002DF0027B4F8E880FFF708
:102BE00061B8C4F8AC61FFF7B0BA1968C4F8A811AD
:102BF000002A7FF428A91A68026018600368C4E9F3
:102C00006800002B7FF42AA9FFF725BBD4F8A02188
:102C1000002A89D1C8F80030C4E96788C4F8A481C3
:102C20008DE790457FF48EA901232B71294612F080
:102C3000E1F8D4F8E050002D00F0768228680028F2
:102C400000F072824268C4F8E02001232B7129460B
:102C500012F0D0F812F0D8F8FEF73DBF43F01003A1
:102C600053E5D4F8A031002B7FF4D7AC45F8091C0C
:102C7000C4E96722C4F8A421D9E4D4F8A01100293A
:102C80007FF493AC40F8093CC4E96722C4F8A4215E
:102C9000002B7EF420AFCDE490F8943190F895218C
:102CA0009A423EF418AF90F8962102F003010329EE
:102CB00000F0498200297EF40EAF43480EF0E0F99F
:102CC000014600283FF4BEAA94F8963194F8970183
:102CD000012262F3010394F8982184F89631C3F33A
:102CE000820767F3020294F84670C0F3400060F375
:102CF000C30784F84670C3F34217087967F3C50227
:102D000084F89821C3F38202032340F003004B713F
:102D1000162308710A724F720022CB71204612F0FE
:102D20005BFE0FE71C60FFF7B6BB284A2A4940F656
:102D3000A16329E624480EF0A3F900283FF482AAF3
:102D400094F81131013B84F8113194F8123143F0B9
:102D5000010384F81231037943F00303037106235E
:102D600043710C23C37103726FF00E03437205238A
:102D700083724FF0FF33C3720373D4F89C31002B7E
:102D800000F0AF8094F83E21920700F1AA8094F8F9
:102D90009721D70700F1A580D4F8A8219342D4F851
:102DA000A02100F04482002A00F09D83D4F8A431D1
:102DB0001A6802601860C4F8A4010368002B7FF44D
:102DC000C1AEC4F8AC01BDE6402B00208C970200D8
:102DD0006C98020020920200B8920200037943F03E
:102DE0000303037194F8BA30DA0748D5D4F80031F8
:102DF0005B0744D51123C3710323037245727771B6
:102E0000D4F89C31002284F8CD2073B394F83E218D
:102E100090072AD494F89721D10726D4D4F8A82172
:102E20009342D4F8A02100F04A81002A00F0F681F4
:102E3000D4F8A4311A6832601E60C4F8A461336803
:102E4000002B00F0868094F8BB3084F8BC30FEF78D
:102E500042BED4F8A021002A7FF4F9AA3B60C4E95D
:102E60006777C4F8A471FFF7F9BAD4F8A021002A53
:102E7000DED13360C4E96766C4F8A461DFE70D23DF
:102E8000F37135720227BAE790F85E2102F00F0263
:102E9000082A00F2588301A050F822F0D928000037
:102EA0005128000001280000D71A0000D71A00009E
:102EB000D71A0000D71A0000D71A00009527000083
:102EC000C4F8AC813EE61968C4F8A811002A7FF462
:102ED000A9A81A68026018600368C4E96800FFF7CF
:102EE000A9B8D4F8A021002A7FF460AF0360C4E938
:102EF0006700C4F8A40160E71968C4F8A811002AA3
:102F00007FF418A91A6832601E603368C4E96866E5
:102F1000FFF718B9A28D06322A44A4F8C22011F096
:102F200097FFD8F80030D4F8E0205A60C4F8E08069
:102F300011F08EFF0368D4F8E010596094F8C030A7
:102F4000B4F8C220C4F8E000C3F382065B09FFF7BF
:102F50005ABAC4F8AC6176E7DA79032A3FF44BAE8B
:102F60000A2A7EF468AF46E611F072FF238DA8F8B6
:102F700006301C2388F81C6088F8043094F846302A
:102F8000D8F80000C3F3020388F81D3094F84730E6
:102F9000C3F3020388F81E30414611F02BFF11F0F5
:102FA00033FF94F8C030B4F8C220C3F382065B0943
:102FB000FFF729BA012329462B7111F01BFF11F0ED
:102FC00023FFFEF788BDD4F8A031002B7FF40AACB4
:102FD00040F8131CC4E96722C4F8A4210AE41A7952
:102FE00002F00302032A76D0C4E96833FFF71AB867
:102FF0001968C4F8A811002A7FF4C5A91A683260BC
:103000001E603368C4E96866FFF7C5B91A7902F033
:103010000302032A00F0DE81C4E96833FFF78AB8AF
:10302000B2480EF02DF800283FF40CA9027942F0C6
:10303000030202711122C271032242710F22027235
:1030400094F85F214272D4F89C21002A00F012818A
:1030500094F83E11890700F10D8194F89711CB0780
:1030600000F10881D4F8A8118A42D4F8A01100F028
:10307000FD81002900F00C82D4F8A42111680160C0
:103080001060C4F8A4010268002A00F0EC8194F8F2
:103090005C3184F85D3100233B60FFF7D3B81968D9
:1030A000C4F8A811002A7FF43FAD1A68C8F80020C0
:1030B000C3F80080D8F80030C4E968883FE5196893
:1030C000C4F8A811002A7FF4B3AE1A6832601E60FB
:1030D000C4E96866B3E6DA79032A3FF4FAAE0A2A4D
:1030E00082D1F6E61968C4F8A811002A7FF4AFA9C6
:1030F0001A683A601F60C4E96877FFF7AFB91968CA
:10310000C4F8A811D4F8A01100297FF44EAA1968B8
:1031100040F8091C1A6050F8093CC4E96822002BE9
:103120007EF4D9ACFFF786BA714A7249724841F20F
:103130002C231FF0E7FA404080F311884FF0030082
:1031400002DF28687EE5170780F89531C2F3820315
:1031500040F1A38090F89631022262F3840380F854
:10316000963194F8963159064FEA531240F18D800A
:10317000022262F3471384F8963194F8962194F86A
:10318000467094F8470094F89731C2F3820107F033
:10319000070700F00700C3F380038F4208BF002138
:1031A0005B00B0EB521F43F001034FEA521208BF1D
:1031B000002243EA4213AEF1020C43EA81030622E5
:1031C00084F8BCC084F8C03084F8BD20FEF79DBCF4
:1031D0001A7902F00302032A00F0F480C4E968338C
:1031E000FFF7D1B80B68C4F8A831D4F8A031002B90
:1031F0007FF413AA0B6845F8093C0A6055F8091CCE
:10320000C4E96822FFF713BA197901F00301032911
:1032100000F07181C4E96833FFF7C7B91A7902F089
:103220000302032A00F06F81C4E9683300E61968DD
:10323000C4F8A811002A7FF4B9AD1A6802601860BA
:10324000C4E96800B9E51A7902F00302032A00F024
:10325000EE80C4E9683367E41A7902F00302032AB6
:1032600000F03981C4E96833FFF7F1B8A4F8E82029
:10327000FFF717BBD4F8A01100297FF4FDAE026060
:10328000C4E96700C4F8A401FDE6D7070FD5012201
:1032900062F3471384F896316FE7D80710D594F896
:1032A0009631012262F3840384F8963159E712F0D3
:1032B000040218BF042262F3471384F896315CE7D6
:1032C00013F0040300F0F88094F89631042262F3BE
:1032D000840384F8963144E70B7903F00303032B4E
:1032E00000F0F180C4E96811FFF797B9402B002086
:1032F0008C9702006C9802002092020095480DF015
:10330000BFFE00283EF49EAF027942F00302027134
:10331000182242711022C271B4F860210281B4F8FF
:1033200062214281B4F864218281B4F86621C281AD
:1033300094F868210274B4F86A21A0F81120B4F856
:103340006C21A0F81320B4F86E21A0F81520B4F871
:103350007021A0F81720B4F87221A0F81920B4F851
:103360007421A0F81B20B4F87621A0F81D20D4F811
:103370009C21002A36D094F83E11890732D494F863
:103380009711CB072ED4D4F8A8118A42D4F8A011F3
:1033900032D0002956D0D4F8A42111680160106001
:1033A000C4F8A4010268002A49D094F85E3194F868
:1033B000BBC094F8BCE0052262F3030384F85E31DD
:1033C000FEF782BBDA79032A3FF418AE0A2A7FF4AB
:1033D00005AF13E6DA79032A3FF494AD0A2A7FF4A5
:1033E0001BAE8FE5D4F8A0110029D4D10260C4E946
:1033F0006700C4F8A401D5E71368C4F8A831002910
:10340000C9D1116801601060C4E96800CAE70B689F
:10341000C4F8A831D4F8A031002B7FF4E3A90B68DD
:1034200040F8133C0A60C4E96822FFF7E3B9DA798F
:10343000032A3FF43AAE0A2A7FF40BAF35E6C4F80C
:10344000AC01B2E7117901F0030103291AD0C4E9F4
:103450006822A0E70B7903F00303032B20D0C4E913
:103460006811FFF7BFB9C4F8AC0110E61368C4F8DF
:10347000A83100297FF400AE116801601060C4E932
:10348000680000E6D1790329BBD00A29DFD1B8E76B
:10349000117901F00301032908D0C4E96822EBE5A2
:1034A000CB79032BBBD00A2BD9D1B8E7D17903292B
:1034B000E2D00A29F1D1DFE794F8962163F3840280
:1034C00084F896214DE6CB79032B3FF493AE0A2B7B
:1034D0007FF408AF8EE6DA79032A3FF409AE0A2AB0
:1034E0007FF4C0AE04E61A7902F00302032A12D078
:1034F000C4E968335AE4D97903293FF408AE0A29AC
:103500007FF488AE03E6DA79032A3FF4DEAD0A2AB7
:103510007FF48AAED9E5DA79032A3FF48EAE0A2A1F
:10352000E6D18AE60C4A0D490D4840F6C7331FF034
:10353000E9F8404080F311884FF0030002DF4FF0BC
:103540000008FEF795BF044A044940F6E173FFF70F
:103550001BBA00BF402B00208C970200B8920200DB
:1035600020920200000000002DE9F04F8BB00F46C2
:103570000493BDF85830059006930020BDF86030E4
:103580009DF85490BDF85CB00393164612F0B2F962
:10359000002800F0948109F0010A054650460FF01A
:1035A00073F9BAF1000F6AD12B6A05F11C02079278
:1035B000002B6BD0D5F82080D8F8004098F82A006E
:1035C000C0F3C00100F0070017F002FAB8F82610A7
:1035D00000F5E1700144B8F828000144C248C0A3D6
:1035E000D3E90023A1FB0001FDF78AFD20F07F4015
:1035F0002061304616F080FA95F833306FF34103BE
:1036000085F83330FF2385F8343066B3A9F102031F
:10361000012B40F2588195F84430049A69F3420333
:1036200085F8443095F8333062F3000385F8333081
:103630001499062205F1240021F0B1F9039B2B8691
:10364000059A00963B4605F11C000021FEF750F953
:1036500017F05CFB002840F057812846FEF774F90C
:103660000BB0BDE8F08F16F001FE0028CED0149903
:103670000498324616F03CFB85F83400C6E7062174
:103680000DF048FD00288FD11220E9E711F0A6FBCC
:103690000790002800F06F8112F09CFD044600287E
:1036A00000F08B8120300DF0D5FE04F11C080028BD
:1036B00040F05481032104F1240017F04BF8069BDD
:1036C000A06D63854FF6FF73A4F82CB02385002806
:1036D00000F0538104F1480104F14C020DF026FD85
:1036E000636C824A1A4094F85E3023F0070384F832
:1036F0005E307F4B134363647E4B23644FF0000BBB
:103700001B23E387C4F858B0A4F85CB0A4F82EB02B
:10371000C4F830B004F1340015F0AAFC94F8393044
:1037200060F30503012184F839300DF1270017F00B
:1037300011F89DF82720704BDDF80CC0A08D84F89F
:103740003BB0A3FB0213DB0803EB4303A2EB8303B1
:10375000053384F83A3094F839300699A4F8A8B0C3
:1037600003F03F0384F8393094F83C30A4F8ACB04F
:1037700023F0030340F2E24284F83C305F4BA4F8AC
:10378000B4B002FB01F10A460B44B3FBF1F35C4910
:10379000A4F8B0B01144B1FBF2F1A4F8AA1042F2BF
:1037A000107101FB0C210139B1FBF2F2A4F8A62043
:1037B0000622A4F8A420811D9AB28A42A4F8B2205D
:1037C00002DD063A121A92B2B4F8BA30A4F8AE206A
:1037D0004FF0000B03F0F803A4F8BA30A4F8BCB023
:1037E000C4F8E0B0A4F8E4B0A4F8F8B010F038FEE3
:1037F000079BC4F81C3194F81231A4F810B123F0DF
:10380000030384F8123194F85E30A4F818B123F061
:10381000180384F85E3094F83E3184F81BB123F02D
:10382000070384F83E3194F85E31A4F83CB16BF3A1
:10383000451384F85E3194F88631A4F85CB16BF3DB
:10384000C303002284F886310023C4E94001C4E99F
:103850004223A4F884B1A4F890B112F0BFFFA4F8F9
:10386000B60012F0C1FFD4F89421264BA4F8B8009A
:103870001340C4F8943112F0BDFF94F8983160F30E
:10388000020384F8983112F0BBFF94F89831C4F821
:103890009CB160F3C50384F898313123C4E96ABB55
:1038A000C4E968BBC4F804B0C4F80CB0A360C5F8A0
:1038B0002080C4E905BB84F800B0E4617EE60C20FA
:1038C0000BB0BDE8F08F002016F030F995F83330DA
:1038D00043F00203D14685F833309CE6AFF3008015
:1038E0008D49FD1A0700000000CA9A3B000080F8CD
:1038F000480111011B004801ABAAAAAA7FC3C90154
:10390000FF5962020000FFF62C6AE36B63B12D4A97
:103910002D492E484FF497631EF0F4FE404080F38B
:1039200011884FF0030002DF04F1300104F12C0094
:103930000DF000FC0646002831D02768E663D7F872
:103940001C41F4B1204611F04FFA384612F048FC01
:10395000002303202B620BB0BDE8F08F194A1C49ED
:103960001A48BF231EF0CEFE404080F311884FF06E
:10397000030002DF9EE6072072E604F15000A06516
:10398000A8E6104A1349114840F2C1431EF0BAFE9E
:10399000404080F311884FF0030002DFD2E7094A6C
:1039A0000C490A4840F2BA431EF0ACFE404080F396
:1039B00011884FF0030002DFBFE7079811F014FAF7
:1039C00007204DE66C990200B09902002092020097
:1039D00098950200E49702002DE9F04F80468DB0E3
:1039E00004460F46154600F1240106220AA818F8DD
:1039F0001C6F20F0D4FF94F81C9018F0010FC9F34D
:103A0000401BC6F3C016D94640F000810023A383B3
:103A1000B97C97F8118011F001014FF0060200F017
:103A2000DF8004F11E0104F12B0020F0B8FFB8F193
:103A3000FF0F00F0DD80404604F11F0204F11E017B
:103A400015F060FDA37F02330AA9A377062204F1D3
:103A5000250020F0A4FF3B68D3F800A0EB89638623
:103A60002B8AA386BAF83030E38617F0A1F984F8E0
:103A70003800D5F80080404612F0B8FB7E68A88177
:103A80002146E080206811F0B5F9AB89F3801B2353
:103A900034683371B9F1000F40F0C68086F81CB06D
:103AA0003146204611F0A6F911F0AEF9D8F80430ED
:103AB000D8F8086095F82A00B5F80E90FC689E4288
:103AC00038BF1E46C0F3C00140F2E24300F00700D9
:103AD00003FB09F916F07CFF203400220221241A8E
:103AE00001200DF073FB504611F0DCFE821C564B9A
:103AF000CDF800A0D2B2012100200EF001FE30F07E
:103B000002030CD0514A5249524840F2C9331EF0C8
:103B1000F9FD404080F311884FF0030002DF4FF0C1
:103B2000000A012211465346CDF800A050460EF07F
:103B3000E7FD404612F05AFBBB68CDF81880093B00
:103B40009E1B454B0793454B059340F2F933444F79
:103B50000893D8F81030A9FB0798CDE903A3C51C3A
:103B600037A3D3E9002348464146FDF7C9FA10467A
:103B700019464FF47A720023FDF7C2FA30A3D3E955
:103B80000023029041464846FDF7BAFA2CA3D3E938
:103B900000230190A4FB0701FDF7B2FAEDB220F07B
:103BA0007F40009033462A46012150460EF01EFD0C
:103BB00030F002030CD0254A2549264840F2FA335A
:103BC0001EF0A0FD404080F311884FF0030002DF9B
:103BD0000122022110460DF0F9FA0DB0BDE8F08F78
:103BE00004F12B0020F0E6FEB8F1FF0F7FF423AFC5
:103BF0000622002104F1250020F0DCFEA6770AA9A8
:103C0000062204F11F0020F0CAFE24E70F4A1549DE
:103C100010484FF452731EF075FD404080F3118838
:103C20004FF0030002DFF1E66B7F43F040036B7758
:103C3000281D15F069FA0123E883337730E700BFC8
:103C40008D49FD1A07000000498901006C990200A6
:103C5000A8980200209202004D8901007D89010090
:103C600000CA9A3B4C9402002DE9F04F8FB01E46DB
:103C700009931546FF230A1DDFF80481DFF804B11C
:103C8000DFF804A1DFF804910892002131600446B6
:103C90008DF82F3004930C91059106910DAF0CAE69
:103CA00002230D93CDE9018700962B460DF12F02DB
:103CB000214600200EF066FD02282DD00D9B002B22
:103CC00030D19DF82F30FF2B3CD0032BE8D10020C2
:103CD00012F094FA0028E3D090F93930002BDFDBA2
:103CE000049902690C9BFF290CD00699079218468B
:103CF00004930EF0A7FD059B089A99188842049B2F
:103D0000079A22D8CDE905239DF82F300493C7E701
:103D1000214600200EF07CFD0D9B022BF8D00D9B60
:103D2000002BCED073235A46514648461EF0EAFC7B
:103D3000404080F311884FF0030002DF9DF82F30E0
:103D4000FF2BC2D1049BFF2B10D0DDE905321048B8
:103D50001344A3FB0001072202FB031106A3D3E9CE
:103D60000023FDF7CDF9099B803018600FB0BDE846
:103D7000F08F00BFAFF3008000CA9A3B0000000044
:103D8000198D0100FC990200409A02002092020065
:103D90008D49FD1A0000000070B582B01C460192EA
:103DA0001546064601AA0220FFF75EFF23680BB303
:103DB0000198431B1B021FD429460EF043FD1A4AEB
:103DC00003460721A0FB020201FB032114A3D3E950
:103DD0000023FDF795F9226802442260002A09DBDE
:103DE00040F2E24006FB00F0904203D2121A8242F7
:103DF000FCD8226002B070BD014628460EF022FDBC
:103E0000094A03460721A0FB020201FB032104A388
:103E1000D3E90023FDF774F92268121A2260DDE766
:103E200000CA9A3B000000008D49FD1A0000000006
:103E30002DE9F041B0F86C1188B0044640F2E2433D
:103E40004348002603FB01F105AD0623C5E90166E1
:103E50008DF80F30A1FB00013BA3D3E900230596A9
:103E6000FDF74EF90DF10F0301950093B4F862319F
:103E7000049004AA2046012114F050FF9DF80F8001
:103E800008F1FF3C5FFA8CFC0DF11603304604F597
:103E9000B67703EB4C0C04F5BC764FF6FF7E3A8800
:103EA000B8F1000F0AD02B46724504D01988914210
:103EB0004FF0010013D002339C45F5D10237BE42CA
:103EC000EDD108BBBDF81430D4F8C41040F2E24282
:103ED00003FB02F2C4F8F020180A0B7009E0D4F8D2
:103EE000C41040F2E24302FB03F3C4F8F030100ABE
:103EF0000A70487094F8E630042262F3020384F8F2
:103F0000E63008B0BDE8F081D4F8C430032203F8ED
:103F1000042C13F8052C94F8E610052542F0030252
:103F2000112003F8020C03F8052C65F302010F20A1
:103F3000202203F8010C1A7084F8E61008B0BDE8DE
:103F4000F08100BFAFF300808D49FD1A070000002B
:103F500000CA9A3B0000000038B5044617F06CF820
:103F6000A27DC2F34103013303F00303032B34D0DA
:103F700063F34202A27503F1250016F0E7FC6368C3
:103F80000BB32369FBB118F0D7FB05460EF058FCC4
:103F9000C11C002018F09EFB18F000FC18F0CCFBB0
:103FA00029460EF04FFC124903460722A0FB0101EF
:103FB00002FB03110CA3D3E90023FDF7A1F8236949
:103FC0001B1A236138BD0EF03BFCC11C002018F009
:103FD00081FBBDE8384018F0E1BB6FF34202A275E7
:103FE0002520CAE7AFF3008000CA9A3B000000001A
:103FF0008D49FD1A000000002DE9F04F87B00446FE
:1040000018F07CF9C0B250B916F0F6FCB848214659
:1040100018F056F807B0BDE8F04F18F045B918F0A1
:104020008DF9054618F0A8FA834618F0AFFA8146D4
:1040300018F0AAFC064618F08BFC824618F060FACD
:10404000EDB2804618F042FA16F0D6FC002DDDD015
:10405000012011F015F80546002800F07C811BF0C6
:10406000FF0BF6B240F0D580002E40F0CC80FF2749
:104070005A463B463146204617F00CFA0028C5D078
:10408000636800225FFA88F88DF81320002B00F097
:10409000DC80636893F82030990700F1D6802B7F8D
:1040A00003F00F010729B1D0A27D120740F1618111
:1040B000002940F0B7806B7F252B00F22A81042075
:1040C00010F0DEFF0028A1D018F070FB636A804674
:1040D00043B9238C40F2712202FB03F3B0FBF3F2ED
:1040E00003FB120823681A69824B0721A2FB030312
:1040F00001FB02317CA3D3E90023FDF701F8A0F214
:104100004233434582D318F0D3F93846636815F03B
:104110000DFFE37D9B07814640F1CE81002800F032
:10412000CB8183464FF0010818F016F92B7F05AAC2
:10413000039205F11E0201468246C3F380130092EA
:1041400020460022CDE9018B17F0BEF9504618F049
:1041500091F818F0C9F8002840F0C481664821465B
:1041600017F0AEFF6168A37D91F8202043F0800333
:1041700042F0010281F82020A37510F09FFF162362
:10418000804603714FF6FF732D7FC3805146242272
:104190001C3020F004FC98F81C30C8F80840C5F327
:1041A000401565F3451388F81C3018F0C5FA002156
:1041B000C8F810000120059D18F06AF8002E08BF0D
:1041C000FF2788F81970E37D2D1A13F00203C8F851
:1041D000145003D0B9F1000318BF012398F81A2036
:1041E00063F3000288F81A2010F068FF0346414686
:1041F000D8F80000C8F80C3010F076FF10F084FFFB
:1042000007B0BDE8F08F5FFA8AF015F01DFF074692
:104210002EE7A07D5FFA89F1C0F3C00015F0AAFE79
:10422000074625E7012915D16B7F0C2B7FF4EEAEF5
:104230002A7F009700230193D20905F12403204629
:1042400017F07AF800287FF43AAF297F01F00F01C8
:10425000002953D0062951D0022900F09D80012960
:1042600057D16B7F0C2B7FF4D1AE2A7F00970DF1D5
:1042700013030193D20905F124030021204617F00E
:104280005BF8002845D06B7F002B3FF4BFAE63681E
:104290002BB12B7F03F00F03072B7FF4B7AE032066
:1042A0009DF8139010F0ECFE054600283FF4AEAEEA
:1042B00010F004FF4FF6FF73EB8005232B71B8F16C
:1042C000000F65D17F20AB7E2876002E08BFFF2728
:1042D00069F341032868AB7629466F7610F004FF36
:1042E00010F012FF92E600BF00CA9A3B00000000E7
:1042F000F1B001008D49FD1AE9B201006B7F252B59
:1043000007D8A27D920602D56268002A46D0252BE6
:10431000BAD92B7F03F00F03042B7FF477AE6B7FAA
:10432000252B3FF673AEA37DD9077FF56FAE18F04E
:1043300013F82B7F0278C3F38013B3EBD21F7FF403
:1043400065AE0830062205F11E0120F017FB00289B
:104350007FF45CAE97E7714A7149724840F2C3231B
:104360001EF0D0F9404080F311884FF0030002DFC7
:1043700075E6FF2F8DF81470C3F3801978D0237E73
:10438000DB1BB3FA83F35B09002B7FF491AE5FE78D
:1043900018F0A8F8C0B296E76B7FB8E7962018F03F
:1043A0000BF9002017F0DCFF032010F069FE8146B6
:1043B00000283FF42BAE10F081FE4FF6FF73A9F8F2
:1043C0000630052389F80430B8F1000F70D17F233F
:1043D000002E89F8183014BF3B46FF2389F81930A6
:1043E00099F81A30D9F800006FF3410389F81A30B0
:1043F000494610F079FE10F087FE17F0ADFF2B7FD5
:104400000646C3F380133278DB0102F0700243F0FA
:104410000303134333700C233846737015F086FD85
:10442000E37D9F074FD500284DD0337801463046B5
:1044300043F0400300F8023B062220F0B0FA0622C7
:1044400005F11E0106F1080020F0A9FA304617F028
:1044500011FF17F049FF002852D118F09FF9A37DF2
:10446000314843F00103A375214617F029FEC7E642
:1044700005F11E0A05AA5146484615F09BFE002884
:104480003FF4E3AEE37D03F001034B457FF4DDAE83
:104490005146062204F1080020F070FA297FB0FA94
:1044A00080F35B0901F00F01002B7FF401AECFE632
:1044B00018F018F8C3B28BE794F8168004F1190BC2
:1044C000C8F3801830E6A37D3278C3F380133046FA
:1044D00063F3861200F8022B04F11901062220F082
:1044E0005EFAACE70D4A11490E4840F291431EF0C6
:1044F00009F9404080F311884FF0030002DF2DE6F8
:10450000064A0A49074840F216531EF0FBF840409D
:1045100080F311884FF0030002DF9EE7189E02002F
:10452000649E02002092020005B101006C9E020010
:1045300038B50E4C2269A568136843F04003136038
:1045400006212B6840F201622046984700280BDBC9
:1045500040216B6920469847002805DB00214FF475
:1045600000401DF02DFDF3E738BD00BF208602009E
:1045700002461846034B1B6813B9034906F07AB983
:10458000704700BFF81D00202149000008B5022235
:104590001946024820F003FA002008BDE03D002043
:1045A000F0B5074689B014460E46C9B92D4B1B8895
:1045B00013B12D4B1B8853B92C4B06932C48022367
:1045C00005AA4FF48651019305931EF02BF814228F
:1045D0000021204620F0EEF90025284609B0F0BD64
:1045E000157CE5B92349106820F097FAB8B9338AE9
:1045F00025600133238103232374214638460AF0C2
:104600007BF80028E9D01C4B06931948022305AA21
:104610004FF48451019305931EF004F8DDE7237CE9
:10462000032B01D00125D8E7F4681449206820F055
:1046300074FA70B9124B069305AA02230C48019331
:104640004FF4865105931DF0EDFF064BA2881A80AA
:10465000E8E70A49206820F060FA0028E2D1A28841
:10466000014BF4E7B83D0020BA3D002037A302001B
:1046700088880200890800204DA3020078080020E5
:104680005DA3020030B50F4D0FCD8DB001AC0FC44E
:104690002B680D49236001A806F096FE014620B163
:1046A0000A481EF02FF80DB030BD094B0A93094897
:1046B000022309AA4FF48651009309931DF0B2FF1B
:1046C000F1E700BF708A02007145000073A3020089
:1046D00096A302008888020070B503788AB0044669
:1046E0000E4607AD032B20D8DFE803F002191B1D8F
:1046F0001149284620F01CF963780493A3780393AA
:10470000E378029323790193637900930B4AA379A9
:1047100005951E2130461EF002F80AB070BD08490A
:10472000E7E70849E5E70849E3E7084A0A21284698
:104730001DF0F5FFE0E700BFB5A30200D7A302001C
:10474000BCA30200C3A30200CDA3020021C6020045
:1047500030B5124C2368834291B00D461BD120F036
:104760006EFD08A9FFF7B8FF0D4B0E4805AACDE96D
:1047700006354FF4C4510323019305931DF052FFF6
:10478000206820F0C3FC084A00231370074A236006
:104790001370FFF777FF11B030BD00BFF81D002088
:1047A000FAA3020088880200E23D0020E33D0020D9
:1047B000F0B591B00E46044620F041FD08A9FFF780
:1047C0008BFF204D9EB1204B2048069305AA022363
:1047D0004FF48651019305931DF024FF286820F0C3
:1047E00095FC00232B60FFF74DFF11B0F0BD2B6847
:1047F000A342FAD10224164B1448069305AA4FF49B
:104800008651019405941DF00DFF1249124B0B6067
:10481000124B4B6001274FF6FF732868CB810F8145
:104820000E7409F069FF0E4B0848069305AA4FF471
:104830008651019405941DF0F5FE0A4B1F700A4B3A
:104840001F70D2E7F81D002012A402008888020021
:1048500024A40200FC1D002089080020A1450000BE
:104860004DA40200E33D0020E23D0020F0B58FB0F2
:10487000244B0C9302260BAA4FF48651074622487C
:1048800004960B961DF0CEFE06F01EFE05464FF474
:10489000A47000211DF094FB35B11C4829461DF081
:1048A00031FF01200FB0F0BD1823ADF808302823E8
:1048B000ADF80A304FF44873ADF80E30144BADF834
:1048C0000C500FCB04AC84E80F002146114B02AA18
:1048D000384607F043FC104B0C9304460BAA0A48D9
:1048E00001964FF486510B961DF09CFE3CB10B488F
:1048F00021461DF007FFFFF7C5FE2846D2E72046F8
:10490000D0E700BF5FA40200888802006CA4020008
:10491000848A0200F81D00208AA402009BA40200E1
:10492000F8B50378072B04460D4618D10D481DF045
:10493000E9FE002360780C491A46904206DC102BF1
:104940000DD12846BDE8F840FFF790BF676831F801
:10495000026BBF5CB74208BF01330132EDE70120B3
:10496000F8BD00BFB8A40200DC07002000B500209D
:1049700089B005F00FFF014628B10B4809B05DF87A
:1049800004EB1DF0BFBE094B06930948022305AA9C
:104990004FF48651019305931DF044FE09B05DF874
:1049A00004EBFFF76FBE00BFC6A40200E6A402003E
:1049B00088880200F8B50C4D0C4E0D4F2B7863B172
:1049C0000C4C306839460AF067FA21780A481DF025
:1049D00099FE217809481DF095FE00214FF4A4703E
:1049E0001DF0EEFAEAE700BFE23D0020F81D0020CE
:1049F00068010020E03D0020FCA4020006A50200A2
:104A00002DE9F04F05468BB0184615F00303DDF88D
:104A1000508003920E46019340F0F3812C1D002D2F
:104A200040F0F28101F00706341DC6F108064FF090
:104A3000000A0427411ECDF808A0CDF800A0524678
:104A4000B94605B12060039B03F0010ECD4B98429F
:104A5000C0F02A81CC4B984280F02681BEF1000F35
:104A600000F03B814FF0010CA4EB050BBEF1000FF1
:104A700000F01D81BBF5007FC0F019816FF01500BB
:104A8000F5E032B9252B40F02B8101220427B946ED
:104A900026E12B2B24D81F2B01D8002220E1A3F1E3
:104AA00020000B28F9D80FF2080C5CF820F000BFAA
:104AB000E14C00009B4A00009B4A0000E14C0000D2
:104AC0009B4A00009B4A00009B4A00009B4A000052
:104AD0009B4A00009B4A0000874C0000E14C00000C
:104AE000A3F12D005FFA80FCBCF14D0FD5D84D2805
:104AF000D3D80FF2080C5CF820F000BFE14C0000A6
:104B0000E14C00009B4A0000E14C0000E14C000039
:104B1000E14C0000E14C0000E14C0000E14C0000E1
:104B2000E14C0000E14C0000E14C0000E14C0000D1
:104B30009B4A00009B4A00009B4A00009B4A0000E1
:104B40009B4A00009B4A00009B4A00004F4C00001B
:104B50009B4A00009B4A00009B4A00004F4C00000B
:104B60004F4C00004F4C00009B4A00009B4A000045
:104B70009B4A00009B4A0000E14C00009B4A000059
:104B80009B4A00009B4A00009B4A00009B4A000091
:104B90009B4A00009B4A00009B4A00009B4A000081
:104BA0009B4A00009B4A0000354C00009B4A0000D5
:104BB0009B4A00009B4A00009B4A00009B4A000061
:104BC0009B4A00009B4A00009B4A00004F4C00009B
:104BD0009B4A0000354C0000354C00004F4C000053
:104BE0004F4C00004F4C0000E14C0000354C0000E1
:104BF0007D4C00009B4A0000E14C00009B4A0000F5
:104C0000814C0000354C0000814C00009B4A0000A4
:104C10009B4A0000814C00008D4A0000354C00008A
:104C20009B4A00009B4A0000354C00009B4A000054
:104C30008D4A000011F8012C6C2A23D111F8022CA6
:104C40006C2A4FF000022DD00427B9461BE008F172
:104C5000070828F007080734F8E8022324F00704BF
:104C600055B10EEB0400B04204D96FF01B000BB03D
:104C7000BDE8F08FC4E9002308340022082706E7C6
:104C80000022E1E70022013C3C447842044025B187
:104C9000A9EB05002044B042E7D8732B42D158F865
:104CA000040BCEE60827D0E74FF0000CDCE6009BB3
:104CB0000F2B3FF6E3AE3DB300982830CBF38703CC
:104CC0006844BCF1000F19D063F07F0300F8103C7A
:104CD0000AF1010A009B013300930434C5F1080E68
:104CE00011F8013F002B7FF4CCAE601BB0F5806F54
:104CF000BFF4C4AE9DBB083E3044B8E700F8103C9A
:104D0000029B01330293E5E7BCF1000F01D00136AD
:104D1000E0E7CDE904121FF015FE0236DDE90412CA
:104D20000644D7E7B9F1040F08D108F1040015B122
:104D3000D8F80030236004348046D1E7B9F1080F79
:104D40007FF49CAE08F1070323F0070303F1080882
:104D50001DB1D3E900BCC4E900BC0834C0E7029A25
:104D60002B60800828706A7085F802A0BAF1000FE5
:104D700005D006A9C5F10100009A9A4206D1C5F1F5
:104D8000010938E07085020098C9020011F8012B72
:104D9000170607D52718B74202F07F023FF665AF26
:104DA00004F8012B0133E7E7019B06AA12F8038000
:104DB000BAF1000F02D018F0800F19D10FFA88F263
:104DC000002355F8221045F82230084602911FF0C2
:104DD000B9FD04EB0902471C3A44B2423FF645AF25
:104DE00004F8018B029920463A461FF0D8FD3C4456
:104DF000019B01330193DDE900239A42D4D1601B6A
:104E000035E76FF00D0032E707293FF610AE2CE7CB
:104E1000014B1860704700BF7801002030B585B0A5
:104E2000CDE901010446002501A90548039500F0DC
:104E3000E9F8DDE902309842B8BF255405B030BD2D
:104E4000DF2602002DE9F84FB0F8189019F0080895
:104E5000044693460DD001290CBF49F0100949F0D2
:104E60002009A0F818908BF31188BFF36F8FBDE86D
:104E7000F88F09F00709022907D120461DF076FCBA
:104E80000028F0D00128238B4ED16769218B002F99
:104E900015DA256821F00701C4E9008841F0010115
:104EA00021830026218B01F0070ACA4502D0A3689E
:104EB000002B5AD10DB9002E71D0002356E001F01D
:104EC00007035A1F012A1ED821F00701062B256867
:104ED00089B2C4E900880AD13DB1638B2A461268C1
:104EE00001339BB2002AFAD1638341F0020121838E
:104EF00020461DF03BFC06460028D3D0238B43F010
:104F000020032383CDE7042B0CD121F0070189B2C4
:104F1000218320461DF02AFC05460028C1D041F01F
:104F2000200121830025BCE7032809D1226923F051
:104F30000703166843F00603238300252F46B1E7D5
:104F4000042806D1226923F00703566843F00403BE
:104F5000F2E7052806D1226923F00703966843F09B
:104F60000503E9E700252E46E8E7012341F00801A3
:104F700021838BF31188BFF36F8FFBB985BB16B10B
:104F80001F492046B0474FF02003EFF3118B83F306
:104F90001288BFF36F8F238B23F008032383238BA7
:104FA000DA0625D523F0100323830121B4F81890E5
:104FB00009F0070900297FF45EAF54E7A1680029D2
:104FC000DCD0D1F80090D1F804B03B4652462046E0
:104FD000D847B9F1000FD1D04946D9F80090F2E78F
:104FE00029463B46524620462D681DF0DBFBC5E7AF
:104FF00013F020011EBF23F0200323830221D5E7F5
:10500000D12702002DE9F04F81469BB08A46154614
:105010001C460026287810B9304600F0EEBD6B1C07
:105020002528029306D05146C8470028C0F2E585DE
:1050300001364CE2182200210CA81FF0BBFC6B7853
:10504000252B7CD00022681C964690469446174635
:10505000014610F8013B2B2B00F0A08000F2978056
:10506000202B00F09E80232B00F09E802FB19DF816
:10507000380040F004008DF83800BCF1000F05D076
:105080009DF8380040F008008DF83800B8F1000FA6
:1050900005D09DF8380040F010008DF83800BEF1C2
:1050A000000F05D09DF8380040F020008DF8380042
:1050B0002AB19DF8382042F040028DF838209DF842
:1050C000382002F04400442803D16FF386128DF893
:1050D00038209DF838202A2B42F080028DF83820A5
:1050E0007ED19DF8392042F001024B1C8DF8392009
:1050F0001A782E2A9DF839200CBF0121002161F376
:1051000041028DF8392077D15A782A2A6DD001339F
:1051100000214FF00A0C184610F8012BA2F13007BD
:10512000092F40F2AB809DF838201091C2F3400067
:1051300040EAD17161F341028DF838205CE0AA1C8D
:1051400002928DF83B309DF83930DF0740F17381D2
:1051500054F804BBBBF1000F07DA9DF8382042F089
:1051600004028DF83820CBF1000B580740F16C8118
:1051700054F8048BB8F1000F80F26B819DF8393040
:105180006FF341038DF839304FF0FF3861E12D2B7B
:105190000DD0302B7FF46AAF012259E74FF0010C9C
:1051A00056E74FF0010853E74FF0010E50E7012793
:1051B0004EE70CFB0272303A0346184610F8017BAA
:1051C000A7F1300EBEF1090FF3D9994290D09DF8A6
:1051D00038100F92D20F62F341018DF8381087E733
:1051E0000B4600224FF00A0CE7E79DF8392042F009
:1051F00004028DF839200233194611F8012B6C2A6C
:105200005CD040D8682A46D06A2A61D04C2A67D040
:1052100019460B4613F8012B0293782A8DF83B2090
:1052200000F2DF80572A68D8412A04D0A2F1450352
:10523000022B00F2D6809DF83A3002F0DF02042102
:10524000A2F1410861F30203D8F100029DF8391080
:105250008DF83A3042EB080262F3C7110A068DF866
:105260003910CBB200F1E58003F07802182A40F043
:10527000B5806FF3C6038DF839309CE00CFB01213B
:105280003039034647E7742A26D07A2AC0D19DF8E0
:10529000393006220DE05A78682A9DF8392006D167
:1052A000012161F3C6028DF83920991CB1E713463C
:1052B000022262F3C6038DF83930AAE75A786C2AC5
:1052C0009DF8392001D10421EBE713460322F0E7D2
:1052D0009DF839300522ECE79DF839300722E8E7E0
:1052E000BDF8383023F4F04323F0020343F4804345
:1052F00043F00203ADF838308BE7A2F15803202BBE
:105300006FD801A151F823F0BB530000E353000014
:10531000E3530000E3530000E3530000E3530000B5
:10532000E3530000E3530000E35300003752000052
:10533000E3530000BB5300008D53000037520000C0
:105340003752000037520000E35300008D53000035
:10535000E3530000E3530000E3530000E353000075
:10536000F1530000BB53000015540000E35300004C
:10537000E353000015540000E3530000BB5300004A
:10538000E3530000E3530000BB5300009DF83A30A4
:10539000012161F302038DF83A309DF8393003F0B2
:1053A0007803402B02BF9DF8381041F001018DF8C1
:1053B0003810632A05D0002306E09DF83A30022118
:1053C000E7E7003B18BF01239DF83820C2F34001F6
:1053D0000B4363F341028DF83820B4E613F0380F25
:1053E000E9D09DF8383043F001038DF83830E2E71A
:1053F0009DF83A30032262F302038DF83A309DF8AB
:10540000393003F07803A3F1400CDCF1000343EBE7
:105410000C03D9E79DF83A30032262F302038DF8BA
:105420003A309DF8393013F0780F14BF0123002370
:10543000CAE70123C8E79DF93820002AB4BFDDF888
:105440003CB04FF0FF3B90E699077FF59DAEDDF84D
:1054500040809DF839100023CDE90F339DF83A3094
:1054600003F00702042A09D18A0707D49DF93920DD
:10547000002AB4BF4FF00D084FF0060803F00703F1
:10548000012BC1F3C30137D1CB1E042B21D8DFE898
:1054900003F003090920200054F8043BDA17CDE992
:1054A0000C3206E0073424F00704F4E80223CDE9C7
:1054B0000C239DF83870BB0756D0029B2A465146F4
:1054C00048461DF084FC0028C0F297830644029DE4
:1054D000A0E554F8043B01294FEAE372CDE90C3210
:1054E00005D19DF830300C9300230D93E1E702299C
:1054F000DFD1BDF93030D1E7022B23D1CB1E042BF5
:1055000013D8DFE803F0030A0A12120022680C9293
:105510000023201D0D930446CBE7E01D20F007007B
:10552000F0E80223CDE90C23F5E754F8043B0C9393
:1055300001294FF000030D93D3D00229B9D1BDF852
:105540003030D0E7042B09D1E31D23F0070303F12A
:105550000804D3E90023CDE90C23AAE7032B04BFF9
:1055600054F8043B0C93A4E79DF83B20782AAED86E
:10557000572A00F28C80252A00F0D480242AA6D94C
:10558000412A03D0A2F14503022BA0D8DDE90C1378
:10559000002BC0F2BE81380700F1BD8117F0100763
:1055A00018BF2027C3F30A55C3F31303CDE908132B
:1055B000002D40F0B28151EA030014BF0120002009
:1055C000DB0243EA5153C902462A45EA010E43EA87
:1055D000E57C08BF66225EEA0C0CCDE9081300F0FA
:1055E0000682002840F0CE81DDE908014FF0000C72
:1055F00041F00041A5F2FE35099163464FF0050EDA
:1056000015F1020FC0F2C581BCF1000F01D0CDE948
:105610000801002DDDE9081000F3D08109980899F0
:10562000C5F1040C1C3500FA05F5ACF1200E21FA89
:105630000CF120FA0EFE294341EA0E0120FA0CF08B
:10564000CDE9081002F0DF01472940F0D781DD1CC9
:1056500002DB984580F2CE81023AB8F1000FD2B257
:1056600001DD08F1FF389DF83810880600F1C68189
:10567000B8F1000FD4BF00210121662A039140F048
:10568000BF8118EB030540F1BD810025BDE1A2F10A
:105690005803202B3FF61BAF01A050F823F000BFAA
:1056A000B5580000CF540000CF540000CF54000084
:1056B000CF540000CF540000CF540000CF5400005E
:1056C000CF5400008D550000CF540000515700000A
:1056D000555800008D5500008D5500008D55000077
:1056E000CF54000055580000CF540000CF540000A4
:1056F000CF540000CF540000EB580000B558000014
:10570000B9580000CF540000CF5400002B570000C0
:10571000CF540000B5580000CF540000CF54000013
:10572000B5580000514610467EE4B8F1000F0C9ABF
:1057300009DB4146104603921FF00BF9039A00273C
:10574000151862B9C3E6104603921FF0FBF8F5E79F
:105750000C9B8DF84C3000270DF14D0513AAAB1AA8
:1057600007B101339DF83A00C10640F13A82023395
:105770000F9940060B4444BF10995B18BBF1000F12
:1057800023DDABEB030B9DF838305907C3F38008DA
:105790001BD4580640F13482002F00F03482514669
:1057A00038460392C8470028C0F22782039A47462A
:1057B00001364FF030085E445B46002BA6EB0B0031
:1057C0000BF1FF3B00F31182064647B151463846C4
:1057D0000392C8470028C0F21082039A01369DF850
:1057E0003A30590640F165829DF93930002BA6EB1D
:1057F00002030393C0F20A8217463878039BA0F194
:105800003002092AB84603EB070607F1010740F208
:1058100029829DF83A200F9F930608D43E44002F1A
:10582000A6EB070307F1FF3700F322821E4698F824
:1058300000002E280BD15146C8470028C0F2DD8158
:10584000002F06F1010600F31A8208F10108A6EB09
:1058500008061DE23D072BD417F0100718BF2027BC
:10586000DDE90C23002B05DA524263EB4303CDE95B
:105870000C232D270DF1650300930EAADDE90C0121
:1058800013AB1DF05EFA0246B8F1000F0DF165058D
:10589000FFF657AF9DF83810AB1A6FF38611984595
:1058A0008DF838107FF64DAFA8EB03030F9348E750
:1058B0002B27D5E70027DDE70C98002800F08D8125
:1058C0000DF1650300930EAA13AB00211DF039FA08
:1058D000BDF83A3003F0EF0343F4F04343F0100314
:1058E0000246ADF83A300027CEE70C9B07293FF679
:1058F000EEADDFE801F00C04060C08080C0C1E707D
:10590000E5E51E80E3E5F217C3E90062DFE51E600E
:10591000DDE52D2746E62B2744E640F2FF70854261
:105920002DD10B43A2F141021BD1192A11D84923D1
:105930008DF84C304E238DF84D3046238DF84E3087
:105940009DF838306FF386138DF838300DF14F0520
:1059500004E769238DF84C306E238DF84D306623B3
:10596000ECE7192A99BF4E2341226E23612294BF8E
:105970008DF84C308DF84C308DF84D20DEE700204E
:105980001EE6013D49185B41002BFADACDE9081308
:105990002AE6400840EAC1704908B1F1333FAC46FD
:1059A00005F10105F5D20EFB01F5A0FB0E0129441E
:1059B000013B0CF102054FF0010C21E6023140F1F0
:1059C0000000CDE9081008A8CDE903231DF08AF9ED
:1059D000049B039ADDE90810013D01334918404159
:1059E000002805F1FF35F9DACDE9081011E60023AA
:1059F0001D4613E6A8EB0308662234E600213CE6C8
:105A000008F10105102DA8BF1025102107910020D5
:105A10004FF00061CDE90A01DDE90A10A5B9089D42
:105A20004919099D40EB0505B5F1805F1BD2CDE911
:105A30000815662A40F09980002B23DC30218DF870
:105A40004C100DF14D052FE0490841EAC0714008A6
:105A5000CDE90A100AA8CDE90423013D1DF042F961
:105A6000DDE90423D8E7490841EAC57108A86D08B3
:105A7000CDE90423CDE908151DF034F9059B049AFE
:105A80000133D6E713AD079900290BDD07A908A854
:105A9000CDE904231DF03EF9059B05F8010B013B00
:105AA000049AF0D10F9300239DF83810890602D490
:105AB000B8F1000F1DDD2E2105F8011B9BB1B8F1D7
:105AC000000F16DD59424145A8BF41469DF83A00F6
:105AD0000F910029A8EB0108D4BF0021012161F337
:105AE00045108DF83A00B8F1000F02DD0799002942
:105AF00056DC0399002963D1CDF8408002F0DF0124
:105B0000452921D1002B2946B8BF5B4201F8022B61
:105B1000B4BF2D222B22632B6A7009DD6420B3FBF6
:105B2000F0F202F1300CE91C85F802C000FB1233E0
:105B30000A200D46B3FBF0F200FB123302F1300CE9
:105B4000303305F802CB4B700F9B002B43DC109BCE
:105B5000002BD4BF002301239DF83A2063F3861263
:105B600000238DF83A202B70F8E507A908A8CDE9A5
:105B700004231DF0CFF8DDE904239DF838108DF8DB
:105B80004C00302818BF03F1FF33880602D4B8F167
:105B9000000F12DD2E218DF84D100DF14E05A2E7FC
:105BA00007A908A8CDE904231DF0B4F808F1FF38CF
:105BB000DDE9042305F8010B95E70DF14D0598E7A4
:105BC00000211091284615F8011D3029FAD02E2900
:105BD00018BF054692E70123BEE74B4D07466A1FF3
:105BE000BDE5010748BF0133C2E551464046039277
:105BF000C8470028039ABFF6DFAD1BB0BDE8F08FA1
:105C00004FF02008D7E54FF03008D4E59046039BCD
:105C10004746434418F8010B70281ED11E46109BBE
:105C200003EB0608A8EB0603002B3BDC2B463A46A9
:105C3000514648461DF0CBF80028DEDB30440646CE
:105C40008344ABEB0603002B7FF741AC5146202089
:105C5000C8470028D1DB0136F3E75146C847002882
:105C6000D5DACAE75146C8470028BFF6C6ADC4E733
:105C700051463020C8470028BFF6D1ADBDE7514698
:105C80003020C847013FD8E55146C8470028B4DB5B
:105C9000474606EB080318F8010BA0F13002092A69
:105CA000F2D9BBE751463020C8470028A5DB0136B2
:105CB000B8E7D80601D4190707D55146302003921A
:105CC000C847002899DB039A01369DF83A30DB0675
:105CD00008D59DF83B0003925146C84700288CDB4D
:105CE000039A01360F9F3744BB1B002B01DC2B4668
:105CF0009EE7514630200392C8470028FFF67DAF4B
:105D0000039A0136F0E700BF20A5020030B5104924
:105D1000104889B0002222F0A8FA0F4D0F49002246
:105D20000023CDE9062300240E23CDE90334CDE979
:105D300001440B4B00944FF4407228461BF0CAFA02
:105D40000849284621F02FFF204609B030BD00BF8A
:105D5000695D0000D011002008120020E04D0020F5
:105D6000815F000021A5020001481BF045BC00BF77
:105D7000EC09002070B5124BBFF35B8F53E8005F56
:105D80006A1C43E800210029F8D1BFF35B8F2DB9CD
:105D90000C4C0D4E361B3611B54200DB70BD237B1B
:105DA00053B123689B690BB120469847636804226E
:105DB0001968204600F092F901351034ECE700BF75
:105DC000181E0020308A0200408A020010B5044CE0
:105DD000237813B903481BF00FFC0123237010BD77
:105DE000E43D0020EC0900200C4BBFF35B8F53E82F
:105DF000002F013243E800210029F8D1BFF35B8F67
:105E000058B1BFF35B8F064B53E8002F013A43E8CC
:105E100000210029F8D1BFF35B8F7047141E0020CA
:105E2000101E00200020064BBFF35B8F024653E894
:105E3000000F43E800210029F9D1BFF35B8F7047C1
:105E4000141E0020F8B5FFF7EDFF0A4C0A4D2D1B7C
:105E500007462D110026AE4200DBF8BD63685B7972
:105E60002BB123681B6913B1394620469847013688
:105E70001034F0E7308A0200408A020001490248EB
:105E80001DF033B9188B02001C1E0020084A08B50B
:105E900000231370074A1360074B084A1A604FF437
:105EA000004000F0FBFABDE80840FFF7E7BF00BF85
:105EB000E53D0020141E00207C01002089330200F3
:105EC00001460022014800231DF02EB91C1E0020AF
:105ED00001481DF0BCB900BF1C1E0020014601484E
:105EE0001DF001BA1C1E002001481DF030BA00BF91
:105EF0001C1E00201D4B1B782DE9F041054603B9FF
:105F000088B31DF055FA064618B16DB13046FFF75B
:105F1000E5FF2DB9164B1B68002B01DDFFF792FF43
:105F2000BDE8F041FFF7E0BF124BBFF35B8F53E8D2
:105F3000002F013A43E800210029F8D1BFF35B8F1D
:105F40000D4C0E4F3F1B3F11A846B845DEDA636883
:105F50005B7923B1236831461B682046984708F1D6
:105F600001081034F1E7BDE8F08100BFE43D0020F6
:105F7000141E0020101E0020308A0200408A0200F9
:105F800010B5FFF7F7FE1CF035F80C4B186030B178
:105F90000B4B1B68092B02DD0A481BF02DFB094C3B
:105FA0000020FFF7A7FF0028FAD14FF0FF324FF093
:105FB000FF3320461BF046FBF2E700BF581E0020CF
:105FC000101E0020EC09002013B51D4BBFF35B8FA2
:105FD00053E8002F511C43E800100028F8D1BFF30C
:105FE0005B8F184B1B7883B14FF02003EFF31184C4
:105FF00083F31288BFF36F8F0020FFF77BFF84F3DA
:106000001188BFF36F8F02B010BD0F4B1B68002BC0
:10601000F9D052B900220023CDE900230B484FF4F8
:10602000004200231CF0F8F9EDE70A2AEBD10748FB
:1060300022F027F9064802B0BDE810401BF0DCBA98
:10604000101E0020E53D0020581E0020D011002029
:10605000EC090020064B10B51B6804469847214602
:10606000A06004481DF0D6F8BDE81040FFF7ACBFB3
:106070007C0100201C1E0020F8B50E4F3D7875B93C
:106080000D4C0E4EFFF776FE361B3611B54207DB80
:106090000020FFF72FFF0028FAD101233B70F8BD45
:1060A00063685B791BB1236820465B6998470135BB
:1060B0001034EBE7E53D0020308A0200408A020000
:1060C000044A054B9B1AB1EBD30F34BF52F8310091
:1060D0000020704788880200308A0200054A436821
:1060E000801A001101300122187119605A71FFF7EE
:1060F0006DBE00BF308A02000EB403B503AB01468B
:1061000053F8042B04480193FEF77CFF02B05DF8BE
:1061100004EB03B0704700BFF13302002DE9F047F4
:106120001D46089B1746DA0604460E4605D4990616
:106130004CBF2A492A49FFF7DFFFDFF8A8904FF04C
:106140000008A8452ADBDFF8A080DFF8A090DFF880
:1061500094A00025BD422FD2725D49462046FFF72C
:10616000CBFF0135102D20D12149DFF87880DFF8F1
:1061700084902046FFF7C0FF0025AF4228D9725D0A
:10618000A2F120035F2B28BF2E2249462046FFF7AD
:10619000B3FF0135102D14D1BDE8F08749462046E4
:1061A000FFF7AAFF08F10108CBE76A07D2D15146F1
:1061B0002046FFF7A1FFCDE741462046FFF79CFFB1
:1061C000CFE76B07D9D141462046FFF795FFD4E7CB
:1061D00041462046FFF790FFDBE700BF2EA50200F7
:1061E0002DA5020038A5020036A5020030A5020048
:1061F0003AA502003CA502002DE9F04F87B01C46ED
:1062000001F0010305929DF84090BDF948A0049368
:106210000746884601F0020B01F008061DF0CCF895
:106220000246002844D03A493846FFF765FF054644
:10623000BBF1000F08D018F0440F3BD1354922467E
:106240003846FFF759FF0544049B53B1324B33499D
:1062500053F82920324B3846002A08BF1A46FFF768
:106260004BFF3EB12F4B304953F829203846FFF7FA
:1062700043FF0646BAF1000F16DB059B002B45D005
:10628000012303FA09F9294B294C19F0100F18BF03
:106290001C4651469DF84400FFF712FF2146024676
:1062A0003846FFF729FF0644701907B0BDE8F08FA4
:1062B0000546BDE71F4B18680028C4D01E4B4FF49D
:1062C0007A781B68B4FBF3F44FF46161B4FBF0F32C
:1062D00000FB134408FB04F44FF03C0CB3FBF1F259
:1062E00001FB1231B4FBF0FEB1FBFCF300FB1E44DA
:1062F0000CFB131108FB04F40091B4FBF0F00F4900
:10630000CDE901E03846FFF7F7FE9CE7084CC0E70F
:106310004DA5020051A502002C8B020098C7020077
:106320003FA50200408B020076A5020049A50200AD
:1063300044A502005C1E0020601E00205AA5020039
:1063400038B50C46E107054603D5084A0849FFF76A
:10635000D3FEE20608D4A30628464CBF05490649E9
:10636000BDE83840FFF7C8BE38BD00BF3FA50200FA
:1063700098C702002EA502002DA502002DE9FF47B7
:106380000B8813F4E07F06460C469046C3F382194F
:106390004DD00A784B68C2F3C202002B44D0254985
:1063A0005B1A43F3CF03CDE90123CDF80090A36836
:1063B000002241463046FFF71FFF8246254655F82A
:1063C0000C3BC3F3492353B11B4F1C481C492B46BC
:1063D0003246B9F1000F08BF38461CF026F967882D
:1063E000C7F3CB0797B12368C3F349231D44102F8C
:1063F0003C4628BF10242946CDF80080534622464B
:106400003046FFF78BFE3F1B2544F0D1B9F1000F5A
:1064100004D04A4641463046FFF792FF304604B06A
:10642000BDE8F0471CF0D7BF4FF0FF33BBE7CA46CB
:10643000C4E700BF8888020027340200F13302005D
:106440000550000073B542F20F738B4228BF0B4614
:1064500005680F4A0446052168461CF060F9636828
:106460000C495B6806460B2228461CF0A7FF6368B0
:106470003246694628465B681CF0A0FF63680649FF
:106480005B681B2228461CF099FF02B070BD00BF5C
:106490000FA40200B8A502009CA50200084A10B58E
:1064A0000123084C13600021A04204D801B11360FD
:1064B000054B186010BD40085B000121F4E700BFE8
:1064C000601E002040420F005C1E00202DE9F04FAE
:1064D00085B0DDE90E6BDDF840A005468846144620
:1064E0009946BBF1000F37D00022CDF800A05B46E3
:1064F0000C211046CDF80CA0FEF782FA074604F0F6
:10650000070206F1130005F00704144D144BE400D4
:10651000384444EA821405EA472520F007002C435A
:1065200003EAC64380081C43FFF7CAFC054650B186
:10653000BBF1000F07D0CDF800A05B460022394622
:106540000C30FEF75DFA4B4622464146284605B020
:10655000BDE8F04F1CF074BF5F46D0E700FE0700B7
:106560000000F87FF8B5074F0D4604464618B442C0
:1065700001D12846F8BD386814F8011B83685B68B0
:106580009847F4E7781E0020014B024A1A607047D2
:10659000781E002068860200024B034801221A7010
:1065A0001CF019BFE63D0020708B02000148FFF788
:1065B00049BF00BF708B020001480F22FFF7DEBE0B
:1065C000708B02001FB507240294044C0194BDF89F
:1065D000184000941FF0E1FE04B010BD9A0800209E
:1065E0000C4BF0B45F6A0C4E0C4BB34203D36FF00C
:1065F0008500F0BC70475D68BD4209D31C693CB1A1
:1066000095F802C00579AC4502D12346F0BC184785
:106610002433EAE77C1E00204C0C0020280C0020CC
:106620002DE9F047134CDFF85080DFF85090054615
:106630000E461746444503D36FF08500BDE8F0874A
:106640006268D9F824309A4212D3A36983B1907852
:106650002979884205D13A4631462846BDE8F047B7
:1066600018475279012A03D13A46314628469847BD
:106670002434DFE7280C00204C0C00207C1E002076
:106680002DE9F0410B4CDFF8308005460E461746E9
:10669000444502D36FF0850009E063690BB92434E7
:1066A000F6E73A463146284698470028F7D1BDE834
:1066B000F08100BF280C00204C0C0020024808226A
:1066C00000211EF077B900BF371F002070B50B4BBB
:1066D0000B4CA34201D3002070BD196A1E7F00221B
:1066E0000439D5B2AE4201D82433F2E7013211F8B1
:1066F00032508542F5D10120EEE700BF280C002082
:106700004C0C0020094808B50378C3F341130A3341
:1067100050F823303BB100F1080200F11001984716
:10672000C043C00F08BD1846FCE700BF7C1E002018
:1067300000B58BB083788DF808300379427943EA4D
:106740000223ADF80A30C37802A803F003038DF8E2
:106750000C3017F0DBF810F1780F9DF8083025D1D8
:106760001E4A1F48CDE908234FF4C451032307AA4A
:10677000019307931CF0B9FE9DF8080017F070F91B
:1067800010F1780F24D19DF80830164A1448CDE94D
:1067900008234FF4C451032307AA019307931CF065
:1067A000A4FE114B012083F8B9000EE00028E3D0CD
:1067B0000E4A0B48CDE908234FF4C251032307AA20
:1067C000019307931CF091FE00200BB05DF804FBD1
:1067D0000028E6D09DF80830054AEAE700A6020046
:1067E000188A020047A602007C1E002023A6020091
:1067F00067A6020004282DE9F047DFF888800446E8
:106800000E460ED1FFF75AFFDFF87C9099F8B930A9
:106810005BB100F00FFF042C01D0012C05D11B4D02
:1068200016E00528F0D00128EED0184D45451ED3BE
:10683000154B1B6A1BB331462046BDE8F04718478D
:10684000D5F820A000272A7FFBB29A4203D824352E
:106850004545F5D307E00AEBC3030137187917F074
:1068600029F90028EFDA002389F8B930DDE7EB6871
:106870001BB132462146284698472435D6E7BDE865
:10688000F08700BF4C0C00207C1E0020280C00204C
:1068900070B5C4B288B063060D468DF8034007D0CA
:1068A0002046FFF713FFF0B11B4B93F8BA00D0B1AD
:1068B000194E0323CDB1194A19480193CDE9062495
:1068C0004FF4C65105AA05931CF00FFE9DF8030076
:1068D00017F050F8F3690BB9012004E008200DF11E
:1068E00003019847284608B070BD0E4A0C48019332
:1068F000CDE906244FF4C65105AA05931CF0F5FD19
:106900009DF8030017F070F8F369002BE4D00DF147
:10691000030109209847DFE77C1E002088A60200BB
:10692000188A02009BA602002DE9F04FDFF87CA236
:10693000DAF8185089B004460E46174665B9207833
:1069400000F01F00012800F0A680022800F0388126
:1069500038B16FF0150094E0A8470028EFD100206F
:106960008FE094F900206578002A30DA062D3A6825
:106970000FD0082D25D0002DEBD1012155701170BD
:106980009AF8C330002B18BF02250D43157002235F
:106990001BE061880A0A141F012CDAD9072AD8D80B
:1069A000DAF82430C9B21C78002CD2D05D78954238
:1069B00003D1814200F0388101302344F3E71B7892
:1069C00037E19AF8BA3013700123336059E0013D82
:1069D000082DBED801A353F825F000BF756A00004A
:1069E00053690000896A000053690000016A0000D1
:1069F0005369000053690000536900000D6A0000EC
:106A0000A07816F03DFF0028A9D0A2E7658845B11F
:106A1000FF27DAF824600020B846357875B90028D9
:106A200097D0FFF74BFEDAF81C3062888AF8BA205C
:106A3000002B94D05E490320984790E77278042A8F
:106A40000BD0052A0CD0022A04D177796188B9428B
:106A500008BF012032781644DFE796F80380F9E793
:106A60006288BA42F6D1B8F1000FF3D13046FFF791
:106A70005FFEEFE76288012A7FF46BAF00208AF89F
:106A8000C30009B0BDE8F08F6288012A7FF461AFCE
:106A90008AF8C32063E79AF8BA20002A3FF459AF76
:106AA000DAF82450B4F804E020792A461178002955
:106AB0003FF44FAF5378022B04D192F80480804505
:106AC00000F2B9800A44F1E7087048707DE7054498
:106AD000BEE00B287FF43DAF4FF0000B4FF0FF08F6
